:020000040800F2
:10000000A03D0020A1010008D3230008BD21000865
:10001000D123000809090008632800080000000037
:10002000000000000000000000000000D7230008CE
:10003000C909000800000000D5230008D9230008E2
:10004000BB010008BB010008BB010008BB010008A0
:10005000BB010008BB010008BB010008BB01000890
:10006000BB010008BB010008BB010008BB01000880
:10007000BB010008BB010008BB010008BB01000870
:10008000BB010008BB010008BB010008BB01000860
:10009000BB010008BB010008BB010008BB01000850
:1000A000BB010008BB010008BB0100088124000857
:1000B000BB010008BB010008BB010008BB01000830
:1000C000BB010008BB010008BB010008BB01000820
:1000D000BB010008BB010008BB010008BB01000810
:1000E000BB010008BB010008BB010008BB01000800
:1000F000BB010008BB010008BB010008BB010008F0
:10010000BB010008BB010008BB010008BB010008DF
:10011000BB010008BB010008BB010008BB010008CF
:100120000D090008BB010008BB010008BB01000865
:10013000BB010008BB010008BB010008BB010008AF
:10014000BB010008BB010008BB010008BB0100089F
:10015000BB010008BB010008BB010008BB0100088F
:10016000BB010008BB010008BB010008BB0100087F
:10017000BB010008BB010008BB0100080000000033
:10018000BB010008BB010008DFF810D000F0CEFA78
:1001900000480047B5390008AFF30080A03D0020BB
:1001A0000648804706480047FEE7FEE7FEE7FEE711
:1001B000FEE7FEE7FEE7FEE7FEE7FEE77124000844
:1001C000890100082DE9F05F0546002092469B4614
:1001D00088460646814640241BE02846414647465D
:1001E000224600F01DFA53465A46C01A914110D3D8
:1001F00011461846224600F016F82D1A67EB010842
:100200004F4622460120002100F00DF817EB0009AF
:100210004E41201EA4F10104DFDC484631462A4647
:100220004346BDE8F09F202A04DB203A00FA02F1A1
:10023000002070479140C2F1200320FA03F31943D4
:1002400090407047202A06DBCB17203A41FA02F093
:1002500043EAE07306E041FA02F3D040C2F1200223
:100260009140084319467047D2B201E000F8012BD3
:10027000491EFBD270470022F6E710B513460A4626
:1002800004461946FFF7F0FF204610BD2DE9FE4F4A
:10029000804681EA0300C00F0C46009021F0004127
:1002A00023F00045B8EB0200A94105D240462146A3
:1002B00090461C460B46024623F00040104347D0B0
:1002C000270DC7F30A00C3F30A510290401A0190A8
:1002D00040286BDAC3F3130040F4801B0098924669
:1002E00020B10023D2EB030A63EB0B0B01985946B4
:1002F000C0F140025046FFF796FF06460D465046B5
:100300005946019AFFF79EFF10EB08006141002457
:1003100087EA115284EAE7731A4340D0009A62B325
:10032000019A012A4FEA075215DC001B61EB02011A
:100330004FF0004202EA0752CDE90042001C41F5AD
:10034000801132462B4600F08AF903B0BDE8F08FE9
:1003500040462146F9E7001B61EB0201001C41F514
:10036000801300185B412018A2F5001747EB03012A
:1003700040EAD570B6196D4111E06D084FEA3606B6
:1003800045EAC0754FEA0752001B61EB0201001CF1
:1003900041F5801149084FEA3000001951413246B9
:1003A0002B4603B0BDE8F04F00F04AB90098012297
:1003B00040000023D0EB020263EBE073009821467B
:1003C0004FEAE074B8EB000061EB0401E9E783F069
:1003D00000435BE781F0004158E72DE9FE4F81EAD9
:1003E000030404F0004421F0004100944FF0000B9E
:1003F00023F0004350EA01045ED052EA03045BD0CC
:10040000C3F30A54C1F30A552C44A4F2F334019403
:10041000A0FB0254C1F3130141F48011C3F3130391
:1004200043F4801301FB024400FB034E840A970A45
:1004300044EA815447EA8357A4FB076802958D0A72
:1004400005FB07854FEA932C04FB0C542705029DFE
:100450004FEA065847EA1637B5EB08056EEB070C6E
:10046000870E920E47EA811742EA8312A7FB020128
:10047000B6EB0B0164EB00042B0D43EA0C335E1862
:1004800044EB1C50DA465146E7FB0201C5F3130466
:100490004FEA0B3343EA14534FEA0432019C43EA18
:1004A0000603A4F10C040294009CCDE900B400F012
:1004B000D6F803B0BDE8F08F00200146F9E72DE93A
:1004C000F04D81EA030404F0004B21F0004514468E
:1004D0004FF0000A23F0004150EA050220D054EA10
:1004E00001021DD0C5F30A570246C5F31303C1F339
:1004F0001300C1F30A5640F4801543F48013A7EBB0
:100500000608101BD64608F2FD3873EB050002D32F
:1005100008F1010801E092185B41B8F1000F03DA1D
:1005200000200146BDE8F08D00204FF48011064602
:1005300084460EE0171B73EB050705D3121B63EB14
:10054000050306434CEA010C49084FEA30009218B3
:100550005B4150EA0107EDD152EA030012D082EA72
:10056000040083EA0501084305D0101BAB4106D205
:100570000122002306E000224FF0004302E06FF06A
:10058000010253101AEB06004CEB085110EB0A0065
:1005900041EB0B01BDE8F04D00F052B800F0004215
:1005A00030F000400AD0C10D01F56071C0F31600B3
:1005B00042EA0151C208400711437047002001463A
:1005C0007047000030B5041E71F1000404DB4FF0E9
:1005D0000044404264EB0101141E73F1000405DB8A
:1005E0001C464FF00043524263EB0403994208BF9C
:1005F000904230BD30B50B46014600202022012438
:1006000009E021FA02F59D4205D303FA02F5491BE0
:1006100004FA02F52844151EA2F10102F1DC30BDF6
:10062000202A04DB203A21FA02F00021704721FA47
:1006300002F3D040C2F120029140084319467047AE
:1006400010B5141E73F1000408DA401C41F10001DA
:1006500092185B411A4301D120F0010010BD2DE931
:10066000F04D92469B4611B1B1FA81F202E0B0FA28
:1006700080F220329046FFF7D6FD04460F4640EA4E
:100680000A0041EA0B0153465A46084313D011466B
:1006900053EA010019D0C8F140025046FFF7C0FFED
:1006A00005460E46504659464246FFF7BCFD0843F4
:1006B00005D0012004E020463946BDE8F08D002039
:1006C000054346EAE0762C4337430A986305E40A7B
:1006D000A0EB08000022FD0A44EA47540A3002D584
:1006E00000200146E9E7010510196941DDE90845E7
:1006F00000196941BDE8F04DA2E7C1F30A52C1F308
:10070000130140F2FF3341F480119A4202DA0020D3
:100710000146704740F233439A42A2F2334202DC70
:100720005242FFF77DBFFFF77EBD0000064C074D2C
:1007300006E0E06840F0010394E8070098471034B1
:10074000AC42F6D3FFF724FD20C2000840C20008E7
:1007500010B50146806B026C12F0500F05D0026C90
:10076000D20626D500F079FA10BD016C41F4007173
:10077000016401688A6812F0405F17D1027EAAB94D
:10078000CA6A12F4700F02D08A6852050ED44A6801
:1007900022F020024A60016C21F480710164016C36
:1007A000C90403D4016C41F00101016400F0B6F901
:1007B00010BD806BC26CBDE810400846104710B5F4
:1007C000806B40210164416C41F00401416400F000
:1007D00044FA10BD10B5806B00F03EFA10BD000069
:1007E000464910B54A6822F440324A604A68436874
:1007F0001A434A6001684A6822F480724A600168BC
:100800004A68036942EA03224A6001684A6822F0A2
:1008100040724A6001684A6883681A434A60016806
:100820008A6822F400628A6001688A68C3681A4391
:100830008A60816A6FF07062D14201688A6822F032
:1008400070628A6001688A680CD0836A1A438A6081
:1008500001688A6822F040528A6001688A68C36A27
:100860001A4301E022F040528A6001688A6822F04F
:1008700002028A6001688A68037E42EA43028A6053
:1008800090F82010002901684A680FD042F40062F5
:100890004A6001684A6822F460424A6001684A6816
:1008A000174C436A04EB43331A4301E022F400621D
:1008B0004A600168CA6A22F47002CA620168CA6AA0
:1008C000838B104C04EB03531A43CA6201688A6895
:1008D00022F400728A6001688A6890F8303042EA37
:1008E00043228A6001688A6822F480628A60016813
:1008F0008A68406942EA8020886010BD0023014078
:1009000000E0FFFF0000F0FFFEE7000010B5034825
:1009100000F0C6FA02490120087010BD64380020BA
:100920000000002001681823CAB2103AB2FBF3F2AB
:10093000054B6FF30901032A9B5CC36500D9091DB0
:100940008165084670470000003A000810B501466E
:1009500000208B698A6A4FF0C07453B1B3F5005F11
:1009600015D072B1012A0CD0022A0AD0032A09D16B
:1009700004E01AB1012A06D0022A03D1C96AC901CA
:1009800000D5012010BDC96AA142FAD010BD002ACD
:10099000F7D0012AF2D0022AF3D0032AF3D010BDF7
:1009A00030B50468256825F48025256004686360F7
:1009B0008368402B036803D099600068C26030BD33
:1009C0009A600068C16030BD704772B6FEE70000F3
:1009D00078B50024009490F83C20012A19D0012217
:1009E00080F83C200A6807230568092A13D9EE68B5
:1009F0000A3A02EB420293409E43EE600B788A680B
:100A00000A3B03EB43039A400368DD682A43DA603C
:100A100010E0022078BD2E6902EB420293409E4313
:100A20002E610B788A6803EB43039A4003681D69C3
:100A30002A431A614A681F23072A13D205686E6B7E
:100A4000521E02EB820293409E436E630B790A882A
:100A50005B1E92B203EB83039A4003685D6B2A43EB
:100A60005A6327E005680D2A12D22E6BD21F02EBC3
:100A7000820293409E432E630B790A88DB1F92B259
:100A800003EB83039A4003681D6B2A431A6311E04A
:100A9000EE6A0D3A02EB820293409E43EE620B79BE
:100AA0000A880D3B92B203EB83039A400368DD6A28
:100AB0002A43DA62164B0568144A9D4206D10D6836
:100AC000122D03D1556845F48005556005689D4297
:100AD00018D10B68102B01D0112B13D1536843F49C
:100AE00000035360096810290CD10A490A4A0968B1
:100AF000B1FBF2F101EB8101490000E0491E0091D8
:100B00000029FBD180F83C40002078BD0023014043
:100B1000002001401000002040420F00F0B52DEDF4
:100B2000028B89B03B4801780029FCD03A4A9FEDFE
:100B30003B0A9FED3B8A002002F500654FF480667A
:100B400032F8101000EE901A05EBC001401CF8EED0
:100B5000600AB04270EEC00AC1ED000A81ED018A60
:100B6000EEDB01230022314602A802F0FBFC2D49F6
:100B700002A802F0D8FC37462B4E002405EBC40037
:100B800090EC020A20EE000A00EEA00A01F0F4FF49
:100B900006EB8400641C80ED000ABC42EEDB002002
:100BA00007908DED088A07AB08AA4FF400711E4824
:100BB00002F030FD079805EBC000D0ED000A90ED83
:100BC000010A01F083FEDDED070A9FED181AF8EE29
:100BD000600A20EE818ADFED160A9FED161A60EE9C
:100BE000200A80EE810A10EE100AFFF7D7FC0446B7
:100BF0000D4618EE100AFFF7D1FC41EC100B0EA0C9
:100C000053EC102BCDE9004501F02CFE09B0BDECF2
:100C1000028BF0BD000000201C00002000000045F9
:100C2000000000001C0800201C28002000409C41FF
:100C300000003443DB0F4940467265713A20252E8F
:100C4000326620487A2C2050686173653A20252E40
:100C50003266206465670A007047704770B504000B
:100C60004FF0000503D0206C002610B107E00120F2
:100C700070BD204600F01CF8666484F83C60206C6F
:100C8000C00610D4206C20F4885040F0020020648C
:100C90002046FFF7A5FD6664206C20F0020040F0BE
:100CA0000100206400E0012584F83C60284670BD06
:100CB00070B586B0064614216846FFF7DCFA1D4978
:100CC0003068884233D11C480025016841F48071A6
:100CD0000160006800F480700590174814380168BE
:100CE00041F0010101600068694600F001000590D3
:100CF000012000900320CDE90105104800F042FAE0
:100D0000104C0F48C4E900050015A560C4E9035064
:100D1000400060618000C4E90605256220466562E6
:100D200000F08EF908B1FFF750FEB463A66306B079
:100D300070BD000000200140443802400000024025
:100D40001064024064380020F8B50E4600210446C5
:100D5000009190F83C0013460A46012807D0012074
:100D600084F83C0020688568ED0702D011E002207D
:100D7000F8BD856845F0010585604048404D006834
:100D8000B0FBF5F000EB400000E0401E00900028B2
:100D9000FBD120688568ED0503D5856825F480754D
:100DA000856020688568ED075DD0226C40F20165A2
:100DB000AA4342F4807222644068400505D5206C45
:100DC00020F4005040F480502064206CC00404D50E
:100DD000606C20F00600606400E0616484F83C1000
:100DE000A16B2948274DC863A16B28480864A16BF3
:100DF0002748C86421686FF02200086020684168B5
:100E000041F0806141602068816841F480718160B7
:100E1000216832464C31A06B00F07CF902466868CC
:100E20001C49C006206806D0884224D1816811F090
:100E3000405F13D01FE08842F8D0174B984203D18F
:100E4000D1F80433DB06F1D0144B984213D1D1F81A
:100E5000041301F01F011029E8D30CE0816841F070
:100E60008041816007E0206C40F010002064606CDD
:100E700040F0010060641046F8BD00001000002042
:100E800040420F000023014051070008D507000829
:100E9000BF0700080020014000210140002201405E
:100EA0002DE9F84304464FF00009CDF8009063485F
:100EB0004FF41651A56D0068B0FBF1F72E6894F859
:100EC0005C10082000FA01F131420FD021680A6855
:100ED00052070BD50A6822F004020A6094F85C10ED
:100EE0008840A860606D40F00100606594F85C1077
:100EF0004FF0010808FA01F0304208D02168496932
:100F0000090604D5A860606D40F00200606594F8A1
:100F10005C1004208840304208D0216809688907A5
:100F200004D5A860606D40F00400606594F85C1022
:100F300010208840304218D021680968090714D56C
:100F4000A86020680168490304D50068000308D53B
:100F5000A16C07E00168C90503D4016821F008010C
:100F60000160216C09B12046884794F85C1020206C
:100F70008840304231D021680968C9062DD5A86063
:100F800094F8350005282068016806D0490347D544
:100F9000006800031DD4616C1CE021F016010160A3
:100FA0002068416921F080014161206C08B9A06C82
:100FB00020B12068016821F00801016094F85C10FC
:100FC0003F208840A86084F8358084F83490216DF3
:100FD0001FE0E16B09B120468847606D00282BD0E7
:100FE000606DC00714D0052084F8350020680168C2
:100FF00021F0010101600098401C0090B84203D824
:1010000020680068C007F6D184F8358084F83490F1
:10101000E16C002910D001B02046BDE8F04308473C
:101020000168C905D5D4016821F01001016084F878
:10103000358084F83490CCE7BDE8F88310000020B8
:101040002DE9F041044600F095F906465CB1022016
:1010500084F83500002584F834502068016821F0B8
:10106000010101600DE00120BDE8F08100F082F98E
:10107000801B052805D920206065032084F83500F1
:10108000F2E720680068C007F0D1226811682048A4
:101090000140D4E901031843D4E90336334318432C
:1010A00063691843A3691843E3691843236A184323
:1010B0000843616A042903D1D4E90B131943084397
:1010C000106020684069666A20F0070130460E43D0
:1010D000012704280CD1A06A0643E06A40B12046EB
:1010E000FFF734FC20B14020606584F83570BAE722
:1010F000206846612046FFF715FC94F85C203F21EC
:1011000091408160656584F835700020ACE700008F
:101110003F8010F02DE9F0410446866D90F83400D0
:10112000002501280DD0012084F8340094F8357092
:101130000020012F07D084F8340002252846BDE89E
:10114000F0810220FBE7022784F8357060652046B5
:10115000FFF726FC94F85C103F208840B0602068C0
:10116000016841F016010160206C20B1206801681F
:1011700041F0080101602068016841F0010101604F
:10118000DCE700002DE9F84FDFF8BCA100220125C3
:1011900003264FF00F090AF1040BAAF1040E00BF59
:1011A0000B6805FA02F42340A34270D10F7907F0CF
:1011B0000307012F01D0022F16D187684FEA42089A
:1011C00006FA08FC27EA0C07D1F80CC00CFA08FC58
:1011D0004CEA070CC0F808C04768A7430C79C4F371
:1011E000001494403C4344600C79E443A4070AD0C3
:1011F000C4684FEA420C06FA0CF7BC438F6807FA42
:101200000CF72743C7600C7904F00304022C12D1B9
:10121000D40800EB840CDCF820405707FF0E09FAD5
:1012200007F824EA0804D1F8108008FA07F848EA19
:101230000408CCF8208004684FEA420C06FA0CF748
:10124000BC430F7907F0030707FA0CF72743076041
:101250004C6814F4403F70D03C4C276847F48047FA
:101260002760246822F0030704F480440094384C7B
:1012700007EB040CDCF8084897074FEA177809FADF
:1012800008F7BC43334FB84202D1002724E054E0B2
:10129000314FB84201D101271EE0304FB84201D191
:1012A000022719E02E4FB84201D1032714E02D4F39
:1012B000B84201D104270FE02B4FB84201D10527D6
:1012C0000AE02A4FB84201D1062705E0284FB8426C
:1012D00001D1072700E0082707FA08F72743CCF8D1
:1012E0000878DAF800405746D1F804C09C435FEA1A
:1012F000CC2C00D51C433C60DBF800405F46D1F8A5
:1013000004C09C435FEA8C2C00D51C433C60DEF893
:1013100000407746D1F804C09C435FEA8C3C00D57E
:101320001C433C60084F083F3C68D1F804C09C4314
:101330005FEACC3C00D51C433C60521C102AFFF4F1
:101340002FAFBDE8F88F0000083C01404438024050
:10135000003001400000024000040240000802404A
:10136000000C02400010024000140240001802402D
:10137000001C024001488068704700000400002003
:10138000024881680278114481607047040000209F
:101390000B4810B5016841F400710160016841F427
:1013A00080610160016841F480710160032000F0F8
:1013B0006FF80F2000F006F800F024F8002010BDB0
:1013C000003C024070B50D4D04464FF47A71287808
:1013D000B1FBF0F00A490968B1FBF0F000F00CFB3A
:1013E00048B9102C07D200222146501E00F030F8D8
:1013F00000206C6070BD012070BD00000400002062
:10140000100000200A4808B5016841F480410160DD
:10141000006800F4804000900548001F016841F01A
:1014200080510160006800F08050009008BD00000D
:1014300044380240002809DB00F01F0201219140DE
:101440004009800000F1E020C0F800117047000062
:10145000F0B40E4B1B680C46C3F30223C3F107051F
:10146000042D00D90425191D072901D2002300E00D
:10147000DB1E012606FA05F1491E214099409E40D7
:10148000761E16403143F0BC01F00FBA0CED00E0BF
:10149000064900F0070208684FF6FF03184040EACB
:1014A0000220034A10430860704700000CED00E082
:1014B0000000FA052DE9F0470E46050065D0DFF87B
:1014C0001481D8F80000F7B200F00700B04207D24C
:1014D00088F80070D8F8000000F00700B04254D13E
:1014E00028683D4C810712D5400703D5206840F499
:1014F000E05020602878000703D5206840F4604061
:1015000020602068A96820F0F00008432060287857
:10151000C0072DD0304968680839012812D0022848
:1015200013D0032811D00968890700292DDA216812
:1015300021F0030101432160FFF71CFF814641F2C6
:10154000883A0EE009688903EFE709688901ECE74A
:10155000FFF710FFA0EB0901514502D90320BDE8B8
:10156000F0872068696800F00C00B0EB810FEFD1C4
:10157000D8F80010404601F00701B14207D90770C2
:10158000006800F00700B04201D00120E7E72878AA
:10159000400705D52068E96820F4E0500843206042
:1015A0002878000706D52068296920F4604040EAC1
:1015B000C100206000F038F82168084AC1F3031127
:1015C000515CC8400649086006480068FFF7FAFE0B
:1015D0000020C4E7003C024008380240083A0008F6
:1015E0001000002008000020044805490068096830
:1015F000044AC1F38221515CC840704710000020AA
:1016000008380240183A000804480549006809688B
:10161000044AC1F34231515CC840704710000020B9
:1016200008380240183A0008154810B5006810F054
:101630000C02144813D01449042A0FD0082A0ED1E2
:101640000F4C241F2268236802F03F025B0207D57B
:101650002068C0F38810A0FB010106E0084610BD19
:101660002168C1F38811A1FB00010023FEF7AAFD48
:101670002168C1F30141491C4900B0FBF1F010BDE4
:10168000083802400024F40040787D012DE9F84F2D
:1016900004006ED02078DFF84C93C007A9F1040550
:1016A0004AD009F104000168C1F38101012908D081
:1016B0000068C0F3810002280AD1D9F80000400276
:1016C00006D52868800337D560680028E1D033E06C
:1016D0006068B0F5803F10D0B0F5A02F286810D01A
:1016E00020F480302860286820F48020286060681A
:1016F000A8B1FFF73FFE06460DE0286840F48030B1
:10170000F4E740F480202860F7E700BFFFF732FEDF
:10171000801B642873D828688003F7D50CE0FFF796
:1017200029FE064605E000BFFFF724FE801B642863
:10173000F0D828688003F7D42078DFF8AC828007DF
:101740004FF0000A3ED5A748001D016811F00C0FAC
:1017500008D00068C0F3810002280BD1D9F800003E
:10176000400207D42868800716D5E068012800D118
:1017700012E033E1E068B8B10120C8F80000FFF7DB
:10178000F9FD064605E000BFFFF7F4FD801B0228C7
:10179000C0D828688007F7D52868216920F0F800AC
:1017A00040EAC10028600DE0C8F800A0FFF7E2FDA4
:1017B000064604E0FFF7DEFD801B02281FD82868DC
:1017C0008007F7D42078000722D5864F87486169C3
:1017D000703771B101210160FFF7CCFD064604E0CE
:1017E000FFF7C8FD801B022809D838688007F7D5A5
:1017F0000EE0C0F800A0FFF7BDFD064605E082E060
:10180000FFF7B8FD801B02287DD838688007F7D421
:101810002078400768D5DFF8CCB100270BF13C0BEE
:10182000DBF80000C0000BD4DBF8001041F0805161
:10183000CBF80010DBF80000012700F0805000908A
:101840006B4E3068C00510D4306840F48070306052
:10185000FFF790FD009005E0FFF78CFD0099401A1E
:10186000022850D83068C005F6D55E4EA0686C36A8
:1018700001280FD00528306810D020F0010030601A
:10188000306820F004003060A068B8B1FFF772FD46
:1018900000900FE0306840F00100F4E740F00400F1
:1018A0003060F7E7FFF766FD0099411A41F2883092
:1018B000814266D830688007F4D50EE0FFF75AFD04
:1018C000009007E0FFF756FD0099411A41F2883079
:1018D000814256D830688007F4D42FB1DBF800106D
:1018E00021F08051CBF80010A069C8B33D49091D13
:1018F0000968C1F3810102294AD00228504607D065
:10190000C8F8600000E03CE0FFF734FD04463BE02F
:101910004746C8F86000FFF72DFD064605E000BF0A
:10192000FFF728FD801B02282BD828688001F7D4F8
:10193000D4E907010843A16A2E4A490802EB014194
:10194000626A41EA8211084394F82C1040EA01616E
:10195000C9F8001001203866FFF70CFD044606E0C8
:101960003EE000BFFFF706FD001B022809D82868EB
:101970008001F7D534E000BFFFF7FCFC001B022814
:1019800002D90320BDE8F88F28688001F4D427E04D
:101990000128F7D0D9F80000E26900F480019142F3
:1019A0001CD1226A00F03F01914217D147F6C07165
:1019B000626A0140B1EB821F10D1A26A4FF0FF337F
:1019C00000F4403103EB5202B1EB024F06D194F820
:1019D0002C1000F07060B0EB016F01D00120D1E756
:1019E0000020CFE70438024000004742800E474203
:1019F000007000400000FFFF10B5401EB0F1807F76
:101A000001D3012010BD4FF0E02460610F21601769
:101A100000F04BFF0020A06107202061002010BDD6
:101A20007047704770B590F83C20012A32D00124ED
:101A300080F83C40022280F83D2003685A689D6887
:101A400022F070060A6832435A60134B02689A42C9
:101A500014D0B2F1804F11D0104B9A420ED0104BDF
:101A60009A420BD00F4B9A4208D00F4B9A4205D0A6
:101A70000E4B9A4202D00E4B9A4204D1496825F08F
:101A800080031943916080F83D40002180F83C10AC
:101A9000084670BD022070BD0000014000040040F7
:101AA00000080040000C00400004014000400140DC
:101AB0000018004010B5040003D094F83D0010B1A8
:101AC00007E0012010BD002084F83C00204600F013
:101AD0001FF8022084F83D00211D206800F0D6FC8C
:101AE000012084F8460084F83E0084F83F0084F822
:101AF000400084F8410084F8420084F8430084F8F0
:101B0000440084F8450084F83D00002010BD00002A
:101B100010B586B0044614216846FEF7ACFB1E4A99
:101B200021680020914229D11C490A6842F0010233
:101B30000A60096801F001010591184914390A6821
:101B400042F010020A60096801F0100105914FF49B
:101B5000206100910221CDE9011003900120049041
:101B600069460F48FFF70EFB002211461B20FFF7C6
:101B70006FFC1B20FFF75EFC06B010BD09488142D8
:101B8000FAD10648001F016841F0020101600068B7
:101B900000F002000590EFE70000014044380240E9
:101BA000001002400004004070B5044690F83C006C
:101BB0000025012817D0012684F83C60022084F813
:101BC0003D002068826822F0770222F47F42826022
:101BD0000868502838D00DDC20284FD005DC90B3A1
:101BE000102811D14AE0022070BD302846D040288C
:101BF0000AD13BE060282FD070280DD0B0F5805F6F
:101C000003D0B0F5005F12D0012584F83D600020BC
:101C100084F83C00284670BDCB68D1E901212068DA
:101C200000F0A9FC2068816841F0770109E0CB68E9
:101C3000D1E90121206800F09EFC2068816841F410
:101C400080418160E1E719E0CA684968206800F0D6
:101C5000A4FC5021206806E0CA684968206800F0AA
:101C6000EDFC6021206800F090FCCEE7CA6849686E
:101C7000206800F092FC40212068F4E722680146C9
:101C80001046F0E770472DE9F041054690F83C001A
:101C900000260C46012810D0012085F83C0072B1C6
:101CA000042A1CD0082A2CD00C2A50D0012600204F
:101CB00085F83C003046BDE8F0810220FBE7D4E91E
:101CC0000012E368286800F079FC2868816921F037
:101CD0000C01816128688169A26811430FE0D4E991
:101CE0000012E368286800F0BBFC2868816921F4D1
:101CF0004061816128688169A26841EA02218161AD
:101D0000D5E72868D4E9002C277B036A016A21F40F
:101D100080710162C16923F4206321F0030141EA6B
:101D20000C0121F0F00C39074FF420674CEA1161E7
:101D300007EA02221A43C16102622868C16921F0E0
:101D40000C01C1612868C169A26811432BE02868B1
:101D5000D4E90021E768036AD0F820C02CF4805C45
:101D6000C0F820C0D0F81CC023F420432CF4407CE1
:101D70004CEA012121F4704C4FF6FF7101EA073162
:101D80004FF4204741EA0C0107EA02321A43C161CD
:101D900002622868C16921F44061C1612868C16993
:101DA000A26841EA0221C16181E710B5040003D0B5
:101DB00094F83D0010B107E0012010BD002084F828
:101DC0003C00204600F01EF8022084F83D00211D52
:101DD000206800F05BFB012084F8460084F83E0098
:101DE00084F83F0084F8400084F8410084F8420001
:101DF00084F8430084F8440084F8450084F83D00EA
:101E0000002010BD7047000030B50446002551B1D8
:101E100004290DD0082910D094F8410094F84520E9
:101E2000012811D10EE094F83E0094F84220F7E723
:101E300094F83F0094F84320F2E794F8400094F8B7
:101E40004420EDE7012A01D0012030BD022059B124
:101E5000042912D0082919D084F8410084F84500DB
:101E60000C2944D0012540E084F83E0084F842006B
:101E70002068C26842F0020210E084F83F0084F853
:101E800043002068C26842F0040207E084F8400082
:101E900084F844002068C26842F00802C26001224F
:101EA000206800F05BFB14492068884214D0B0F130
:101EB000804F11D0114988420ED0114988420BD071
:101EC0001049884208D01049884205D00F498842FD
:101ED00002D00F49884204D1816801F00701062928
:101EE00003D0016841F001010160284630BD20683F
:101EF000C26842F01002D1E7000001400004004037
:101F000000080040000C0040000401400040014077
:101F1000001800402DE9F04104460068C6680569D4
:101F20004FF00007A90713D5B10711D5F91E0161BC
:101F300001202077206880698007204602D0FFF7C3
:101F4000A1FE04E000F07EF8204600F07CF8277740
:101F5000680716D5700714D521686FF00400086172
:101F6000022020772068806910F4407F204602D04C
:101F7000FFF788FE04E000F065F8204600F063F803
:101F80002777280715D5300713D521686FF008008B
:101F90000861042020772068C0698007204602D0AD
:101FA000FFF770FE04E000F04DF8204600F04BF81B
:101FB0002777E80616D5F00614D521686FF01000D3
:101FC0000861082020772068C06910F4407F20460F
:101FD00002D0FFF757FE04E000F034F8204600F08E
:101FE00032F82777E80708D0F00706D021686FF0AD
:101FF00001000861204600F027F8280608D53006C1
:1020000006D521686FF0800008612046FFF708FDC3
:10201000680608D5700606D521686FF04000086193
:10202000204600F012F8A8060AD5B00608D52168A7
:102030006FF0200008612046BDE8F041FFF7F1BCD9
:10204000BDE8F081704770477047704770B5040075
:1020500004D094F84100002510B106E0012070BDC5
:1020600084F84050204600F023F8242084F84100F2
:102070002068C16821F40051C160204600F032FBA5
:102080002068016921F4904101612068416921F0D3
:102090002A0141612068C16841F40051C160656452
:1020A000202084F8410084F842006563002070BD60
:1020B00010B586B0044614216846FEF7DCF81449D2
:1020C0002068884221D113480021026842F01002A2
:1020D0000260006800F0100005900E481438026895
:1020E00042F001020260006800F0010005904FF428
:1020F000C06000900220CDE9010103200390072079
:10210000049069460448FFF73DF806B010BD000092
:102110000010014044380240000002402DE9F8431D
:10212000044690F84100984616460D46202802D0F5
:102130000220BDE8F88385B17EB1002060642120D3
:1021400084F84100FFF716F9A6848146E684A0686A
:102150002027B0F5805F02D003E00120E9E7206985
:1021600010B12E4600250EE000260CE0802120460E
:1021700000F03EFBA8B9C6B116F8010B2168486013
:10218000E08C401EE084E08C4B464FF00002CDF81E
:1021900000800028EAD14FF04001204600F028FBE3
:1021A00040B184F841700320C3E735F8020BC0F357
:1021B0000800E3E784F841700020BAE7FEE700007A
:1021C0007FB50024154800940194029412490394A9
:1021D00001604FF48031C0E901140461047680F895
:1021E00020400903C1620125C5614910C4608162B4
:1021F00080F830404561FEF731FD08B1FEF7E5FBA0
:10220000CDE90045694605480294FEF7E1FB002848
:1022100001D0FEF7DAFB7FBD002001401C38002012
:10222000094808B5016841F4800101600068002296
:1022300000F48000009011463820FFF709F9BDE84E
:1022400008403820FFF7F6B8303802400D4808B58E
:10225000016841F080010160016801F08001009196
:10226000016841F001010160016801F00101009184
:10227000016841F010010160006800F0100000905A
:1022800008BD00003038024010B58AB0002427484D
:102290000494059406940794089409940094019476
:1022A000029421490394C0E900145121C0E902417C
:1022B00080210461C0E90541FFF7FCFB08B1FEF78E
:1022C00084FB4FF48050049004A91848FFF76CFC7D
:1022D00008B1FEF77AFB1548FFF767FD08B1FEF776
:1022E00074FB089408A911480994FFF79BFB08B1F7
:1022F000FEF76BFB0120CDE900400420CDE9024050
:10230000002269460948FFF7BEFC08B1FEF75DFBF5
:10231000042269460548FFF7B6FC002801D0FEF705
:1023200054FB0AB010BD000000000140C43800207A
:1023300010B586B0002417480094019402940394C9
:10234000049413490594C0E900145121C0E90241E5
:10235000802104618161FFF7ADFB08B1FEF735FB19
:102360004FF48050009069460A48FFF71DFC08B101
:10237000FEF72BFB2020CDE9040404A90548FFF754
:1023800051FB002801D0FEF720FB06B010BD000075
:10239000000400400C3900200C4810B50A490160C7
:1023A0004FF4E1314160002181600C22C160C0E93D
:1023B00004128161C161FFF749FE002803D0BDE826
:1023C0001040FEF702BB10BD001001405439002040
:1023D000FEE7FEE770477047FEF7D2BF30B593B017
:1023E00030216846FDF747FF14210CA8FDF743FF95
:1023F0001D480025016841F080510160006800F02F
:10240000805011901948016841F4804101600068D2
:10241000022400F4804011900120039010200490C9
:10242000009406940820CDE90750A820CDE90904BE
:1024300004200B906846FFF729F908B172B6FEE751
:102440000CA90F2081E831004FF4A0500F904FF4F9
:102450008050109005210CA8FFF72CF8002801D01F
:1024600072B6FEE713B030BD403802400070004045
:102470000248016841F470010160704788ED00E096
:102480000148FFF747BD0000C4380020F0B50268DE
:10249000274B284D284E294F294C4FF0804C98420D
:1024A00009D0604507D0A84205D0B04203D0B84259
:1024B00001D0A04204D122F0700E4A6842EA0E0216
:1024C00098421BD0604519D0A84217D0B04215D011
:1024D000B84213D0A04211D01A4DA8420ED01A4DC6
:1024E000A8420BD0194DA84208D0194DA84205D0DA
:1024F000184DA84202D0184DA84203D122F44075CD
:10250000CA682A434D6922F080022A438D68C56259
:102510000D688562984201D0A04201D1096901632A
:10252000016841F004010160012141610260F0BDD8
:10253000000001400004004000080040000C004082
:1025400000040140004001400044014000480140B7
:1025500000180040001C00400020004010B501F0B1
:102560001F030121046A99408C430462016A9A4066
:102570001143016210BD10B5846842EA032224F4BD
:102580007F440A432243826010BD826822F07002B9
:102590000A4342F007018160704710B5036A046A7C
:1025A00024F001040462846924F0F00444EA021473
:1025B00023F00A020A438461026210BD70B5056A05
:1025C000046A24F0010404628469154EB04214D0F8
:1025D000B0F1804F11D0134EB0420ED0124EB04227
:1025E0000BD0124EB04208D0114EB04205D0114E61
:1025F000B04202D0104EB04203D124F00304144381
:1026000001E044F001041A0724F0F00444EA1262E5
:1026100025F00A0301F00A0119438261016270BDCD
:10262000000001400004004000080040000C004091
:1026300000040140004001400018004010B5036A4A
:10264000046A24F010040462846923F0A00324F4D3
:10265000704444EA023243EA01118261016210BD12
:1026600030B5046A056A25F010050562856925F410
:10267000407545EA022222F470454FF6FF7202EAE5
:10268000033224F0A0032A43A02404EA01111943D1
:102690008261016230BD01680C3151E8002F22F4E3
:1026A000907241E80023002BF5D10168143151E804
:1026B000002F22F0010241E80023002BF5D1016B2D
:1026C000012909D101680C3151E8002F22F01002D4
:1026D00041E80023002BF5D1202180F84210002191
:1026E0000163704770B5044600680169E26821F42F
:1026F0004051114301612169A068E26908436169A1
:10270000114308432168CA6849F20C639A430243A3
:10271000CA6020684169A26921F440711143416196
:1027200031492068884202D03049884202D1FEF700
:102730006BFF01E0FEF758FFE269002319216425D1
:102740003226B2F5004F626828D0A0FB0101930F3A
:102750009200FDF737FD0146B0FBF5F06FF018026F
:10276000504301EB800006EB0010B0FBF5F000F0E9
:10277000F002B1FBF5F002EB0012B1FBF5F06FF0E7
:102780001803584301EB800006EB0010B0FBF5F096
:1027900000F00F0021681044886070BDA0FB0101AB
:1027A00092185B41FDF70EFD0146B0FBF5F002010A
:1027B000B1FBF5F06FF01803584301EB800006EB16
:1027C000C000B0FBF5F000F0F80002EB4002B1FBF6
:1027D000F5F0584301EB800006EBC000B0FBF5F0CC
:1027E00000F00700D6E7000000100140001401408F
:1027F0002DE9F843984617460D460446089E24E006
:10280000701C22D0FEF7B6FDA0EB0800B0421AD82B
:10281000CEB12068C168490717D5802D15D0402D4D
:1028200013D00168C94309070FD401680025406827
:1028300000902046FFF72FFF0820606484F8405086
:102840000120BDE8F8830320FBE72068006835EA33
:10285000000004D00020B842D2D00020F1E70120CF
:10286000F9E7FEE70FB4054B10B503A9044A029837
:1028700000F082FA10BC5DF814FB00009D390008DE
:10288000140000204100080218BF04200A0E18BFDF
:1028900040F001004FF07F4232EA010108BF40F0F2
:1028A0000200012808BF052070470907090E00280B
:1028B00004DB00F1E02080F80014704700F00F0006
:1028C00000F1E02080F8141D7047000070B54FF053
:1028D00068422DED048BF0EE408A18EE900AB0EEBF
:1028E000608A18EE101A02EB4003B3F1654F3CBF4B
:1028F00002EB4102B2F1654F7DD200BFC0F3C75376
:10290000C1F3C7529A1A1B2A09DD10F0004F14BFF9
:102910009FED830A9FED830ABDEC048B70BD12F11D
:102920001A0F36DA11F0004F09D010F0004F0CBF2B
:102930009FED7D0A9FED7D0ABDEC048B70BD88EE96
:10294000889A19EE100AFFF79DFF042808BF00F0CF
:1029500033F918EE900AFFF795FF054618EE100AB6
:10296000FFF790FF044619EE100AFFF78BFF042DC6
:1029700018BF052D08D1042C18BF052C04D1002840
:1029800004BF022000F030F9B0EE490ABDEC048B20
:1029900070BD4200B2EB410F3AD910F0004F19BFA1
:1029A000DFED630A9FED630ADFED630A9FED630AC3
:1029B000B0EE481A0A46B1EE688A80F00041F0EEA7
:1029C000418A10460A1A5200B2F1807F34D2484040
:1029D00010F0004FDFED5A1A9FED5A2A1DBFBEEED0
:1029E000001A70EEE10A30EE420AB6EE001A08BF95
:1029F00070EEA10A00E040E008BF30EE020AB0EE3F
:102A0000682A01EE482A08EE818AC2EE081A15E00B
:102A100011F0004F04BF9FED4C0AF0EE400AD1D0F8
:102A200010F0004F19BFDFED490A9FED490ADFEDB5
:102A3000490A9FED490AC5E7C8EE881A21EEA11A96
:102A40009FED462ADFED462A41EE022A9FED452AF8
:102A500001EE222ADFED442A41EE022A9FED432AAD
:102A6000BDEC048B01EE222A21EE811A01EE020A4E
:102A700030EE210A30EE200A70BD4FF07F42B2EBFB
:102A8000400F28BFB2EB410F09D2F0EE480AB0EE7A
:102A9000680ABDEC048BBDE8704000F08AB840EADB
:102AA00001035B0008BF41F0FF410BD0B2EB400FC8
:102AB00008BFB2EB410F08D120F0804008EE900A29
:102AC00021F0804108EE101A18E7B2EB400F12BF58
:102AD0005FEA410340F0FF4001F000413FF40EAFD8
:102AE000B2EB410F12BF5FEA400200F0004041F03C
:102AF000FF413FF403AF4A0092EA40033FF5FEAEC8
:102B0000002AACBF9FED1A0A9FED1A0A68EE808A70
:102B100028EE008A18EE900A18EE101AEEE6000071
:102B2000DB0FC9BFDB0FC93FDB0F4940DB0F49C0DB
:102B30000000C9BF22AAFDB90000C93F22AAFD3981
:102B40000060ED3EC30ACE3700000000000049C01F
:102B500022AA7DBA0000494022AA7D3A2DAD65BD6A
:102B60008FB8D53D0FB511BE61C84C3EA8AAAABE0C
:102B70000000804F0000802F10B52DED028BB1EECC
:102B8000C08A18EE100A20F00040C0F1FF40C00FCC
:102B90000AD010EE100A20F00040C0F1FF40C00F34
:102BA00004BF012000F020F8B0EE480ABDEC028B13
:102BB00010BD30EE200A70479FED020A20EE000A99
:102BC000704700000000001002E008C8121F08C192
:102BD000002AFAD170477047002001E001C1121F9E
:102BE000002AFBD1704700000149086070470000CF
:102BF000180000202DE9FF5F82B00021DDE90430DC
:102C0000020DDDF840B0034318D044F61050A2F294
:102C1000FF3242431514119801281FD0A5EB0B0079
:102C2000401C5FEA000A4FF000064E4FDFF8389173
:102C3000B046504615D5CAF1000413E0119801249E
:102C40004AA3012801D16FEA0B010298119AC0E949
:102C50000031C0E9024206B0BDE8F09FCBF10000B0
:102C6000DFE704460021404A491842EB0450CDE911
:102C7000001012E0E00707D032463B464046494686
:102C8000FDF7ABFB8046894632463B461046194667
:102C9000FDF7A3FB06460F466410002CEAD1DDE9E0
:102CA0000401DDE90023BAF1000F06DAFDF795FB18
:102CB00042464B46FDF791FB05E0FDF700FC42461E
:102CC0004B46FDF7FCFB04460E460022284BFDF761
:102CD00079FC03D84FF0FF30014607E00022254B76
:102CE00020463146FDF7D2FAFDF707FD102409E032
:102CF000002C0ADB0A220023FDF764FA039B303222
:102D00001A55641E50EA0102F2D1641C039AC4F100
:102D100011031444119A012A03D0012208430DD152
:102D20000AE0084304D000204FF0110B119072E725
:102D3000A3EB0B056D1E0DE05B4504DD4FF00002BB
:102D400005F1010504E003DA4FF00002A5F10105E9
:102D5000002AECD002981199C0E90231C0E900457F
:102D600079E70000000014400000F03F3000000050
:102D70000000F0430000E03F2DE9FF4F95B09A4678
:102D8000884606460025EEE1252877D1002427460F
:102D9000F94A0121039400E0044316F8013F203B67
:102DA00001FA03F01042F7D130782A2811D06FF0E1
:102DB0002F033078A0F13002092A16D8039A44F084
:102DC000020402EB820203EB42021044761C0390E1
:102DD000EFE758F8042B0392002A03DA504244F438
:102DE0000054039044F00204761C30782E2816D14B
:102DF00016F8010F44F004042A280DD06FF02F02BA
:102E00003078A0F13003092B09D807EB870302EBD8
:102E10004303C718761CF3E758F8047B761C307818
:102E20006C280FD006DC4C2817D068280DD06A28F3
:102E300014D104E0742810D07A280FD10DE044F4A6
:102E400000140AE044F4801401E044F44014727861
:102E5000824202D104F58014761C761C30786628F4
:102E60000BD013DC582877D009DC002875D0452812
:102E7000F6D04628F4D047281AD193E118E0632809
:102E800035D0642879D0652812D18BE1702873D0B1
:102E900008DC6728F1D069286FD06E280DD06F2824
:102EA00006D1ACE073282CD0752874D0782853D084
:102EB0005246179990476D1C54E1C4F30250022802
:102EC00009D003280DD0D8F8001004280DD00D60CB
:102ED00008F1040846E1D8F80010EA17C1E90052E9
:102EE000F6E7D8F800100D80F2E70D70F0E718F85B
:102EF000041B8DF8001000208DF80100EB46012026
:102F000003E058F804BB4FF0FF3061074FF00001B9
:102F100002D40DE009F101018946B9420FDA814579
:102F2000F8DB1BF809100029F4D108E009F10101D0
:102F300089468142FADB1BF809100029F6D1039873
:102F40005346A0EB090721463846179A00F080FA4D
:102F5000284400EB090507E044E008E10DE01BF818
:102F6000010B524617999047B9F10109F7D2534620
:102F700021463846179AF2E039E00A21C4F302529A
:102F80004FF0000B0091022A06D058F8040BC1172D
:102F9000032A09D00AE023E008F1070020F0070225
:102FA000F2E80201904605E000B2C117042A01D1FF
:102FB00040B2C117002906DA0A460021404261EBFF
:102FC00002012D2202E0220504D52B228DF80420D7
:102FD000012203E0E20701D02022F7E7914657E003
:102FE0000A2100E010214FF0000B00910BE01021AE
:102FF0004FF0000B44F004040827009103E0082080
:103000004FF0000B0090C4F30252022A05D058F88A
:10301000040B0021032A08D008E008F1070020F083
:103020000702F2E80201904603E080B2042A00D1D0
:10303000C0B24FF0000922072AD53278702A07D093
:10304000DDF800C08CF0100C5CEA0B0C05D00EE033
:1030500040228DF80420012208E050EA010306D046
:1030600030238DF804308DF8052002229146009B14
:1030700083F0080353EA0B030AD150EA010201D19D
:10308000620705D530228DF804204FF001097F1E1C
:103090003278582A04D039A20C920CAA02920BE082
:1030A0003BA2F9E75B46009AFDF78CF80C9B9B5C12
:1030B000029A521E0292137050EA0102F2D1029853
:1030C00004A9081A00F1200B600702D524F480340B
:1030D00000E001275F4502DDA7EB0B0000E00020C8
:1030E00000EB0B01009003984944401A0390E00361
:1030F00006D453462146179A039800F0A9F90544CF
:10310000002706E001A85246C05D179990476D1C44
:103110007F1C4F45F6DBE0030CD553462146179A3A
:10312000039800F095F9054404E0302052461799C1
:1031300090476D1C0099481E00900029F5DC08E0BE
:103140000298029952460078491C029117999047BB
:103150006D1CBBF10001ABF1010BF1DC5BE100F098
:1031600065F90544761C307800287FF40DAE19B05F
:103170002846BDE8F08F00000928010030313233C5
:1031800034353637383961626364656600000000A3
:10319000303132333435363738394142434445468D
:1031A00000000000600700D4062708F1070020F0A7
:1031B0000700F0E80223804603F0004C5FEA0C00B1
:1031C00001D097A009E0200501D596A005E0E00711
:1031D00001D095A001E0AFF24C001390307823F0BD
:1031E000004365280CD006DC452809D046281DD0B0
:1031F00047287FD13BE0662818D067287AD136E08F
:103200000021112F01DB112000E0781CCDE9000125
:1032100004A90CA8FFF7EEFCDDE90D010C9A4FF0B4
:10322000000B07F10109109200914EE04FF00040B1
:103230000097CDE9011004A90CA8FFF7DBFCDDE93C
:103240000D020C9B0F994FF0000B914610930092CA
:1032500011B9791C00EB0109B7EB090003D4C0F1E7
:10326000FF3B07F10109A9EB0700019042E0012FA4
:1032700000DA01270021112F01DD112000E038467E
:10328000CDE9000104A90CA8FFF7B4FCDDE90D01AC
:103290000C9A00914FF0000BB946109221070FD401
:1032A000009A4A4503DA914601E0A9F10109B9F112
:1032B000010F05DD109AA9F10101515C3029F4D00C
:1032C000B84202DA10F1040F03DA0121CDE901104E
:1032D00010E0002803DC8344A9EB000102E0411C5C
:1032E000494500DD8946A0EB0B00401C01904FF0E2
:1032F00000400290200705D40198484502DB4FF0BA
:10330000FF30019000208DF84B0002980DF14B0723
:10331000B0F1004F25D002200C902B200D90029888
:1033200000280CDA404202902D200D9007E00A217F
:103330000298FDF75FF93031029007F8011D0C99F2
:10334000481E0C900029F2DC02980028EFD1791E6B
:103350000D980870307800F0200040F0450007F824
:10336000020D11A8C01BC01D02901398007800B177
:10337000012000EB0901019801EBE0710298014482
:103380000398401A401E0390E00306D4534621469A
:10339000179A039800F05CF805441398007818B168
:1033A0005246179990476D1CE00323D5534621469A
:1033B000179A039800F04CF805441BE0BBF1000F8E
:1033C00007DB0098584504DD1098179910F80B009A
:1033D00001E0179930205246904701980BF1010BFC
:1033E000401E05F10105019004D12E205246179987
:1033F00090476D1CB9F10001A9F10109DEDC05E07F
:1034000017F8010B5246179990476D1C0299481EF8
:1034100002900029F4DC53462146179A03989EE651
:103420002D0000002B000000200000002DE9F041DD
:10343000044600251E461746880404D405E0394694
:103440002020B0476D1C641EF9D52846BDE8F081E8
:103450002DE9F041044600251E469046C80301D5DB
:10346000302700E02027880404D505E0414638468F
:10347000B0476D1C641EF9D52846BDE8F081F0B553
:10348000012500244E0805EB510E2146B51E47E0EC
:10349000A1422BD200EBC40700EBC10CD7ED000A10
:1034A0009CED000ACCED000A87ED000AD7ED010A79
:1034B0009CED010ACCED010A87ED010A01EB0E0734
:1034C00000EBC70C04EB0E0700EBC7079CED000AEE
:1034D000D7ED000ACCED000A87ED000AD7ED010A0E
:1034E0009CED010ACCED010A87ED010A344400EBA2
:1034F000C10700EBC40497ED020AD4ED000A891C51
:10350000C7ED020A84ED000AD4ED010A97ED030A23
:10351000C7ED030A84ED010A1C8803EB420389B25C
:10352000A942B5D9F0BD30B504460D468078218852
:10353000A389626801280DD0284600F082F8E0785F
:1035400001280DD1E28921882846A368BDE83040D2
:10355000FFF795BF94ED040A284600F014F9EEE752
:1035600030BD000070B50180224E4660827000249C
:103570004FF480724FF0FF35C370914221D004DCCC
:10358000102930D0402906D124E0B1F5806F0DD04C
:10359000B1F5805F02D02C46204670BD01218181AB
:1035A000C18115499FED150A816007E004218181E1
:1035B000C18111499FED120A891D816080ED040AC5
:1035C000EAE710218181C1810B499FED0E0A1E316E
:1035D0008160F3E740218181C18107499FED0A0A9B
:1035E0007E318160EAE78281C28108499FED080A45
:1035F0008160E3E720420008203A0008000080399B
:103600000000803A0000803B0000803C1E3C000827
:103610000000803D30B50025B0EC010A4C1E0AE0E8
:10362000F0EC010AB4EEE00AF1EE10FA02D2B0EECC
:10363000600A0D1B641E002CF2D182ED000A1D6091
:1036400030BD2DE9F04F89469B46CA4695E08E462F
:1036500089080024254663001E1902EBC30302EB10
:10366000C407D3ED003A93ED013A02EBC603D7ED60
:10367000004A97ED014AD3ED002A93ED012A5C44FC
:103680002B4603EB010C0CEB010707EB010800EBE9
:10369000C30600EBC707D6ED000A97ED000A96EDCA
:1036A000015A00EBCC0C70EE801A30EEC00AD7ED58
:1036B000010A00EBC808734435EE201A75EE600A63
:1036C0009CED005AD8ED005A4B4535EE255A71EE67
:1036D000855A31EEC55AC6ED005ADCED011AD8ED17
:1036E000015A71EEA51A71EE215AC6ED015A71EE1A
:1036F000615A9CED011AD8ED011A98ED006A31EE7D
:10370000611ADCED001A71EEC61A25EE236A05EE89
:10371000836A65EEA35A45EE435A30EE015A30EE05
:10372000410A30EEE11A70EEA10A65EE241A8CED22
:10373000006ACCED015A41EE041A21EE241A05EE7E
:10374000441AC7ED001A87ED011A20EE221A00EE86
:10375000821A60EEA20A40EE420A88ED001AC8ED15
:10376000010A8ED34B1E6D1C9D427FF674AF4FF63F
:10377000FF7404EA8B0B4FEA9A0ABAF1010F3FF685
:1037800066AFBDE8F08F2DE9F04F89469E46CA46E8
:1037900092E08B4689080024254602EBC4036600AC
:1037A000D3ED003A93ED013A02EBC6033719D3ED9E
:1037B000002A93ED012A02EBC703744493EC025AEA
:1037C0002B465F1807EB010C0CEB010800EBC3065E
:1037D00000EBCC0CD6ED000A9CED001AD6ED014AA8
:1037E00000EBC70730EE814A70EEC10A9CED011A6A
:1037F00000EBC8085B4474EE811A34EEC11AD7EDB1
:10380000004A98ED006A4B4574EE864A34EE246A0D
:1038100034EE644A86ED006AD7ED014A98ED016AFC
:1038200074EE864A31EEA46A86ED016A31EEE46AEE
:10383000D7ED011AD8ED014AD8ED006A71EEE41A0D
:10384000D7ED004A74EEE64A64EE226A46EE426A1A
:1038500026EE226A04EE026A30EEE14AC7ED006A03
:1038600070EEA11A71EE640A87ED016A31EE246AE6
:1038700024EE231A06EE431A8CED001A26EE231AC4
:1038800004EE031A8CED011A21EE851A00EEE51AFA
:1038900060EE850A41EEA50A88ED001AC8ED010A1E
:1038A0008FD34B1E6D1C9D427FF677AF4FF6FF7492
:1038B00004EA8E0E4FEA9A0ABAF1040F3FF669AF96
:1038C0008C080022A9EB010764E013191D1905EB10
:1038D000040C00EBC20600EBC50596ED001AD5ED11
:1038E000000AD5ED011A00EBC30371EE202A31EE78
:1038F000602A96ED011A00EBCC0C0A4471EE210A05
:1039000031EE611AD3ED001A9CED003A71EE831A84
:1039100032EEA13A72EEE12A23EE003A62EE802AFC
:1039200086ED003AD3ED011A9CED013A71EE831A4F
:1039300030EEA13A23EE003A86ED013A30EEE13A5C
:10394000D3ED010ADCED011ADCED003A70EEE11A6C
:10395000D3ED000AC3ED002A63EE002A70EEE30AFD
:10396000C3ED012A72EE612A72EE211A31EE202A8D
:1039700071EE600A22EE801A85ED001A22EE001A1E
:1039800060EE800A85ED011A21EE801A8CED001A96
:10399000CCED010A974298D2BDE8F08F13B54FF6EF
:1039A000FF73012269460248FEF7B8FB00981CBD70
:1039B00054390020FDF7ECFC4FF480620D490E48AD
:1039C000FDF7C2F9FEF70AFDFEF740FCFEF728FC02
:1039D000FEF75AFCFEF7E0FCFEF7F2FBFEF7A8FC50
:1039E00000210648FEF710FA04210448FEF70CFAFD
:1039F000FEE700001C0000201C380020C438002016
:103A0000000610160006101600000000000000005E
:103A10000102030406070809000000000102030474
:103A200000040002000600010005000300078000FA
:103A300080048002800680018005800380074000AA
:103A40004004400240064001400540034007C000DA
:103A5000C004C002C006C001C005C003C0072000EA
:103A60002004200220062001200520032007A000BA
:103A7000A004A002A006A001A005A003A00760006A
:103A80006004600260066001600560036007E0009A
:103A9000E004E002E006E001E005E003E0071000DA
:103AA00010041002100610011005100310079000FA
:103AB00090049002900690019005900390075000AA
:103AC0005004500250065001500550035007D000DA
:103AD000D004D002D006D001D005D003D0073000EA
:103AE0003004300230063001300530033007B000BA
:103AF000B004B002B006B001B005B003B00770006A
:103B00007004700270067001700570037007F00099
:103B1000F004F002F006F001F005F003F0070800F1
:103B200008040802080608010805080308078800B9
:103B30008804880288068801880588038807480069
:103B40004804480248064801480548034807C80099
:103B5000C804C802C806C801C805C803C8072800A9
:103B60002804280228062801280528032807A80079
:103B7000A804A802A806A801A805A803A807680029
:103B80006804680268066801680568036807E80059
:103B9000E804E802E806E801E805E803E807180099
:103BA00018041802180618011805180318079800B9
:103BB0009804980298069801980598039807580069
:103BC0005804580258065801580558035807D80099
:103BD000D804D802D806D801D805D803D8073800A9
:103BE0003804380238063801380538033807B80079
:103BF000B804B802B806B801B805B803B807780029
:103C00007804780278067801780578037807F80058
:103C1000F804F802F806F801F805F803F8070400BC
:103C200004040402040604010405040304078400D8
:103C30008404840284068401840584038407440088
:103C40004404440244064401440544034407C400B8
:103C5000C404C402C406C401C405C403C4072400C8
:103C60002404240224062401240524032407A40098
:103C7000A404A402A406A401A405A403A407640048
:103C80006404640264066401640564036407E40078
:103C9000E404E402E406E401E405E403E4071400B8
:103CA00014041402140614011405140314079400D8
:103CB0009404940294069401940594039407540088
:103CC0005404540254065401540554035407D400B8
:103CD000D404D402D406D401D405D403D4073400C8
:103CE0003404340234063401340534033407B40098
:103CF000B404B402B406B401B405B403B407740048
:103D00007404740274067401740574037407F40077
:103D1000F404F402F406F401F405F403F4070C00CF
:103D20000C040C020C060C010C050C030C078C0097
:103D30008C048C028C068C018C058C038C074C0047
:103D40004C044C024C064C014C054C034C07CC0077
:103D5000CC04CC02CC06CC01CC05CC03CC072C0087
:103D60002C042C022C062C012C052C032C07AC0057
:103D7000AC04AC02AC06AC01AC05AC03AC076C0007
:103D80006C046C026C066C016C056C036C07EC0037
:103D9000EC04EC02EC06EC01EC05EC03EC071C0077
:103DA0001C041C021C061C011C051C031C079C0097
:103DB0009C049C029C069C019C059C039C075C0047
:103DC0005C045C025C065C015C055C035C07DC0077
:103DD000DC04DC02DC06DC01DC05DC03DC073C0087
:103DE0003C043C023C063C013C053C033C07BC0057
:103DF000BC04BC02BC06BC01BC05BC03BC077C0007
:103E00007C047C027C067C017C057C037C07FC0036
:103E1000FC04FC02FC06FC01FC05FC03FC070200A0
:103E200002040202020602010205020302078200E6
:103E30008204820282068201820582038207420096
:103E40004204420242064201420542034207C200C6
:103E5000C204C202C206C201C205C203C2072200D6
:103E60002204220222062201220522032207A200A6
:103E7000A204A202A206A201A205A203A207620056
:103E80006204620262066201620562036207E20086
:103E9000E204E202E206E201E205E203E2071200C6
:103EA00012041202120612011205120312079200E6
:103EB0009204920292069201920592039207520096
:103EC0005204520252065201520552035207D200C6
:103ED000D204D202D206D201D205D203D2073200D6
:103EE0003204320232063201320532033207B200A6
:103EF000B204B202B206B201B205B203B207720056
:103F00007204720272067201720572037207F20085
:103F1000F204F202F206F201F205F203F2070A00DD
:103F20000A040A020A060A010A050A030A078A00A5
:103F30008A048A028A068A018A058A038A074A0055
:103F40004A044A024A064A014A054A034A07CA0085
:103F5000CA04CA02CA06CA01CA05CA03CA072A0095
:103F60002A042A022A062A012A052A032A07AA0065
:103F7000AA04AA02AA06AA01AA05AA03AA076A0015
:103F80006A046A026A066A016A056A036A07EA0045
:103F9000EA04EA02EA06EA01EA05EA03EA071A0085
:103FA0001A041A021A061A011A051A031A079A00A5
:103FB0009A049A029A069A019A059A039A075A0055
:103FC0005A045A025A065A015A055A035A07DA0085
:103FD000DA04DA02DA06DA01DA05DA03DA073A0095
:103FE0003A043A023A063A013A053A033A07BA0065
:103FF000BA04BA02BA06BA01BA05BA03BA077A0015
:104000007A047A027A067A017A057A037A07FA0044
:10401000FA04FA02FA06FA01FA05FA03FA070600A8
:1040200006040602060606010605060306078600C4
:104030008604860286068601860586038607460074
:104040004604460246064601460546034607C600A4
:10405000C604C602C606C601C605C603C6072600B4
:104060002604260226062601260526032607A60084
:10407000A604A602A606A601A605A603A607660034
:104080006604660266066601660566036607E60064
:10409000E604E602E606E601E605E603E6071600A4
:1040A00016041602160616011605160316079600C4
:1040B0009604960296069601960596039607560074
:1040C0005604560256065601560556035607D600A4
:1040D000D604D602D606D601D605D603D6073600B4
:1040E0003604360236063601360536033607B60084
:1040F000B604B602B606B601B605B603B607760034
:104100007604760276067601760576037607F60063
:10411000F604F602F606F601F605F603F6070E00BB
:104120000E040E020E060E010E050E030E078E0083
:104130008E048E028E068E018E058E038E074E0033
:104140004E044E024E064E014E054E034E07CE0063
:10415000CE04CE02CE06CE01CE05CE03CE072E0073
:104160002E042E022E062E012E052E032E07AE0043
:10417000AE04AE02AE06AE01AE05AE03AE076E00F3
:104180006E046E026E066E016E056E036E07EE0023
:10419000EE04EE02EE06EE01EE05EE03EE071E0063
:1041A0001E041E021E061E011E051E031E079E0083
:1041B0009E049E029E069E019E059E039E075E0033
:1041C0005E045E025E065E015E055E035E07DE0063
:1041D000DE04DE02DE06DE01DE05DE03DE073E0073
:1041E0003E043E023E063E013E053E033E07BE0043
:1041F000BE04BE02BE06BE01BE05BE03BE077E00F3
:104200007E047E027E067E017E057E037E07FE0022
:10421000FE04FE02FE06FE01FE05FE03FE0701008F
:104220000000803F00000000ECFF7F3FD40FC93A40
:10423000B1FF7F3FC70F493B4EFF7F3FC1CB963B4E
:10424000C4FE7F3F890FC93B13FE7F3F3053FB3BCA
:1042500039FD7F3F59CB163C39FC7F3F02ED2F3CA7
:1042600011FB7F3F900E493CC1F97F3F0030623C1B
:104270004AF87F3F4B517B3CACF67F3F38398A3C54
:10428000E6F47F3FB6C9963CF8F27F3F1C5AA33C48
:10429000E3F07F3F69EAAF3CA7EE7F3F9B7ABC3CEF
:1042A00043EC7F3FB00AC93CB8E97F3FA69AD53CB2
:1042B00005E77F3F7B2AE23C2BE47F3F2DBAEE3CB3
:1042C00029E17F3FB949FB3C00DE7F3F90EC033D95
:1042D000AFDA7F3F2F340A3D37D77F3FB87B103DA1
:1042E00098D37F3F2CC3163DD1CF7F3F880A1D3D19
:1042F000E2CB7F3FCC51233DCCC77F3FF698293D91
:104300008FC37F3F07E02F3D2ABF7F3FFC26363D0E
:104310009EBA7F3FD56D3C3DEAB57F3F91B4423DAB
:104320000FB17F3F2FFB483D0DAC7F3FAF414F3D6D
:10433000E3A67F3F0E88553D91A17F3F4CCE5B3D6C
:10434000189C7F3F6814623D78967F3F625A683DB3
:10435000B1907F3F38A06E3DC28A7F3FE9E5743D52
:10436000AB847F3F742B7B3D6D7E7F3F6CB8803D7F
:1043700008787F3F0ADB833D7B717F3F94FD863D5C
:10438000C76A7F3F0A208A3DEC637F3F6A428D3DCA
:10439000E95C7F3FB464903DBF557F3FE786933D26
:1043A0006D4E7F3F05A9963DF4467F3F0ACB993D70
:1043B000543F7F3FF9EC9C3D8D377F3FCF0EA03DB2
:1043C0009D2F7F3F8C30A33D87277F3F3052A63DF6
:1043D000491F7F3FBA73A93DE4167F3F2B95AC3D43
:1043E000580E7F3F80B6AF3DA4057F3FBBD7B23D9F
:1043F000C9FC7E3FDAF8B53DC7F37E3FDD19B93D14
:104400009DEA7E3FC33ABC3D4CE17E3F8D5BBF3DA4
:10441000D4D77E3F397CC23D34CE7E3FC69CC53D5D
:104420006DC47E3F36BDC83D7FBA7E3F86DDCB3D45
:1044300069B07E3FB7FDCE3D2DA67E3FC81DD23D63
:10444000C99B7E3FB93DD53D3D917E3F895DD83DBD
:104450008B867E3F377DDB3DB17B7E3FC49CDE3D5E
:10446000B0707E3F2EBCE13D88657E3F76DBE43D4B
:10447000385A7E3F9AFAE73DC14E7E3F9A19EB3D8E
:1044800023437E3F7638EE3D5E377E3F2E57F13D2B
:10449000722B7E3FC075F43D5E1F7E3F2C94F73D2E
:1044A00024137E3F73B2FA3DC2067E3F92D0FD3D9B
:1044B00038FA7D3F4577003E88ED7D3F2E06023E6F
:1044C000B1E07D3F0295033EB2D37D3FC223053E5E
:1044D0008CC67D3F6EB2063E40B97D3F0541083E29
:1044E000CCAB7D3F86CF093E309E7D3FF35D0B3EDA
:1044F0006E907D3F4AEC0C3E85827D3F8B7A0E3E6E
:1045000074747D3FB708103E3D667D3FCC96113EEA
:10451000DE577D3FCA24133E59497D3FB2B2143E57
:10452000AC3A7D3F8340163ED82B7D3F3DCE173EB3
:10453000DD1C7D3FE05B193EBC0D7D3F6BE91A3E03
:1045400073FE7C3FDE761C3E03EF7C3F38041E3E4C
:104550006CDF7C3F7B911F3EAECF7C3FA51E213E92
:10456000C9BF7C3FB6AB223EBDAF7C3FAD38243ED9
:104570008A9F7C3F8CC5253E318F7C3F5152273E20
:10458000B07E7C3FFCDE283E086E7C3F8D6B2A3E71
:104590003A5D7C3F04F82B3E444C7C3F61842D3EC9
:1045A000283B7C3FA2102F3EE5297C3FC99C303E32
:1045B0007A187C3FD428323EE9067C3FC4B4333EAF
:1045C00031F57B3F9840353E53E37B3F50CC363E40
:1045D0004DD17B3FEC57383E20BF7B3F6CE3393EEB
:1045E000CDAC7B3FCF6E3B3E539A7B3F15FA3C3EB2
:1045F000B2877B3F3E853E3EEA747B3F4910403E9A
:10460000FC617B3F379B413EE74E7B3F0726433EA5
:10461000AB3B7B3FB9B0443E48287B3F4D3B463ED9
:10462000BE147B3FC2C5473E0E017B3F1850493E3A
:1046300037ED7A3F4FDA4A3E3AD97A3F67644C3ECB
:1046400016C57A3F60EE4D3ECBB07A3F38784F3E8C
:10465000599C7A3FF101513EC1877A3F898B523E86
:1046600002737A3F0115543E1C5E7A3F589E553EB8
:1046700010497A3F8F27573EDD337A3FA4B0583E2A
:10468000841E7A3F97395A3E04097A3F6AC25B3EDC
:104690005EF3793F1A4B5D3E91DD793FA8D35E3ED4
:1046A0009DC7793F135C603E83B1793F5CE4613E16
:1046B000439B793F836C633EDC84793F86F4643EA0
:1046C0004E6E793F667C663E9A57793F2204683E7B
:1046D000C040793FBA8B693EBF29793F2F136B3EAB
:1046E0009812793F7F9A6C3E4AFB783FAB216E3E31
:1046F000D6E3783FB2A86F3E3BCC783F942F713E13
:104700007BB4783F51B6723E939C783FE83C743E50
:104710008684783F5AC3753E526C783FA649773EEF
:10472000F853783FCCCF783E773B783FCB557A3EF5
:10473000D122783FA4DB7B3E040A783F56617D3E60
:1047400010F1773FE1E67E3EF7D7773F2236803E95
:10475000B7BE773FC0F8803E51A5773F4ABB813E48
:10476000C58B773FC07D823E1372773F2240833EE8
:104770003A58773F7002843E3C3E773FAAC4843E5D
:104780001724773FCE86853ECC09773FDF48863EAB
:104790005BEF763FDA0A873EC4D4763FC1CC873ED2
:1047A00007BA763F938E883E249F763F5050893ECD
:1047B0001B84763FF8118A3EEC68763F8AD38A3EA6
:1047C000974D763F07958B3E1B32763F6E568C3E5B
:1047D0007A16763FC0178D3EB3FA753FFCD88D3EF2
:1047E000C6DE753F229A8E3EB3C2753F325B8F3E66
:1047F0007BA6753F2C1C903E1C8A753F10DD903EB9
:10480000976D753FDD9D913EED50753F945E923EF4
:104810001D34753F351F933E2717753FBFDF933E0D
:104820000BFA743F31A0943EC9DC743F8D60953E15
:1048300062BF743FD220963ED5A1743F00E1963E00
:104840002284743F17A1973E4966743F1661983ED3
:104850004B48743FFE20993E272A743FCEE0993E94
:10486000DD0B743F86A09A3E6EED733F27609B3E42
:10487000D9CE733FAF1F9C3E1FB0733F20DF9C3EDD
:104880003F91733F789E9D3E3972733FB85D9E3E67
:104890000E53733FDF1C9F3EBE33733FEEDB9F3EE4
:1048A0004714733FE59AA03EACF4723FC259A13E53
:1048B000EBD4723F8718A23E04B5723F33D7A23EB5
:1048C000F894723FC595A33EC774723F3F54A43E0F
:1048D0007054723F9F12A53EF433723FE5D0A53E5F
:1048E0005213723F128FA63E8CF2713F254DA73EA8
:1048F0009FD1713F1F0BA83E8EB0713FFEC8A83EEE
:10490000578F713FC486A93EFB6D713F6F44AA3E2D
:104910007A4C713F0102AB3ED42A713F77BFAB3E68
:104920000809713FD47CAC3E17E7703F153AAD3EA5
:1049300002C5703F3CF7AD3EC6A2703F49B4AE3EE3
:104940006680703F3A71AF3EE15D703F102EB03E21
:10495000373B703FCBEAB03E6718703F6BA7B13E64
:1049600073F56F3FEF63B23E5AD26F3F5820B33EAC
:104970001BAF6F3FA5DCB33EB88B6F3FD698B43EFC
:1049800030686F3FEC54B53E83446F3FE610B63E4F
:10499000B0206F3FC3CCB63EBAFC6E3F8488B73EB2
:1049A0009ED86E3F2A44B83E5DB46E3FB2FFB83E1B
:1049B000F88F6E3F1EBBB93E6D6B6E3F6E76BA3E92
:1049C000BE466E3FA031BB3EEB216E3FB6ECBB3E18
:1049D000F2FC6D3FAFA7BC3ED5D76D3F8B62BD3EAD
:1049E00093B26D3F4A1DBE3E2D8D6D3FEBD7BE3E4F
:1049F000A1676D3F6F92BF3EF2416D3FD54CC03E07
:104A00001D1C6D3F1E07C13E24F66C3F48C1C13ED0
:104A100007D06C3F557BC23EC5A96C3F4435C33EB1
:104A20005E836C3F15EFC33ED45C6C3FC8A8C43EA8
:104A300024366C3F5C62C53E500F6C3FD21BC63EB5
:104A400058E86B3F29D5C63E3BC16B3F628EC73EDF
:104A5000FB996B3F7C47C83E95726B3F7700C93E20
:104A60000C4B6B3F53B9C93E5E236B3F1072CA3E7D
:104A70008CFB6A3FAE2ACB3E95D36A3F2CE3CB3EFC
:104A80007BAB6A3F8B9BCC3E3C836A3FCA53CD3E97
:104A9000D95A6A3FEA0BCE3E52326A3FEAC3CE3E53
:104AA000A7096A3FCA7BCF3ED7E0693F8A33D03E31
:104AB000E4B7693F2AEBD03ECC8E693FAAA2D13E33
:104AC0009165693F095AD23E323C693F4811D33E55
:104AD000AE12693F67C8D33E07E9683F647FD43EA2
:104AE0003CBF683F4136D53E4C95683FFDECD53E16
:104AF000396B683F99A3D63E0341683F135AD73EAE
:104B0000A816683F6B10D83E2AEC673FA3C6D83E74
:104B100087C1673FB97CD93EC196673FAD32DA3E67
:104B2000D86B673F80E8DA3ECA40673F319EDB3E84
:104B30009915673FC153DC3E45EA663F2E09DD3ECD
:104B4000CCBE663F79BEDD3E3093663FA273DE3E4B
:104B50007167663FA928DF3E8E3B663F8DDDDF3EF5
:104B6000880F663F4F92E03E5EE3653FEE46E13ED2
:104B700010B7653F6AFBE13EA08A653FC4AFE23EE5
:104B80000B5E653FFA63E33E5431653F0E18E43E29
:104B90007904653FFECBE43E7BD7643FCB7FE53EA7
:104BA00059AA643F7533E63E147D643FFBE6E63E5A
:104BB000AC4F643F5D9AE73E2122643F9C4DE83E46
:104BC00073F4633FB700E93EA1C6633FAEB3E93E6D
:104BD000AC98633F8166EA3E956A633F3019EB3ECD
:104BE0005A3C633FBBCBEB3EFC0D633F217EEC3E6A
:104BF0007BDF623F6330ED3ED7B0623F80E2ED3E47
:104C00001082623F7994EE3E2653623F4C46EF3E5F
:104C10001A24623FFBF7EF3EEAF4613F85A9F03EBC
:104C200098C5613FEA5AF13E2296613F290CF23E57
:104C30008A66613F43BDF23ED036613F386EF33E37
:104C4000F206613F071FF43EF2D6603FB1CFF43E5B
:104C5000CFA6603F3580F53E8976603F9330F63EC3
:104C60002146603FCBE0F63E9615603FDC90F73E74
:104C7000E9E45F3FC840F83E19B45F3F8EF0F83E6C
:104C800027835F3F2DA0F93E12525F3FA54FFA3EAA
:104C9000DB205F3FF7FEFA3E81EF5E3F22AEFB3E38
:104CA00005BE5E3F275DFC3E678C5E3F040CFD3E0B
:104CB000A65A5E3FBBBAFD3EC3285E3F4A69FE3E30
:104CC000BEF65D3FB217FF3E97C45D3FF3C5FF3EA2
:104CD0004D925D3F063A003FE15F5D3FFF90003F30
:104CE000532D5D3FE4E7003FA3FA5C3FB53E013F33
:104CF000D1C75C3F7395013FDD945C3F1CEC013FE5
:104D0000C7615C3FB142023F8E2E5C3F3299023F49
:104D100034FB5B3F9FEF023FB8C75B3FF845033F63
:104D20001A945B3F3D9C033F5A605B3F6DF2033F2B
:104D3000792C5B3F8948043F75F85A3F919E043FA8
:104D400050C45A3F84F4043F09905A3F624A053FD9
:104D5000A05B5A3F2CA0053F16275A3FE2F5053FBE
:104D60006AF2593F824B063F9CBD593F0EA1063F58
:104D7000AD88593F86F6063F9C53593FE84B073FA5
:104D80006A1E593F36A1073F17E9583F6FF6073FA4
:104D9000A1B3583F924B083F0B7E583FA1A0083F5C
:104DA0005348583F9BF5083F7912583F7F4A093FC7
:104DB0007FDC573F4E9F093F63A6573F09F4093FE9
:104DC0002670573FAD480A3FC739573F3D9D0A3FC0
:104DD0004803573FB7F10A3FA7CC563F1C460B3F4D
:104DE000E595563F6B9A0B3F025F563FA5EE0B3F92
:104DF000FE27563FC9420C3FD9F0553FD7960C3F8E
:104E000093B9553FD0EA0C3F2C82553FB33E0D3F3E
:104E1000A44A553F81920D3FFB12553F38E60D3FA6
:104E200031DB543FDA390E3F47A3543F658D0E3FC7
:104E30003B6B543FDBE00E3F0F33543F3B340F3F9F
:104E4000C3FA533F84870F3F55C2533FB8DA0F3F31
:104E5000C789533FD52D103F1851533FDC80103F79
:104E60004918533FCDD3103F59DF523FA726113F7A
:104E700049A6523F6B79113F186D523F19CC113F33
:104E8000C633523FB01E123F54FA513F3071123FA9
:104E9000C2C0513F9AC3123F1087513FEE15133FD6
:104EA0003D4D513F2A68133F4A13513F50BA133FBB
:104EB00037D9503F5F0C143F039F503F585E143F5B
:104EC000AF64503F39B0143F3B2A503F0402153FB6
:104ED000A8EF4F3FB753153FF4B44F3F54A5153FCC
:104EE0001F7A4F3FD9F6153F2B3F4F3F4748163F9C
:104EF00017044F3F9F99163FE4C84E3FDFEA163F25
:104F0000908D4E3F073C173F1C524E3F188D173F68
:104F100089164E3F12DE173FD5DA4D3FF52E183F6A
:104F2000029F4D3FC07F183F10634D3F73D0183F25
:104F3000FD264D3F0F21193FCBEA4C3F9471193F9D
:104F400079AE4C3F00C2193F08724C3F55121A3FD0
:104F500078354C3F93621A3FC7F84B3FB8B21A3FBF
:104F6000F8BB4B3FC6021B3F097F4B3FBB521B3F69
:104F7000FA414B3F99A21B3FCC044B3F5FF21B3FD2
:104F80007FC74A3F0C421C3F138A4A3FA2911C3FF5
:104F9000874C4A3F1FE11C3FDC0E4A3F84301D3FD7
:104FA00012D1493FD17F1D3F2993493F06CF1D3F75
:104FB0002155493F221E1E3FFA16493F266D1E3FCE
:104FC000B3D8483F12BC1E3F4E9A483FE50A1F3FE8
:104FD000CA5B483F9F591F3F271D483F41A81F3FBD
:104FE00065DE473FCBF61F3F849F473F3B45203F51
:104FF0008560473F9393203F6721473FD2E1203FA1
:105000002AE2463FF92F213FCEA2463F067E213FAE
:105010005463463FFBCB213FBB23463FD719223F7A
:1050200003E4453F9967223F2DA4453F43B5223F06
:105030003964453FD302233F2624453F4B50233F4D
:10504000F5E3443FA99D233FA5A3443FEEEA233F58
:105050003763443F1A38243FAB22443F2C85243F1A
:1050600000E2433F25D2243F38A1433F041F253FA0
:105070005160433FCB6B253F4C1F433F77B8253FE3
:1050800029DE423F0A05263FE89C423F8451263FE5
:10509000895B423FE39D263F0B1A423F2AEA263FA7
:1050A00070D8413F5636273FB796413F6882273F29
:1050B000E154413F61CE273FEC12413F401A283F67
:1050C000DAD0403F0566283FA98E403FB0B1283F67
:1050D0005C4C403F41FD283FF009403FB848293F24
:1050E00067C73F3F1594293FC0843F3F57DF293FA3
:1050F000FC413F3F802A2A3F1BFF3E3F8E752A3FDF
:105100001BBC3E3F82C02A3FFF783E3F5B0B2B3FDC
:10511000C5353E3F1B562B3F6EF23D3FBFA02B3F98
:10512000F9AE3D3F4AEB2B3F676B3D3FB9352C3F16
:10513000B8273D3F0F802C3FECE33C3F49CA2C3F52
:1051400003A03C3F69142D3FFC5B3C3F6F5E2D3F4D
:10515000D9173C3F59A82D3F98D33B3F29F22D3F0B
:105160003B8F3B3FDE3B2E3FC14A3B3F78852E3F86
:1051700029063B3FF7CE2E3F75C13A3F5B182F3FC4
:10518000A47C3A3FA5612F3FB7373A3FD3AA2F3FC0
:10519000ACF2393FE6F32F3F85AD393FDE3C303F7F
:1051A0004268393FBB85303FE122393F7CCE303FFA
:1051B00065DD383F2217313FCB97383FAD5F313F38
:1051C0001652383F1DA8313F430C383F71F0313F34
:1051D00055C6373FAA38323F4A80373FC780323FF3
:1051E000233A373FC9C8323FDFF3363FAF10333F72
:1051F0007FAD363F7A58333F0467363F29A0333FAF
:105200006C20363FBCE7333FB8D9353F342F343FAD
:10521000E792353F8F76343FFB4B353FCFBD343F70
:10522000F304353FF304353FCFBD343FFB4B353FEF
:105230008F76343FE792353F342F343FB8D9353F2E
:10524000BCE7333F6C20363F29A0333F0467363F2D
:105250007A58333F7FAD363FAF10333FDFF3363FF1
:10526000C9C8323F233A373FC780323F4A80373F71
:10527000AA38323F55C6373F71F0313F430C383FB3
:105280001DA8313F1652383FAD5F313FCB97383FB5
:105290002217313F65DD383F7CCE303FE122393F78
:1052A000BB85303F4268393FDE3C303F85AD393FFA
:1052B000E6F32F3FACF2393FD3AA2F3FB7373A3F3F
:1052C000A5612F3FA47C3A3F5B182F3F75C13A3F41
:1052D000F7CE2E3F29063B3F78852E3FC14A3B3F04
:1052E000DE3B2E3F3B8F3B3F29F22D3F98D33B3F88
:1052F00059A82D3FD9173C3F6F5E2D3FFC5B3C3FCB
:1053000069142D3F03A03C3F49CA2C3FECE33C3FCE
:105310000F802C3FB8273D3FB9352C3F676B3D3F91
:105320004AEB2B3FF9AE3D3FBFA02B3F6EF23D3F16
:105330001B562B3FC5353E3F5B0B2B3FFF783E3F57
:1053400082C02A3F1BBC3E3F8E752A3F1BFF3E3F5B
:10535000802A2A3FFC413F3F57DF293FC0843F3F1F
:105360001594293F67C73F3FB848293FF009403FA0
:1053700041FD283F5C4C403FB0B1283FA98E403FE3
:105380000566283FDAD0403F401A283FEC12413FE3
:1053900061CE273FE154413F6882273FB796413FA6
:1053A0005636273F70D8413F2AEA263F0B1A423F24
:1053B000E39D263F895B423F8451263FE89C423F64
:1053C0000A05263F29DE423F77B8253F4C1F433F61
:1053D000CB6B253F5160433F041F253F38A1433F1E
:1053E00025D2243F00E2433F2C85243FAB22443F9B
:1053F0001A38243F3763443FEEEA233FA5A3443FD6
:10540000A99D233FF5E3443F4B50233F2624453FCE
:10541000D302233F3964453F43B5223F2DA4453F86
:105420009967223F03E4453FD719223FBB23463FFC
:10543000FBCB213F5463463F067E213FCEA2463F31
:10544000F92F213F2AE2463FD2E1203F6721473F23
:105450009393203F8560473F3B45203F849F473FD4
:10546000CBF61F3F65DE473F41A81F3F271D483F42
:105470009F591F3FCA5B483FE50A1F3F4E9A483F6E
:1054800012BC1E3FB3D8483F266D1E3FFA16493F57
:10549000221E1E3F2155493F06CF1D3F2993493FFC
:1054A000D17F1D3F12D1493F84301D3FDC0E4A3F62
:1054B0001FE11C3F874C4A3FA2911C3F138A4A3F81
:1054C0000C421C3F7FC74A3F5FF21B3FCC044B3F5F
:1054D00099A21B3FFA414B3FBB521B3F097F4B3FF9
:1054E000C6021B3FF8BB4B3FB8B21A3FC7F84B3F51
:1054F00093621A3F78354C3F55121A3F08724C3F61
:1055000000C2193F79AE4C3F9471193FCBEA4C3F32
:105510000F21193FFD264D3F73D0183F10634D3FBB
:10552000C07F183F029F4D3FF52E183FD5DA4D3F03
:1055300012DE173F89164E3F188D173F1C524E3F03
:10554000073C173F908D4E3FDFEA163FE4C84E3FC1
:105550009F99163F17044F3F4748163F2B3F4F3F39
:10556000D9F6153F1F7A4F3F54A5153FF4B44F3F6E
:10557000B753153FA8EF4F3F0402153F3B2A503F5A
:1055800039B0143FAF64503F585E143F039F503F03
:105590005F0C143F37D9503F50BA133F4A13513F65
:1055A0002A68133F3D4D513FEE15133F1087513F81
:1055B0009AC3123FC2C0513F3071123F54FA513F5B
:1055C000B01E123FC633523F19CC113F186D523FE7
:1055D0006B79113F49A6523FA726113F59DF523F31
:1055E000CDD3103F4918533FDC80103F1851533F33
:1055F000D52D103FC789533FB8DA0F3F55C2533FEF
:1056000084870F3FC3FA533F3B340F3F0F33543F60
:10561000DBE00E3F3B6B543F658D0E3F47A3543F8D
:10562000DA390E3F31DB543F38E60D3FFB12553F70
:1056300081920D3FA44A553FB33E0D3F2C82553F0A
:10564000D0EA0C3F93B9553FD7960C3FD9F0553F60
:10565000C9420C3FFE27563FA5EE0B3F025F563F67
:105660006B9A0B3FE595563F1C460B3FA7CC563F28
:10567000B7F10A3F4803573F3D9D0A3FC739573F9F
:10568000AD480A3F2670573F09F4093F63A6573FCC
:105690004E9F093F7FDC573F7F4A093F7912583FB1
:1056A0009BF5083F5348583FA1A0083F0B7E583F49
:1056B000924B083FA1B3583F6FF6073F17E9583F99
:1056C00036A1073F6A1E593FE84B073F9C53593F9D
:1056D00086F6063FAD88593F0EA1063F9CBD593F57
:1056E000824B063F6AF2593FE2F5053F16275A3FC3
:1056F0002CA0053FA05B5A3F624A053F09905A3FE4
:1057000084F4043F50C45A3F919E043F75F85A3FB9
:105710008948043F792C5B3F6DF2033F5A605B3F41
:105720003D9C033F1A945B3FF845033FB8C75B3F7E
:105730009FEF023F34FB5B3F3299023F8E2E5C3F6E
:10574000B142023FC7615C3F1CEC013FDD945C3F0E
:105750007395013FD1C75C3FB53E013FA3FA5C3F63
:10576000E4E7003F532D5D3FFF90003FE15F5D3F69
:10577000063A003F4D925D3FF3C5FF3E97C45D3F43
:10578000B217FF3EBEF65D3F4A69FE3EC3285E3F4C
:10579000BBBAFD3EA65A5E3F040CFD3E678C5E3FE1
:1057A000275DFC3E05BE5E3F22AEFB3E81EF5E3FC5
:1057B000F7FEFA3EDB205F3FA54FFA3E12525F3FF5
:1057C0002DA0F93E27835F3F8EF0F83E19B45F3F6E
:1057D000C840F83EE9E45F3FDC90F73E9615603F35
:1057E000CBE0F63E2146603F9330F63E8976603F3F
:1057F0003580F53ECFA6603FB1CFF43EF2D6603F94
:10580000071FF43EF206613F386EF33ED036613F2B
:1058100043BDF23E8A66613F290CF23E2296613F0B
:10582000EA5AF13E98C5613F85A9F03EEAF4613F2E
:10583000FBF7EF3E1A24623F4C46EF3E2653623F91
:105840007994EE3E1082623F80E2ED3ED7B0623F37
:105850006330ED3E7BDF623F217EEC3EFC0D633F1B
:10586000BBCBEB3E5A3C633F3019EB3E956A633F3E
:105870008166EA3EAC98633FAEB3E93EA1C6633FA2
:10588000B700E93E73F4633F9C4DE83E2122643F3C
:105890005D9AE73EAC4F643FFBE6E63E147D643F15
:1058A0007533E63E59AA643FCB7FE53E7BD7643F24
:1058B000FECBE43E7904653F0E18E43E5431653F6B
:1058C000FA63E33E0B5E653FC4AFE23EA08A653FEC
:1058D0006AFBE13E10B7653FEE46E13E5EE3653FA1
:1058E0004F92E03E880F663F8DDDDF3E8E3B663F88
:1058F000A928DF3E7167663FA273DE3E3093663FA4
:1059000079BEDD3ECCBE663F2E09DD3E45EA663FF0
:10591000C153DC3E9915673F319EDB3ECA40673F6D
:1059200080E8DA3ED86B673FAD32DA3EC196673F1A
:10593000B97CD93E87C1673FA3C6D83E2AEC673FF2
:105940006B10D83EA816683F135AD73E0341683FF4
:1059500099A3D63E396B683FFDECD53E4C95683F28
:105960004136D53E3CBF683F647FD43E07E9683F7F
:1059700067C8D33EAE12693F4811D33E323C693FFF
:10598000095AD23E9165693FAAA2D13ECC8E693FA9
:105990002AEBD03EE4B7693F8A33D03ED7E0693F77
:1059A000CA7BCF3EA7096A3FEAC3CE3E52326A3F66
:1059B000EA0BCE3ED95A6A3FCA53CD3E3C836A3F7A
:1059C0008B9BCC3E7BAB6A3F2CE3CB3E95D36A3FAF
:1059D000AE2ACB3E8CFB6A3F1072CA3E5E236B3F01
:1059E00053B9C93E0C4B6B3F7700C93E95726B3F74
:1059F0007C47C83EFB996B3F628EC73E3BC16B3F05
:105A000029D5C63E58E86B3FD21BC63E500F6C3FAF
:105A10005C62C53E24366C3FC8A8C43ED45C6C3F73
:105A200015EFC33E5E836C3F4435C33EC5A96C3F52
:105A3000557BC23E07D06C3F48C1C13E24F66C3F47
:105A40001E07C13E1D1C6D3FD54CC03EF2416D3F4F
:105A50006F92BF3EA1676D3FEBD7BE3E2D8D6D3F70
:105A60004A1DBE3E93B26D3F8B62BD3ED5D76D3FA2
:105A7000AFA7BC3EF2FC6D3FB6ECBB3EEB216E3FE8
:105A8000A031BB3EBE466E3F6E76BA3E6D6B6E3F3A
:105A90001EBBB93EF88F6E3FB2FFB83E5DB46E3F9D
:105AA0002A44B83E9ED86E3F8488B73EBAFC6E3F0B
:105AB000C3CCB63EB0206F3FE610B63E83446F3F86
:105AC000EC54B53E30686F3FD698B43EB88B6F3F0C
:105AD000A5DCB33E1BAF6F3F5820B33E5AD26F3F99
