:020000040800F2
:10000000E006002029020008D7130008AD110008FF
:10001000D5130008BD060008A11400080000000068
:10002000000000000000000000000000F9130008BC
:10003000BF06000800000000D9130008FB130008E9
:10004000430200084302000843020008430200087C
:10005000430200084302000843020008430200086C
:10006000430200084302000843020008430200085C
:10007000430200084302000843020008430200084C
:10008000430200084302000843020008430200083C
:10009000430200084302000843020008430200082C
:1000A000430200084302000843020008430200081C
:1000B000430200084302000843020008430200080C
:1000C00043020008430200084302000843020008FC
:1000D00043020008430200084302000843020008EC
:1000E00043020008430200084302000843020008DC
:1000F00043020008430200084302000843020008CC
:10010000430200084302000843020008DD13000810
:1001100043020008430200084302000843020008AB
:10012000430200084302000843020008430200089B
:10013000430200084302000843020008430200088B
:10014000430200084302000843020008430200087B
:10015000430200084302000843020008430200086B
:10016000430200084302000843020008430200085B
:100170004302000843020008430200080000000098
:10018000430200084302000800F002F800F03CF8C7
:100190000AA090E8000C82448344AAF10107DA45E2
:1001A00001D100F031F8AFF2090EBAE80F0013F0F8
:1001B000010F18BFFB1A43F001031847F81600009F
:1001C00018170000103A24BF78C878C1FAD852072F
:1001D00024BF30C830C144BF04680C6070470000C1
:1001E0000023002400250026103A28BF78C1FBD840
:1001F000520728BF30C148BF0B6070471FB501F0E0
:100200004BFB1FBD10B510BD00F0CFF81146FFF736
:10021000F5FF01F0ABF900F0EDF803B4FFF7F2FFE2
:1002200003BC00F0F5F80000094880470948004782
:10023000FEE7FEE7FEE7FEE7FEE7FEE7FEE7FEE796
:10024000FEE7FEE704480549054A064B70470000F3
:100250009114000889010008E0000020E006002059
:10026000E0020020E002002053EA020C00F0698066
:100270002DE9F04B4FF00006002B1FBFB3FA83F5BA
:1002800003FA05F424FA05F65E4012BF1643B2FAEB
:1002900082F502FA05F4C5F120051EBF22FA05FC1D
:1002A00044EA0C04203556EA044C4FEA144418BFC3
:1002B000641C4FF000084FF00009904271EB030CF2
:1002C00039D3002919BFB1FA81F701FA07F6B0FA5C
:1002D00080F700FA07F6C7F120071EBF20FA07FCD7
:1002E00046EA0C062037B6FBF4FCA7EB0507103FE7
:1002F00007F01F0BCBF120060CFA0BFB2CFA06F6CD
:1003000044BFB3460026202FA4BF5E464FF0000B2B
:100310005BEA060C08BF4FF0010B19EB0B09ABFBB6
:10032000027C48EB0608C01B06FB02CC0BFB03CC8F
:1003300071EB0C01C1E70B46024641464846BDE859
:10034000F08B13B54FF000004FF00001AFF30080C9
:10035000BDE81C4070474FF0000200B513469446BC
:100360009646203922BFA0E80C50A0E80C50B1F10D
:100370002001BFF4F7AF090728BFA0E80C5048BF21
:100380000CC05DF804EB890028BF40F8042B08BFBF
:10039000704748BF20F8022B11F0804F18BF00F8BB
:1003A000012B7047704770477047754600F02CF876
:1003B000AE4605006946534620F00700854618B052
:1003C00020B5FFF73FFFBDE820404FF000064FF09B
:1003D00000074FF000084FF0000B21F00701AC467A
:1003E000ACE8C009ACE8C009ACE8C009ACE8C00999
:1003F0008D46704710B50446AFF300802046BDE837
:100400001040FFF70ABF000000487047800000203E
:1004100001491820ABBEFEE726000200704700002D
:1004200000B587B014216846FFF795FF21480021E9
:10043000026842F001020260026802F001020592C5
:10044000026842F002020260026802F002020592B3
:10045000026842F004020260006800F004000590A7
:100460000120CDE90101022003905F200090694640
:10047000114800F04BF94FF40050009069460F48C6
:1004800000F044F93F20009069460D4800F03EF925
:1004900000F0AAFE00F018F80A4A0321012000F03B
:1004A00057F8084A0221921E084600F051F807B09A
:1004B00000BD000030380240001002400008024039
:1004C000001402401A00002010B50C4C002210212C
:1004D000204600F013FA012001F038F80122102123
:1004E000204600F00BFA1E2001F030F820460022D2
:1004F000BDE81040102100F001BA000000140240D5
:1005000038B50C468DF800006A460121002000F045
:100510001FF8204600F0C5FF38BD38B50C468DF8F1
:1005200000006A460121002000F012F8204600F089
:10053000C9FF38BD38B50C468DF800006A46012168
:10054000002000F005F8204600F0E2FF38BD000072
:100550002DE9F05F334F93468846044600252A462E
:100560000221384600F0CAF9002220212E4800F06E
:10057000C5F9DFF8B8904FF4005600220221384642
:1005800000F0BCF9200601D5012200E0002231462E
:10059000484600F0B3F901220221384600F0AEF9D6
:1005A0006006040E012000F0D1FF6D1CEDB2082D95
:1005B000E3D300220221384600F0A0F90024B2461D
:1005C00026E000BF1BF80460002500220221384607
:1005D00000F094F9300601D5012200E000225146D6
:1005E000484600F08BF901220221384600F086F9D6
:1005F0007006060E012000F0A9FF6D1CEDB2082D5B
:10060000E3D300220221384600F078F9641CE4B2FA
:100610004445D7D3BDE8F05F01222021024800F015
:100620006DB90000001002400014024000080240B2
:100630002DE9F041204C05468C466088069F411EFE
:100640008EB2BCF1010F0AD021464988491C89B2FB
:10065000BCF1020F08D0BCF1030F10D024E000FB66
:10066000072085B2668003E000FB073085B2618019
:1006700029461020FFF751FF00F09AFD14E0208872
:1006800010B1012804D007E001FB0720618002E0DF
:1006900006FB0720668085B29D4201D200202080A3
:1006A000954201D90120208029461020FFF735FF0F
:1006B000BDE8F04100F07CBD00000020FEE770477F
:1006C00072B6FEE790F83510022903D0802141650B
:1006D00001207047052180F835100068016821F07D
:1006E000010101600020704770B5044600F00CF96C
:1006F0000546601C02D004480078044400F004F968
:10070000401BA042FAD370BD040000202DE9F84F31
:10071000DFF8BCA10022012503264FF00F090AF1E2
:10072000040BAAF1040E00BF0B6805FA02F4234083
:10073000A34270D10F7907F00307012F01D0022FD8
:1007400016D187684FEA420806FA08FC27EA0C0728
:10075000D1F80CC00CFA08FC4CEA070CC0F808C031
:100760004768A7430C79C4F3001494403C434460A9
:100770000C79E443A4070AD0C4684FEA420C06FA95
:100780000CF7BC438F6807FA0CF72743C7600C7956
:1007900004F00304022C12D1D40800EB840CDCF822
:1007A00020405707FF0E09FA07F824EA0804D1F899
:1007B000108008FA07F848EA0408CCF8208004689A
:1007C0004FEA420C06FA0CF7BC430F7907F0030717
:1007D00007FA0CF7274307604C6814F4403F70D0C9
:1007E0003C4C276847F480472760246822F00307C1
:1007F00004F480440094384C07EB040CDCF80848FF
:1008000097074FEA177809FA08F7BC43334FB84205
:1008100002D1002724E054E0314FB84201D1012732
:100820001EE0304FB84201D1022719E02E4FB842E6
:1008300001D1032714E02D4FB84201D104270FE066
:100840002B4FB84201D105270AE02A4FB84201D107
:10085000062705E0284FB84201D1072700E0082706
:1008600007FA08F72743CCF80878DAF8004057462B
:10087000D1F804C09C435FEACC2C00D51C433C60FB
:10088000DBF800405F46D1F804C09C435FEA8C2C43
:1008900000D51C433C60DEF800407746D1F804C028
:1008A0009C435FEA8C3C00D51C433C60084F083FEA
:1008B0003C68D1F804C09C435FEACC3C00D51C43A3
:1008C0003C60521C102AFFF42FAFBDE8F88F0000E7
:1008D000083C014044380240003001400000024022
:1008E0000004024000080240000C024000100240D8
:1008F0000014024000180240001C02400AB181614D
:1009000070470904FBE70000014880687047000059
:100910000400002002488168027811448160704719
:10092000040000200B4810B5016841F4007101601B
:10093000016841F480610160016841F480710160E7
:10094000032000F06FF80F2000F006F800F024F804
:10095000002010BD003C024070B50D4D04464FF420
:100960007A712878B1FBF0F00A490968B1FBF0F020
:1009700000F008FC48B9102C07D200222146501E76
:1009800000F030F800206C6070BD012070BD0000E8
:1009900004000020100000200A4808B5016841F456
:1009A00080410160006800F4804000900548001F0D
:1009B000016841F080510160006800F080500090B3
:1009C00008BD000044380240002809DB00F01F0287
:1009D000012191404009800000F1E020C0F80011A1
:1009E00070470000F0B40E4B1B680C46C3F30223A3
:1009F000C3F10705042D00D90425191D072901D2CB
:100A0000002300E0DB1E012606FA05F1491E214005
:100A100099409E40761E16403143F0BC00F086BDE2
:100A20000CED00E0064900F0070208684FF6FF03EE
:100A3000184040EA0220034A104308607047000053
:100A40000CED00E00000FA052DE9F0470E46050028
:100A500065D0DFF81481D8F80000F7B200F0070085
:100A6000B04207D288F80070D8F8000000F0070004
:100A7000B04254D128683D4C810712D5400703D5B8
:100A8000206840F4E05020602878000703D52068F3
:100A900040F4604020602068A96820F0F00008431E
:100AA00020602878C0072DD03049686808390128AF
:100AB00012D0022813D0032811D009688907002911
:100AC0002DDA216821F0030101432160FFF71CFFAB
:100AD000814641F2883A0EE009688903EFE7096828
:100AE0008901ECE7FFF710FFA0EB0901514502D99E
:100AF0000320BDE8F0872068696800F00C00B0EBC7
:100B0000810FEFD1D8F80010404601F00701B14243
:100B100007D90770006800F00700B04201D001203B
:100B2000E7E72878400705D52068E96820F4E05019
:100B3000084320602878000706D52068296920F43A
:100B4000604040EAC100206000F018F82168084ABF
:100B5000C1F30311515CC8400649086006480068AB
:100B6000FFF7FAFE0020C4E7003C024008380240CC
:100B7000A21800081000002008000020154810B539
:100B8000006810F00C02144813D01449042A0FD046
:100B9000082A0ED10F4C241F2268236802F03F025E
:100BA0005B0207D52068C0F38810A0FB010106E0B6
:100BB000084610BD2168C1F38811A1FB0001002384
:100BC000FFF752FB2168C1F30141491C4900B0FB0A
:100BD000F1F010BD083802400024F40040787D0197
:100BE0002DE9F84F04006ED02078DFF84C93C00751
:100BF000A9F104054AD009F104000168C1F381019B
:100C0000012908D00068C0F3810002280AD1D9F870
:100C10000000400206D52868800337D560680028A8
:100C2000E1D033E06068B0F5803F10D0B0F5A02F80
:100C3000286810D020F480302860286820F48020B4
:100C400028606068A8B1FFF75FFE06460DE02868DF
:100C500040F48030F4E740F480202860F7E700BFDC
:100C6000FFF752FE801B642873D828688003F7D5ED
:100C70000CE0FFF749FE064605E000BFFFF744FE23
:100C8000801B6428F0D828688003F7D42078DFF828
:100C9000AC8280074FF0000A3ED5A748001D0168CE
:100CA00011F00C0F08D00068C0F3810002280BD1AE
:100CB000D9F80000400207D42868800716D5E068FC
:100CC000012800D112E033E1E068B8B10120C8F892
:100CD0000000FFF719FE064605E000BFFFF714FE0F
:100CE000801B0228C0D828688007F7D528682169AA
:100CF00020F0F80040EAC10028600DE0C8F800A02C
:100D0000FFF702FE064604E0FFF7FEFD801B022807
:100D10001FD828688007F7D42078000722D5864F8F
:100D200087486169703771B101210160FFF7ECFDFF
:100D3000064604E0FFF7E8FD801B022809D8386862
:100D40008007F7D50EE0C0F800A0FFF7DDFD0646EE
:100D500005E082E0FFF7D8FD801B02287DD83868C7
:100D60008007F7D42078400768D5DFF8CCB100279A
:100D70000BF13C0BDBF80000C0000BD4DBF80010DB
:100D800041F08051CBF80010DBF80000012700F0A3
:100D9000805000906B4E3068C00510D4306840F42D
:100DA00080703060FFF7B0FD009005E0FFF7ACFD0C
:100DB0000099401A022850D83068C005F6D55E4E1A
:100DC000A0686C3601280FD00528306810D020F0BC
:100DD00001003060306820F004003060A068B8B1D5
:100DE000FFF792FD00900FE0306840F00100F4E75B
:100DF00040F004003060F7E7FFF786FD0099411AE4
:100E000041F28830814266D830688007F4D50EE020
:100E1000FFF77AFD009007E0FFF776FD0099411A91
:100E200041F28830814256D830688007F4D42FB11F
:100E3000DBF8001021F08051CBF80010A069C8B396
:100E40003D49091D0968C1F3810102294AD00228E0
:100E5000504607D0C8F8600000E03CE0FFF754FDC2
:100E600004463BE04746C8F86000FFF74DFD0646E4
:100E700005E000BFFFF748FD801B02282BD828683B
:100E80008001F7D4D4E907010843A16A2E4A490832
:100E900002EB0141626A41EA8211084394F82C1086
:100EA00040EA0161C9F8001001203866FFF72CFD07
:100EB000044606E03EE000BFFFF726FD001B0228C7
:100EC00009D828688001F7D534E000BFFFF71CFD82
:100ED000001B022802D90320BDE8F88F2868800192
:100EE000F4D427E00128F7D0D9F80000E26900F433
:100EF000800191421CD1226A00F03F01914217D13A
:100F000047F6C071626A0140B1EB821F10D1A26A3C
:100F10004FF0FF3300F4403103EB5202B1EB024FCC
:100F200006D194F82C1000F07060B0EB016F01D086
:100F30000120D1E70020CFE70438024000004742FB
:100F4000800E4742007000400000FFFF7047000025
:100F500038B5016804464A688868C043430606D528
:100F6000C30704D1D3435B0601D4216C05E083079A
:100F700008D4D3431B0605D4616C01B02046BDE8FC
:100F800030400847830603D5430601D5C30551D435
:100F9000D3439B064ED443060AD494F85130032B16
:100FA00049D0636D43F004036365CB688B6800939D
:100FB000830609D4636D43F0010363658B68009376
:100FC0000B6823F040030B60C00506D4606D40F051
:100FD00008006065206880680090606D002829D056
:100FE0002068416821F0E0014160012084F851004F
:100FF000900701D4D00722D02068416821F0030176
:101000004160114DE06C40B10565E06CFFF75AFBA3
:1010100018B1606D40F040006065A06C002809D0F8
:101020000565A06CFFF74EFB002803D0606D40F013
:101030004000606538BDC8688868009038BD2046AB
:10104000FFF784FF38BD0000E913000870B5040005
:1010500009D0606A002540B125616561A56294F8F8
:10106000510040B10CE0012070BD6068B0F5827F96
:10107000F4D0E561F2E784F85050204600F044F8DF
:10108000022084F851002068016821F040010160CD
:10109000A088218900F4827001F404410843A189E9
:1010A00001F400610843217C01F002010843217D25
:1010B00001F001010843218B01F400710843217FF5
:1010C00001F03801084394F8201001F08001084332
:1010D000218D01F40051084321680860A0690421B2
:1010E00001EA104094F8241001F01001084321682F
:1010F00048602068C16921F40061C1616565012013
:1011000084F85100002070BD10B586B0044614214B
:101110006846FFF720F918492068884229D1174806
:101120000021026842F400420260006800F40040BE
:10113000059012481038026842F00402026000680C
:1011400000F0040005904FF4E05000900220CDE93B
:101150000101032003900620049069460848FFF728
:10116000D5FA002211463320FFF73CFC3320FFF76D
:101170002BFC06B010BD0000003C0040403802408F
:101180000008024010B5401EB0F1807F01D301205D
:1011900010BD4FF0E02460610F21601700F0C6F928
:1011A0000020A06107202061002010BDFEE70000A4
:1011B00010B50C4C002204212046FFF79FFB0220B3
:1011C00000F0C4F9012204212046FFF797FB042018
:1011D00000F0BCF920460022BDE810400421FFF7D2
:1011E0008DBB00000010024070B5204C0022082189
:1011F0002046FFF783FB012220212046FFF77EFBDC
:101200001B4D002202212846FFF778FB0022042113
:101210002846FFF773FB002208212846FFF76EFBE4
:10122000002210212846FFF769FB002240212846B2
:10123000FFF764FB002201212846FFF75FFB002235
:101240004FF400510B48FFF759FB002201212046C3
:10125000FFF754FB002202212046FFF74FFB2046F8
:10126000BDE8704000220421FFF748BB0014024093
:1012700000100240000802402DE9F04786B014211A
:101280006846FFF768F83D480024016841F0100106
:101290000160016801F010010591016841F004014D
:1012A0000160016801F004010591016841F020012D
:1012B0000160016801F020010591016841F08001A1
:1012C0000160016801F080010591016841F00101B0
:1012D0000160016801F001010591016841F002011E
:1012E00001600068264F00F00200059000225F2197
:1012F0003846FFF703FBDFF88C804FF400560022DE
:1013000031464046FFF7FAFADFF87C9000221F21B1
:101310004846FFF7F3FA012220214846FFF7EEFA8C
:10132000DFF868A0002210215046FFF7E7FA5F209F
:1013300000900125CDE90154694638460394FFF732
:10134000E5F90096CDE90154694640460394FFF75C
:10135000DDF93F200090CDE90154694648460394E9
:10136000FFF7D4F910200090CDE9015469465046AA
:101370000394FFF7CBF906B0BDE8F08730380240A0
:101380000010024000080240001402400004024025
:101390000F4810B50D4901604FF482714160002182
:1013A0008160C1604FF400720161C0E90512C16142
:1013B0000162416281620A21C162FFF747FE002893
:1013C00003D0BDE81040FFF77BB910BD003C0040E2
:1013D00028000020FEE7FEE7704700000148FFF705
:1013E000B7BD00002800002010B5806B0021C18728
:1013F000C186FFF7ABFD10BD7047FFF78BBA000049
:1014000030B593B030216846FEF7A5FF14210CA833
:10141000FEF7A1FF1C480024016841F080510160E3
:10142000006800F0805011901848016841F4804134
:1014300001600068022500F48040119001200390B3
:1014400010200490009506950820CDE9074054200F
:10145000CDE9090504200B906846FFF7C1FB08B1F0
:1014600072B6FEE70F20CDE90C054FF48050CDE9B0
:101470000E4002210CA81094FFF7E6FA002801D0D4
:1014800072B6FEE713B030BD403802400070004035
:101490000248016841F470010160704788ED00E086
:1014A000FEE708B5002140F480500091010A8DF854
:1014B00001108DF802006A4603210620FFF748F864
:1014C00008BD000008B50021009100F0D4F841ECFF
:1014D000100B0E4890ED021B51EC100B53EC112B2E
:1014E00000F0DCF800F09AF88DF80300010A8DF89E
:1014F0000210010C8DF80110000E8DF8000004217F
:101500006A460846FFF724F808BD000018000020CE
:1015100008B5002100918DF80100000A8DF8000047
:101520006A4602210520FFF713F808BD0907090ED6
:10153000002804DB00F1E02080F80014704700F080
:101540000F0000F1E02080F8141D70470549064A9D
:101550000968B1FBF2F141430520B1FBF0F0401EF8
:10156000FDD270471000002040420F0008B5FEF782
:1015700057FFFFF7D7F9FFF743FFFFF77DFEFFF7B0
:1015800007FFFEF74DFF244C10202146FEF7C5FF54
:1015900021462020FEF7C1FF21464020FEF7BDFF77
:1015A00021468020FEF7B9FF40F2FF311020FEF700
:1015B000A7FF4FF400712020FEF7A2FF4FF48071C7
:1015C0004020FEF79DFF80210846FEF799FF00218D
:1015D0001020FEF7AFFF4FF480512020FEF7AAFF46
:1015E0004FF400514020FEF7A5FF4FF440518020FA
:1015F000FEF7A0FFFFF7DCFD42F210764FF47A749D
:10160000B500304633462A4603210094FFF710F810
:101610006420FFF769F8F4E7A08601004FEA115350
:10162000A3F58063D3F11E03A8BFD3F1200C08DB20
:101630004FF0004242EAC12252EA505232FA03F01D
:10164000704709420BD4102BC4BF0020704703F52C
:10165000787CBCF1FF3F05D04FF0FF3070474FF072
:101660000000704770B500F0C3F800BF49922480B5
:1016700000207047F0E7B0FA80F310FA03F10AD0C7
:10168000C3F11D0303F580634FEA41504FEA035253
:1016900002EBD12170474FF000007047DFF848C1DE
:1016A00070B51CEA111E1EBF1CEA13159EEA0C0F32
:1016B00095EA0C0F00F06F8081EA030423EA4C13D3
:1016C0004EEAD47E21EA4C1141F4801143F4801398
:1016D000AE44A1FB024CA0FB0365AEF17F7E361940
:1016E00055EB0C05A1FB034C4CF10003A0FB021CC5
:1016F00016EB0C06654153F10003094218BF46F092
:10170000010613F4007F0BD14FEA03314FEA053095
:10171000340341EA155140EA16506FF003020AE023
:101720004FEAC3214FEAC520F40241EA555140EA8D
:1017300056506FF0020202EB2E4201EB025585EA91
:10174000CE710AD05FEA440C18BF24F0004450F177
:10175000000041F1000120EAD47040F2FE7C6245B5
:1017600000D270BDA84214BF4FF080444FF04044F7
:10177000002E08BF0024BEF1806FA8BFA1F1C041B8
:10178000BDE8704080F282804FF0000001F1C0415E
:1017900001F0004170479EEA0C0F0CEA131518BFC8
:1017A00095EA0C0F06D04FF0000081EA030E0EF010
:1017B000004170BD00F01CF88900013E00F007B840
:1017C00000F009B84FEA430C5FEA5C5C08D081EA9C
:1017D000030100F05BB84FEA410C5FEA5C5CF6D1B4
:1017E0004FF00000014970470000FF070000F87F3C
:1017F0000EF1020E2EF0030E5EF8046B364205D495
:10180000012A43EB030515F5001F12D8012841EB0F
:10181000010C1CF5001F0CD80ED14FEAD17C15F538
:10182000001F0CEB4C0C0CF1020C08BF4CEBD37CF2
:1018300004E04FF0080C01E04FEAD37C0CEB4C05C0
:1018400026FA05F606F00706B6F1040C06D20EEBF2
:10185000860CBDE870404CF0010C6047DFE80CF0EE
:10186000090B02024FF000414FF00000A1F50021EA
:1018700070BD19461046012851EB010418BFD4F57C
:10188000001484BF002001F0004170BD0808A0F5DD
:1018900000114FEA310170474FF04070E1EE100A3D
:1018A000704700000000000000000102030406076A
:1018B00008090000D41800080000002028000000DB
:1018C000C4010008FC18000828000020B806000029
:1018D000E00100080000000001000000100000000E
:1018E000000000000024F400000000000000D00010
:0C18F0000000030295D626E80B2E2140D4
:040000050800018965
:00000001FF
