:020000040800F2
:1000000098060020A1010008CF260008432300081D
:10001000CD260008D1090008BD2B00080000000013
:10002000000000000000000000000000F1260008B1
:10003000690A000800000000D1260008F326000825
:10004000BB010008BB010008BB010008BB010008A0
:10005000BB010008BB010008BB010008BB01000890
:10006000BB010008BB010008BB010008BB01000880
:10007000BB010008BB010008BB010008BB01000870
:10008000BB010008BB010008BB010008BB01000860
:10009000BB010008BB010008BB010008BB01000850
:1000A000BB010008BB010008BB010008BB01000840
:1000B000BB010008BB010008BB010008BB01000830
:1000C000BB010008BB010008BB010008BB01000820
:1000D000BB010008A52B0008B12B0008BB010008DC
:1000E000BB010008BB010008BB010008BB01000800
:1000F000BB010008BB010008BB010008BB010008F0
:10010000BB010008BB010008BB010008D5260008A0
:10011000BB010008BB010008BB010008BB010008CF
:10012000D5090008BB010008BB010008BB0100089D
:10013000BB010008BB010008BB010008BB010008AF
:10014000BB010008BB010008BB010008BB0100089F
:10015000BB010008BB010008BB010008BB0100088F
:10016000BB010008BB010008BB010008BB0100087F
:10017000BB010008BB010008BB0100080000000033
:10018000BB010008BB010008DFF810D000F01AFA2C
:1001900000480047212E0008AFF300809806002099
:1001A0000648804706480047FEE7FEE7FEE7FEE711
:1001B000FEE7FEE7FEE7FEE7FEE7FEE78927000829
:1001C000890100082DE9F05F0546002092469B4614
:1001D00088460646814640241BE02846414647465D
:1001E000224600F02EF953465A46C01A914110D3C8
:1001F00011461846224600F015F92D1A67EB010842
:100200004F4622460120002100F00CF917EB0009AF
:100210004E41201EA4F10104DFDC484631462A4647
:100220004346BDE8F09FD2B201E000F8012B491E21
:10023000FBD270470022F6E710B513460A46044683
:100240001946FFF7F0FF204610BD421C10F8011BB5
:100250000029FBD1801A70472DE9F04791460F46DF
:1002600080460446002614F8015B2DB100F0FAF830
:100270000068405DC007F6D12B2D02D02D2D18D07F
:10028000641E4A463946204600F0F0F827B1396826
:10029000A14201D1C7F8008071054FF002040BD5CF
:1002A0004042002803DD02F0E1FC0460A007BDE845
:1002B000F08746F48066E4E70028F8DA02F0D6FC1E
:1002C00004606FF00040F2E72DE9FE4F81EA03047D
:1002D00004F0004421F0004100944FF0000B23F0A3
:1002E000004350EA01045ED052EA03045BD0C3F33A
:1002F0000A54C1F30A552C44A4F2F3340194A0FB30
:100300000254C1F3130141F48011C3F3130343F406
:10031000801301FB024400FB034E840A970A44EA5F
:10032000815447EA8357A4FB076802958D0A05FBB1
:1003300007854FEA932C04FB0C542705029D4FEAD6
:10034000065847EA1637B5EB08056EEB070C870E23
:10035000920E47EA811742EA8312A7FB0201B6EB2D
:100360000B0164EB00042B0D43EA0C335E1844EBE5
:100370001C50DA465146E7FB0201C5F313044FEA6D
:100380000B3343EA14534FEA0432019C43EA060359
:10039000A4F10C040294009CCDE900B400F0C4F870
:1003A00003B0BDE8F08F00200146F9E70EB540F23A
:1003B000334102910021CDE900110A460B4600F0BD
:1003C000B3F803B000BDC1F30A5210B5C1F3130175
:1003D00040F2FF3341F480119A4201DA002010BD4F
:1003E00040F233439A42A2F2334203DC524200F01D
:1003F00028F810BD904010BD30B50B4601460020D6
:100400002022012409E021FA02F59D4205D303FAD6
:1004100002F5491B04FA02F52844151EA2F1010257
:10042000F1DC30BD202A04DB203A00FA02F1002082
:1004300070479140C2F1200320FA03F31943904022
:100440007047202A04DB203A21FA02F0002170478D
:1004500021FA02F3D040C2F120029140084319462C
:100460007047000000487047EC2F00082DE9F05F4E
:1004700082460078002715468B460AF10104B946EA
:10048000302801D09DB113E014F8010B0127782822
:1004900003D0582801D045B10AE00DB1102D07D185
:1004A0000027102514F8010B02E0082500E00A25BA
:1004B0000026B0460EE005FB080005FB06F101270B
:1004C00001EB10461FFA80F8B6F5803F00D3B9461D
:1004D00014F8010B294600F087F80028EBDABBF18D
:1004E000000F05D00FB1641E00E05446CBF8004069
:1004F000B9F1000F06D002F0B9FB02210160C81E5D
:10050000BDE8F09F48EA0640FAE710B5141E73F103
:10051000000408DA401C41F1000192185B411A43C3
:1005200001D120F0010010BD2DE9F04D92469B460F
:1005300011B1B1FA81F202E0B0FA80F220329046B5
:10054000FFF770FF04460F4640EA0A0041EA0B013C
:1005500053465A46084313D0114653EA010019D0B6
:10056000C8F140025046FFF76CFF05460E46504664
:1005700059464246FFF756FF084305D0012004E0E4
:1005800020463946BDE8F08D0020054346EAE07676
:100590002C4337430A986305E40AA0EB08000022C5
:1005A000FD0A44EA47540A3002D500200146E9E733
:1005B000010510196941DDE9084500196941BDE8E7
:1005C000F04DA2E7064C074D06E0E06840F001035D
:1005D00094E8070098471034AC42F6D3FFF7D8FDF3
:1005E000F02F0008103000083A2800D2303820F0F0
:1005F0002002412A01D3A2F13700884201D34FF0F3
:10060000FF30704700B587B014216846FFF712FE2F
:1006100021480021026842F001020260026802F0F3
:1006200001020592026842F002020260026802F0D2
:1006300002020592026842F004020260006800F0C3
:10064000040005900120CDE90101022003905F2004
:1006500000906946114800F0FDFC4FF400500090F6
:1006600069460F4800F0F6FC3F20009069460D48AF
:1006700000F0F0FC01F082FE00F018F80A4A0321B5
:10068000012000F049F8084A0221921E084600F0B5
:1006900043F807B000BD00003038024000100240AF
:1006A00000080240001402402200002010B50C4C4B
:1006B00000221021204600F0C5FD012002F094FB2D
:1006C00001221021204600F0BDFD1E2002F08CFB0F
:1006D00020460022BDE81040102100F0B3BD00000C
:1006E0000014024038B50C468DF800006A4601211E
:1006F000002000F011F8204602F061FA38BD38B54C
:100700000C468DF800006A460121002000F004F834
:10071000204602F065FA38BD2DE9F05F334F93466D
:100720008846044600252A460221384600F08AFD04
:10073000002220212E4800F085FDDFF8B8904FF40C
:10074000005600220221384600F07CFD200601D52B
:10075000012200E000223146484600F073FD0122EC
:100760000221384600F06EFD6006040E012002F002
:100770003BFB6D1CEDB2082DE3D30022022138466D
:1007800000F060FD0024B24626E000BF1BF80460C4
:10079000002500220221384600F054FD300601D524
:1007A000012200E000225146484600F04BFD0122A4
:1007B0000221384600F046FD7006060E012002F0C8
:1007C00013FB6D1CEDB2082DE3D300220221384645
:1007D00000F038FD641CE4B24445D7D3BDE8F05FB7
:1007E00001222021024800F02DBD0000001002402F
:1007F000001402400008024070B522481546049ECD
:10080000C2880C46012912D00146022CC98801FB7E
:10081000063110D0032C33D1848894B102FB1654D6
:100820000021AC420FD3012282802C460FE002FB54
:100830000651521E00E0521CC2801020FFF75FFFDD
:100840001AE00C46ECE79C4202D881801C46C1802D
:10085000C1882246491C89B2C18083880AA002F05F
:10086000E5F921461020FFF74AFF0E48214600888F
:1008700082B2102000F0FCF8BDE8704001F062BDCB
:1008800070BD000004000020636F756E743D256428
:100890002C206672653D25642C20666C61673D25C1
:1008A000640A000030000020464910B54A6822F46E
:1008B00040324A604A6843681A434A6001684A689D
:1008C00022F480724A6001684A68036942EA03229E
:1008D0004A6001684A6822F040724A6001684A68CA
:1008E00083681A434A6001688A6822F400628A6059
:1008F00001688A68C3681A438A60816A6FF070620F
:10090000D14201688A6822F070628A6001688A6850
:100910000CD0836A1A438A6001688A6822F04052C8
:100920008A6001688A68C36A1A4301E022F0405273
:100930008A6001688A6822F002028A6001688A6817
:10094000037E42EA43028A6090F820100029016881
:100950004A680FD042F400624A6001684A6822F493
:1009600060424A6001684A68174C436A04EB4333AB
:100970001A4301E022F400624A600168CA6A22F464
:100980007002CA620168CA6A838B104C04EB03537D
:100990001A43CA6201688A6822F400728A60016898
:1009A0008A6890F8303042EA43228A6001688A6897
:1009B00022F480628A6001688A68406942EA802085
:1009C000886010BD0023014000E0FFFF0000F0FF41
:1009D000FEE7000010B5034800F0F0F902490120DD
:1009E000087010BD040100200400002001681823D5
:1009F000CAB2103AB2FBF3F2054B6FF30901032AB6
:100A00009B5CC36500D9091D8165084670470000DD
:100A1000402F000810B5014600208B698A6A4FF00C
:100A2000C07453B1B3F5005F15D072B1012A0CD078
:100A3000022A0AD0032A09D104E01AB1012A06D0F9
:100A4000022A03D1C96AC90100D5012010BDC96AB3
:100A5000A142FAD010BD002AF7D0012AF2D0022A12
:100A6000F3D0032AF3D010BD704772B6FEE7000042
:100A700030B4052A01D2052202E0642A00D964229A
:100A80000F4B1C688C4202D393ED010A01E09FEDED
:100A90000D0A00EE902A9FED0C1AF8EE600A60EE47
:100AA000810A80EE801ABCEEC10A10EE101A89B2DB
:100AB000B1F5806F01D340F2FF3130BCFFF712BEB9
:100AC000602F00080000FA4300C07F4478B500247E
:100AD000009490F83C20012A19D0012280F83C2093
:100AE0000A6807230568092A13D9EE680A3A02EB57
:100AF000420293409E43EE600B788A680A3B03EB08
:100B000043039A400368DD682A43DA6010E002205C
:100B100078BD2E6902EB420293409E432E610B7812
:100B20008A6803EB43039A4003681D692A431A61EC
:100B30004A681F23072A13D205686E6B521E02EB08
:100B4000820293409E436E630B790A885B1E92B2C9
:100B500003EB83039A4003685D6B2A435A6327E0E3
:100B600005680D2A12D22E6BD21F02EB820293402F
:100B70009E432E630B790A88DB1F92B203EB83033B
:100B80009A4003681D6B2A431A6311E0EE6A0D3A1E
:100B900002EB820293409E43EE620B790A880D3B82
:100BA00092B203EB83039A400368DD6A2A43DA6258
:100BB000164B0568144A9D4206D10D68122D03D1CB
:100BC000556845F48005556005689D4218D10B684D
:100BD000102B01D0112B13D1536843F40003536041
:100BE000096810290CD10A490A4A0968B1FBF2F1D7
:100BF00001EB8101490000E0491E00910029FBD171
:100C000080F83C40002078BD0023014000200140D6
:100C10001C00002040420F0070B504004FF000059A
:100C200003D0206C002610B107E0012070BD2046E3
:100C300000F01CF8666484F83C60206CC00610D498
:100C4000206C20F4885040F0020020642046FFF71A
:100C50002BFE6664206C20F0020040F0010020644E
:100C600000E0012584F83C60284670BD70B586B070
:100C7000064614216846FFF7DDFA1D4930688842B0
:100C800033D11C480025016841F48071016000687F
:100C900000F48070059017481438016841F0010194
:100CA00001600068694600F0010005900120009095
:100CB0000320CDE90105104800F0CCF9104C0F4895
:100CC000C4E900050015A560C4E903504000606157
:100CD0008000C4E9060525622046656200F03EF901
:100CE00008B1FFF7C2FEB463A66306B070BD000092
:100CF00000200140443802400000024010640240DD
:100D0000040100202DE9F0410446876D00F0A0FAAF
:100D1000064694F835000025022806D0802060653C
:100D200084F834500120BDE8F0812068016821F08A
:100D3000160101602068416921F080014161206C49
:100D400008B9A06C20B12068016821F00801016099
:100D50002068016821F0010101600CE000F078FAE0
:100D6000801B052807D920206065032084F8350002
:100D700084F83450D7E720680068C007EED194F8B3
:100D80005C103F208840B860012084F8350084F86A
:100D900034500020C7E790F83510022903D0802195
:100DA000416501207047052180F835100068016811
:100DB00021F0010101600020704700002DE9F84397
:100DC00004464FF00009CDF8009063484FF41651E7
:100DD000A56D0068B0FBF1F72E6894F85C10082050
:100DE00000FA01F131420FD021680A6852070BD591
:100DF0000A6822F004020A6094F85C108840A86037
:100E0000606D40F00100606594F85C104FF00108DF
:100E100008FA01F0304208D021684969090604D572
:100E2000A860606D40F00200606594F85C100420DA
:100E30008840304208D021680968890704D5A86035
:100E4000606D40F00400606594F85C1010208840EC
:100E5000304218D021680968090714D5A8602068B5
:100E60000168490304D50068000308D5A16C07E0B8
:100E70000168C90503D4016821F008010160216CF3
:100E800009B12046884794F85C1020208840304201
:100E900031D021680968C9062DD5A86094F83500BD
:100EA00005282068016806D0490347D5006800037B
:100EB0001DD4616C1CE021F01601016020684169BD
:100EC00021F080014161206C08B9A06C20B120683C
:100ED000016821F00801016094F85C103F2088400F
:100EE000A86084F8358084F83490216D1FE0E16BB0
:100EF00009B120468847606D00282BD0606DC0077F
:100F000014D0052084F835002068016821F0010123
:100F100001600098401C0090B84203D82068006827
:100F2000C007F6D184F8358084F83490E16C00294C
:100F300010D001B02046BDE8F04308470168C9055C
:100F4000D5D4016821F01001016084F8358084F85F
:100F50003490CCE7BDE8F8831C0000202DE9F04177
:100F6000044600F075F906465CB1022084F83500AD
:100F7000002584F834502068016821F001010160E7
:100F80000DE00120BDE8F08100F062F9801B05282A
:100F900005D920206065032084F83500F2E7206839
:100FA0000068C007F0D12268116820480140D4E9E8
:100FB00001031843D4E903363343184363691843E4
:100FC000A3691843E3691843236A18430843616A15
:100FD000042903D1D4E90B13194308431060206896
:100FE0004069666A20F0070130460E430127042855
:100FF0000CD1A06A0643E06A40B12046FFF70AFD23
:1010000020B14020606584F83570BAE720684661F9
:101010002046FFF7EBFC94F85C203F219140816073
:10102000656584F835700020ACE700003F8010F063
:1010300070B5044600F00CF90546601C02D0044867
:101040000078044400F004F9401BA042FAD370BDBC
:10105000100000202DE9F84FDFF8BCA10022012587
:1010600003264FF00F090AF1040BAAF1040E00BF8A
:101070000B6805FA02F42340A34270D10F7907F000
:101080000307012F01D0022F16D187684FEA4208CB
:1010900006FA08FC27EA0C07D1F80CC00CFA08FC89
:1010A0004CEA070CC0F808C04768A7430C79C4F3A2
:1010B000001494403C4344600C79E443A4070AD0F4
:1010C000C4684FEA420C06FA0CF7BC438F6807FA73
:1010D0000CF72743C7600C7904F00304022C12D1EB
:1010E000D40800EB840CDCF820405707FF0E09FA07
:1010F00007F824EA0804D1F8108008FA07F848EA4B
:101100000408CCF8208004684FEA420C06FA0CF779
:10111000BC430F7907F0030707FA0CF72743076072
:101120004C6814F4403F70D03C4C276847F480472B
:101130002760246822F0030704F480440094384CAC
:1011400007EB040CDCF8084897074FEA177809FA10
:1011500008F7BC43334FB84202D1002724E054E0E3
:10116000314FB84201D101271EE0304FB84201D1C2
:10117000022719E02E4FB84201D1032714E02D4F6A
:10118000B84201D104270FE02B4FB84201D1052707
:101190000AE02A4FB84201D1062705E0284FB8429D
:1011A00001D1072700E0082707FA08F72743CCF802
:1011B0000878DAF800405746D1F804C09C435FEA4B
:1011C000CC2C00D51C433C60DBF800405F46D1F8D6
:1011D00004C09C435FEA8C2C00D51C433C60DEF8C5
:1011E00000407746D1F804C09C435FEA8C3C00D5B0
:1011F0001C433C60084F083F3C68D1F804C09C4346
:101200005FEACC3C00D51C433C60521C102AFFF422
:101210002FAFBDE8F88F0000083C01404438024081
:10122000003001400000024000040240000802407B
:10123000000C02400010024000140240001802405E
:10124000001C02400AB1816170470904FBE70000FD
:101250000148806870470000100000200248816843
:101260000278114481607047100000200B4810B5CF
:10127000016841F400710160016841F4806101601E
:10128000016841F480710160032000F06FF80F20C5
:1012900000F006F800F024F8002010BD003C0240E9
:1012A00070B50D4D04464FF47A712878B1FBF0F01B
:1012B0000A490968B1FBF0F000F028FC48B9102C8D
:1012C00007D200222146501E00F030F800206C604A
:1012D00070BD012070BD0000100000201C00002027
:1012E0000A4808B5016841F480410160006800F4D3
:1012F000804000900548001F016841F08051016066
:10130000006800F08050009008BD000044380240A2
:10131000002809DB00F01F020121914040098000F4
:1013200000F1E020C0F8001170470000F0B40E4B4F
:101330001B680C46C3F30223C3F10705042D00D933
:101340000425191D072901D2002300E0DB1E012618
:1013500006FA05F1491E214099409E40761E16402E
:101360003143F0BC01F072BC0CED00E0064900F026
:10137000070208684FF6FF03184040EA0220034ABC
:1013800010430860704700000CED00E00000FA0513
:101390002DE9F0470E46050065D0DFF81481D8F836
:1013A0000000F7B200F00700B04207D288F80070E2
:1013B000D8F8000000F00700B04254D128683D4C36
:1013C000810712D5400703D5206840F4E050206023
:1013D0002878000703D5206840F46040206020682A
:1013E000A96820F0F000084320602878C0072DD0BD
:1013F000304968680839012812D0022813D0032820
:1014000011D00968890700292DDA216821F003012C
:1014100001432160FFF71CFF814641F2883A0EE04C
:1014200009688903EFE709688901ECE7FFF710FF16
:10143000A0EB0901514502D90320BDE8F0872068DF
:10144000696800F00C00B0EB810FEFD1D8F8001004
:10145000404601F00701B14207D90770006800F06B
:101460000700B04201D00120E7E72878400705D502
:101470002068E96820F4E0500843206028780007DD
:1014800006D52068296920F4604040EAC100206048
:1014900000F038F82168084AC1F30311515CC840D4
:1014A0000649086006480068FFF7FAFE0020C4E716
:1014B000003C024008380240482F00081C00002071
:1014C000140000200448054900680968044AC1F373
:1014D0008221515CC84070471C000020083802403F
:1014E000582F00080448054900680968044AC1F3F8
:1014F0004231515CC84070471C000020083802404F
:10150000582F0008154810B5006810F00C02144858
:1015100013D01449042A0FD0082A0ED10F4C241FCF
:101520002268236802F03F025B0207D52068C0F3FF
:101530008810A0FB010106E0084610BD2168C1F338
:101540008811A1FB00010023FEF73CFE2168C1F3D6
:101550000141491C4900B0FBF1F010BD08380240C0
:101560000024F40040787D012DE9F84F04006ED08E
:101570002078DFF84C93C007A9F104054AD009F19F
:1015800004000168C1F38101012908D00068C0F39B
:10159000810002280AD1D9F80000400206D5286847
:1015A000800337D560680028E1D033E06068B0F58B
:1015B000803F10D0B0F5A02F286810D020F48030E4
:1015C0002860286820F4802028606068A8B1FFF7B0
:1015D0003FFE06460DE0286840F48030F4E740F412
:1015E00080202860F7E700BFFFF732FE801B6428E9
:1015F00073D828688003F7D50CE0FFF729FE06466C
:1016000005E000BFFFF724FE801B6428F0D828689F
:101610008003F7D42078DFF8AC8280074FF0000A0F
:101620003ED5A748001D016811F00C0F08D00068D6
:10163000C0F3810002280BD1D9F80000400207D482
:101640002868800716D5E068012800D112E033E150
:10165000E068B8B10120C8F80000FFF7F9FD0646C0
:1016600005E000BFFFF7F4FD801B0228C0D8286802
:101670008007F7D52868216920F0F80040EAC1000A
:1016800028600DE0C8F800A0FFF7E2FD064604E080
:10169000FFF7DEFD801B02281FD828688007F7D4DB
:1016A0002078000722D5864F87486169703771B16D
:1016B00001210160FFF7CCFD064604E0FFF7C8FDFD
:1016C000801B022809D838688007F7D50EE0C0F8DB
:1016D00000A0FFF7BDFD064605E082E0FFF7B8FD7C
:1016E000801B02287DD838688007F7D4207840070F
:1016F00068D5DFF8CCB100270BF13C0BDBF800001C
:10170000C0000BD4DBF8001041F08051CBF8001082
:10171000DBF80000012700F0805000906B4E30682D
:10172000C00510D4306840F480703060FFF790FD41
:10173000009005E0FFF78CFD0099401A022850D870
:101740003068C005F6D55E4EA0686C3601280FD013
:101750000528306810D020F001003060306820F09B
:1017600004003060A068B8B1FFF772FD00900FE090
:10177000306840F00100F4E740F004003060F7E723
:10178000FFF766FD0099411A41F28830814266D820
:1017900030688007F4D50EE0FFF75AFD009007E0AF
:1017A000FFF756FD0099411A41F28830814256D820
:1017B00030688007F4D42FB1DBF8001021F080519D
:1017C000CBF80010A069C8B33D49091D0968C1F3F1
:1017D000810102294AD00228504607D0C8F860008B
:1017E00000E03CE0FFF734FD04463BE04746C8F824
:1017F0006000FFF72DFD064605E000BFFFF728FD5E
:10180000801B02282BD828688001F7D4D4E907016F
:101810000843A16A2E4A490802EB0141626A41EA83
:101820008211084394F82C1040EA0161C9F80010B5
:1018300001203866FFF70CFD044606E03EE000BFDD
:10184000FFF706FD001B022809D828688001F7D59C
:1018500034E000BFFFF7FCFC001B022802D9032084
:10186000BDE8F88F28688001F4D427E00128F7D07C
:10187000D9F80000E26900F4800191421CD1226A8B
:1018800000F03F01914217D147F6C071626A0140F2
:10189000B1EB821F10D1A26A4FF0FF3300F4403148
:1018A00003EB5202B1EB024F06D194F82C1000F07A
:1018B0007060B0EB016F01D00120D1E70020CFE7CD
:1018C0000438024000004742800E4742007000404A
:1018D0000000FFFF7047000038B5016804464A6801
:1018E0008868C043430606D5C30704D1D3435B06CB
:1018F00001D4216C05E0830708D4D3431B0605D42B
:10190000616C01B02046BDE830400847830603D52E
:10191000430601D5C30551D4D3439B064ED4430699
:101920000AD494F85130032B49D0636D43F004037B
:101930006365CB688B680093830609D4636D43F0BD
:10194000010363658B6800930B6823F040030B6011
:10195000C00506D4606D40F00800606520688068AE
:101960000090606D002829D02068416821F0E001D6
:101970004160012084F85100900701D4D00722D0A3
:101980002068416821F003014160114DE06C40B1D5
:101990000565E06CFFF7FFF918B1606D40F040009D
:1019A0006065A06C002809D00565A06CFFF7F3F90D
:1019B000002803D0606D40F04000606538BDC86805
:1019C0008868009038BD2046FFF784FF38BD0000CE
:1019D000E126000870B5040009D0606A002540B116
:1019E00025616561A56294F8510040B10CE00120C9
:1019F00070BD6068B0F5827FF4D0E561F2E784F8ED
:101A00005050204600F044F8022084F8510020682D
:101A1000016821F040010160A088218900F48270F2
:101A200001F404410843A18901F400610843217CC9
:101A300001F002010843217D01F001010843218BDF
:101A400001F400710843217F01F03801084394F844
:101A5000201001F080010843218D01F4005108435A
:101A600021680860A069042101EA104094F824105C
:101A700001F010010843216848602068C16921F421
:101A80000061C1616565012084F85100002070BDCE
:101A900010B586B0044614216846FEF7CBFB184902
:101AA0002068884229D117480021026842F4004288
:101AB0000260006800F40040059012481038026887
:101AC00042F004020260006800F0040005904FF448
:101AD000E05000900220CDE9010103200390062090
:101AE000049069460848FFF7B5FA002211463320F2
:101AF000FFF71CFC3320FFF70BFC06B010BD000005
:101B0000003C0040403802400008024010B5401E32
:101B1000B0F1807F01D3012010BD4FF0E02460615F
:101B20000F21601701F092F80020A06107202061CA
:101B3000002010BD70B590F83C20012A32D001245D
:101B400080F83C40022280F83D2003685A689D6876
:101B500022F070060A6832435A60134B02689A42B8
:101B600014D0B2F1804F11D0104B9A420ED0104BCE
:101B70009A420BD00F4B9A4208D00F4B9A4205D095
:101B80000E4B9A4202D00E4B9A4204D1496825F07E
:101B900080031943916080F83D40002180F83C109B
:101BA000084670BD022070BD0000014000040040E6
:101BB00000080040000C00400004014000400140CB
:101BC0000018004010B5040003D094F83D0010B197
:101BD00007E0012010BD002084F83C00204600F002
:101BE0001FF8022084F83D00211D206800F0D4FD7C
:101BF000012084F8460084F83E0084F83F0084F811
:101C0000400084F8410084F8420084F8430084F8DE
:101C1000440084F8450084F83D00002010BD000019
:101C200008B500680649884208D10648016841F0B5
:101C300002010160006800F00200009008BD000091
:101C4000000400404038024090F83D10012901D0C6
:101C500001207047022180F83D1000681149884238
:101C600014D0B0F1804F11D00F4988420ED00F49E7
:101C700088420BD00E49884208D00E49884205D0D0
:101C80000D49884202D00D49884204D1816801F093
:101C90000701062903D0016841F00101016000201D
:101CA00070470000000001400004004000080040B0
:101CB000000C0040000401400040014000180040BA
:101CC00070B5044690F83C000025012817D0012685
:101CD00084F83C60022084F83D002068826822F08D
:101CE000770222F47F4282600868502838D00DDCE9
:101CF00020284FD005DC90B3102811D14AE00220F3
:101D000070BD302846D040280AD13BE060282FD053
:101D100070280DD0B0F5805F03D0B0F5005F12D011
:101D2000012584F83D60002084F83C00284670BD01
:101D3000CB68D1E90121206800F096FD2068816818
:101D400041F0770109E0CB68D1E90121206800F07A
:101D50008BFD2068816841F480418160E1E719E0F2
:101D6000CA684968206800F091FD5021206806E0AB
:101D7000CA684968206800F09AFD6021206800F078
:101D80007DFDCEE7CA684968206800F07FFD4021EC
:101D90002068F4E7226801461046F0E77047704774
:101DA000F8B5016804460868CA684B6910F00F0F5F
:101DB0004FF0000559D003F0010602F49077374345
:101DC00065D0C10705D0D10503D5616C41F0010193
:101DD0006164410705D5D90703D0616C41F0020168
:101DE0006164810705D5D90703D0616C41F0040116
:101DF0006164010707D502F02001314303D0616C13
:101E000041F008016164616C00293AD0800604D574
:101E1000900602D5204600F08AFD20684069616C7A
:101E2000C0F38010090700D460B3204600F058FDCD
:101E300020684069400621D52068143050E8001F12
:101E400021F0400140E80012002AF5D1E06BA8B172
:101E500072490165E06BFEF79EFF002811D0E06B30
:101E6000016D01B0BDE8F040084783060FD5930629
:101E70000DD52046BDE8F84000F059BD2046FFF7DB
:101E80008EFFF8BD2046FFF78AFF6564F8BD266B1C
:101E90002023012E7ED1C6067CD5D6067AD50868C9
:101EA0004868009048694FF0020640064DD5E26B45
:101EB000106840684FF480770004000C3AD0A18D80
:101EC000814237D9E085D069B8422DD020680C30E6
:101ED00050E8001F21F4807140E80012002AF5D17B
:101EE0002068143050E8001F21F0010140E8001282
:101EF000002AF5D12068143050E8001F21F040017D
:101F000040E80012002AF5D184F8423025632068A9
:101F10000C3050E8001F21F0100140E80012002AA8
:101F2000F5D1E06BFEF7EEFE6663A08DE18D401A01
:101F300081B206E0A18D8142A8D1D069B842A5D175
:101F400066632046FFF72AFFF8BDA08DE18D401A99
:101F500081B2E08D0028F7D00029F5D020680C3040
:101F600050E8002F22F4907240E80027002FF5D1AE
:101F70002068143050E8002F22F0010240E80027CA
:101F8000002FF5D184F84230256320680C3050E8EA
:101F9000002F00E006E022F0100240E80023002BB2
:101FA000F3D1CDE705062BD5150629D594F84100C8
:101FB0002128C9D1A068B0F5805F01D12069B0B1F6
:101FC000206A411C2162216800784860E08C401E34
:101FD0000004000CE084B7D12068C16821F08001C2
:101FE000C1602068C16841F04001C160F8BD206A4D
:101FF0000088C0F308004860206A801C2062E5E782
:102000004006F3D55006F1D5CA68204622F04002BA
:10201000CA6084F8413000F093F9F8BDD328000875
:1020200070B5040004D094F84100002510B106E01A
:10203000012070BD84F84050204600F023F8242091
:1020400084F841002068C16821F40051C160204635
:1020500000F0CEFC2068016921F490410161206804
:10206000416921F02A0141612068C16841F40051B1
:10207000C1606564202084F8410084F842006563F3
:10208000002070BDF0B587B0044614216846FEF705
:10209000D1F82A4F23680022294902240325072664
:1020A0002848BB4221D1264B14331F6847F0100744
:1020B0001F601B6803F0100305930B6843F00103D6
:1020C0000B60096802AB01F0010105916902CDE9DD
:1020D000001483E864006946FEF7BCFF0022114645
:1020E0002520FFF723F9252023E0174FBB4222D1FB
:1020F000134B10331F6847F400371F601B6803F44D
:10210000003305930B6843F001030B60096802ABD1
:1021100001F0010105910C21CDE9001483E8640070
:102120006946FEF797FF002211462620FFF7FEF8CA
:102130002620FFF7EDF807B0F0BD000000100140C9
:1021400030380240000002400044004090F8423025
:10215000202B01D00220704721B11AB10023036364
:1021600000F0CCBC012070472DE9F04100683949EE
:1021700000256E1E884230D13748394C374A0178E5
:1021800020780D290AD00A2908D03F2802D21154FC
:10219000401C207001223049324832E00028F9D03A
:1021A000155431A73846FEF750F882B23346394607
:1021B0002C4800F075F8334622782849294800F069
:1021C0006FF8334604222CA1264800F069F840211C
:1021D0002248FEF72FF82570DCE72849884236D1DF
:1021E0002748294C274F017820780D290DD00A293E
:1021F0000BD03F2802D23954401C2070204923487C
:102200000122BDE8F041FFF7A1BF0028F6D000F0A1
:1022100079FE20783D541EA73846FEF716F882B2A4
:10222000334639460F4800F03BF833464022154903
:102230000C4800F035F8334602220FA1094800F09F
:102240002FF840210F48FDF7F5FF2570D6E7BDE8D0
:10225000F081000000100140050000203C0000203B
:1022600000000020040200205553415254312052F6
:102270004543563A200000000D0A0000004400408B
:10228000060000207C000020010000204C020020FD
:1022900055534152543220524543563A20000000D3
:1022A0002DE9F843044690F84100984616460D463D
:1022B000202802D00220BDE8F88385B17EB100203D
:1022C0006064212084F84100FEF7C2FFA6848146A5
:1022D000E684A0682027B0F5805F02D003E00120EB
:1022E000E9E7206910B12E4600250EE000260CE03B
:1022F0008021204600F01DFCA8B9C6B116F8010BDC
:1023000021684860E08C401EE084E08C4B464FF032
:102310000002CDF800800028EAD14FF040012046AD
:1023200000F007FC40B184F841700320C3E735F8A2
:10233000020BC0F30800E3E784F841700020BAE71D
:102340007047FEE710B50C4C002204212046FEF732
:1023500079FF022000F048FD012204212046FEF70B
:1023600071FF042000F040FD20460022BDE810402F
:102370000421FEF767BF00000010024070B5204C3A
:10238000002208212046FEF75DFF01222021204681
:10239000FEF758FF1B4D002202212846FEF752FF90
:1023A000002204212846FEF74DFF0022082128467E
:1023B000FEF748FF002210212846FEF743FF0022C7
:1023C00040212846FEF73EFF002201212846FEF765
:1023D00039FF00224FF400510B48FEF733FF002273
:1023E00001212046FEF72EFF002202212046FEF7A3
:1023F00029FF2046BDE8704000220421FEF722BFDD
:102400000014024000100240000802407FB5002482
:1024100015480094019402941249039401604FF40A
:102420008031C0E901140461047680F8204009037A
:10243000C1620125C5614910C460816280F83040E5
:102440004561FEF7E9FB08B1FEF70FFBCDE900455A
:10245000694605480294FEF739FB002801D0FEF7D3
:1024600004FB7FBD00200140BC000020094808B5E6
:10247000016841F4800101600068002200F48000DE
:10248000009011463820FEF751FFBDE80840382083
:10249000FEF73EBF303802402DE9F04786B01421E8
:1024A0006846FDF7C7FE3D480024016841F0100171
:1024B0000160016801F010010591016841F004011B
:1024C0000160016801F004010591016841F02001FB
:1024D0000160016801F020010591016841F080016F
:1024E0000160016801F080010591016841F001017E
:1024F0000160016801F001010591016841F00201EC
:1025000001600068264F00F00200059000225F2164
:102510003846FEF797FEDFF88C804FF40056002215
:1025200031464046FEF78EFEDFF87C9000221F21E8
:102530004846FEF787FE012220214846FEF782FE2C
:10254000DFF868A0002210215046FEF77BFE5F20D6
:1025500000900125CDE90154694638460394FEF701
:1025600079FD0096CDE90154694640460394FEF793
:1025700071FD3F200090CDE901546946484603941F
:10258000FEF768FD10200090CDE9015469465046E1
:102590000394FEF75FFD06B0BDE8F08730380240D7
:1025A00000100240000802400014024000040240F3
:1025B0000F4810B50D4901604FF482714160002150
:1025C0008160C1604FF400720161C0E90512C16110
:1025D0000162416281620A21C162FFF7FBF90028B2
:1025E00003D0BDE81040FEF740BA10BD003C0040EB
:1025F0006401002010B586B00024174800940194AF
:1026000002940394049413490594C0E900145121E1
:10261000C0E90241802104618161FFF7D3FA08B16A
:10262000FEF723FA4FF48050009069460A48FFF7FE
:1026300047FB08B1FEF719FA2020CDE9040404A9EC
:102640000548FFF777FA002801D0FEF70EFA06B02A
:1026500010BD000000040040BC0100200C4810B573
:102660000A4901604FF4E1314160002181600C2290
:10267000C160C0E904128161C161FFF7D1FC00288B
:1026800003D0BDE81040FEF7F0B910BD00100140C6
:10269000040200200C4810B50A4901604FF4E131F2
:1026A0004160002181600C22C160C0E90412816197
:1026B000C161FFF7B5FC002803D0BDE81040FEF76C
:1026C000D4B910BD004400404C020020FEE7FEE7F4
:1026D000704700000148FFF7FFB8000064010020C8
:1026E00010B5806B0021C187C186FFF7F3F810BDDC
:1026F0007047FEF7B3BD000030B593B03021684697
:10270000FDF798FD14210CA8FDF794FD1C4800244A
:10271000016841F080510160006800F08050119024
:102720001848016841F4804101600068022500F406
:102730008040119001200390102004900095069590
:102740000820CDE907405420CDE9090504200B906D
:102750006846FEF709FF08B172B6FEE70F20CDE923
:102760000C054FF48050CDE90E4002210CA81094C6
:10277000FEF70EFE002801D072B6FEE713B030BDA2
:1027800040380240007000400248016841F4700186
:102790000160704788ED00E0F0B50268274B284DD6
:1027A000284E294F294C4FF0804C984209D0604563
:1027B00007D0A84205D0B04203D0B84201D0A04211
:1027C00004D122F0700E4A6842EA0E0298421BD0F1
:1027D000604519D0A84217D0B04215D0B84213D0E6
:1027E000A04211D01A4DA8420ED01A4DA8420BD0CB
:1027F000194DA84208D0194DA84205D0184DA8423D
:1028000002D0184DA84203D122F44075CA682A4369
:102810004D6922F080022A438D68C5620D68856289
:10282000984201D0A04201D109690163016841F0D9
:1028300004010160012141610260F0BD000001401E
:102840000004004000080040000C0040000401406B
:102850000040014000440140004801400018004091
:10286000001C00400020004010B5846842EA0322AA
:1028700024F47F440A432243826010BD826822F020
:1028800070020A4342F007018160704710B5036A85
:10289000046A24F001040462846924F0F00444EA28
:1028A000021423F00A020A438461026210BD10B5CB
:1028B000036A046A24F010040462846923F0A0030C
:1028C00024F4704444EA023243EA01118261016255
:1028D00010BD10B5806B0021C185FFF760FA10BDF7
:1028E00001680C3151E8002F22F4907241E8002376
:1028F000002BF5D10168143151E8002F22F00102BC
:1029000041E80023002BF5D1016B012909D10168B1
:102910000C3151E8002F22F0100241E80023002B77
:10292000F5D1202180F8421000210163704708B5DD
:1029300090F84210222901D0022008BD82684FF48D
:1029400080539A4201D1016921B1816A9A421BD018
:102950004AB10AE00268816A5268C2F308020A803A
:10296000816A891C08E0026972B10268526802F04B
:102970007F020A70816A491C8162C18D491E090467
:10298000090CC18503D01BE002685268F1E70168B9
:10299000CA6822F02002CA600168CA6822F4807204
:1029A000CA6001684A6922F001024A61202180F868
:1029B000421000214163026B012A03D0FFF7D4FBD0
:1029C000002008BD016301680C3151E8002F22F09E
:1029D000100241E80023002BF5D101680A68D206F5
:1029E00002D50A6849680091818DFFF7D7F9E7E7BA
:1029F00070B5044600680169E26821F44051114352
:102A000001612169A068E2690843616911430843D3
:102A10002168CA6849F20C639A430243CA6020687D
:102A20004169A26921F44071114341613149206833
:102A3000884202D03049884202D1FEF753FD01E0BE
:102A4000FEF740FDE2690023192164253226B2F524
:102A5000004F626828D0A0FB0101930F9200FDF7A0
:102A6000B1FB0146B0FBF5F06FF01802504301EBEB
:102A7000800006EB0010B0FBF5F000F0F002B1FBB7
:102A8000F5F002EB0012B1FBF5F06FF018035843BC
:102A900001EB800006EB0010B0FBF5F000F00F003A
:102AA00021681044886070BDA0FB010192185B4151
:102AB000FDF788FB0146B0FBF5F00201B1FBF5F034
:102AC0006FF01803584301EB800006EBC000B0FB29
:102AD000F5F000F0F80002EB4002B1FBF5F05843CE
:102AE00001EB800006EBC000B0FBF5F000F0070042
:102AF000D6E7000000100140001401408162828589
:102B0000C28500214164222180F84210016921B16F
:102B10000168CA6842F48072CA6001684A6942F07A
:102B200001024A610068C16841F02001C1600020D3
:102B300070472DE9F843984617460D460446089E0F
:102B400024E0701C22D0FEF783FBA0EB0800B0420B
:102B50001AD8CEB12068C168490717D5802D15D085
:102B6000402D13D00168C94309070FD4016800251F
:102B7000406800902046FFF7B3FE0820606484F8A8
:102B800040500120BDE8F8830320FBE7206800687F
:102B900035EA000004D00020B842D2D00020F1E78E
:102BA0000120F9E70148FFF7FBB80000040200200C
:102BB0000148FFF7F5B800004C020020FEE708B519
:102BC000002140F480500091010A8DF801108DF829
:102BD00002006A4603210620FDF79EFD08BD0000A5
:102BE00008B500210091FDF7E1FB41EC100B0E4808
:102BF00090ED021B51EC100B53EC112BFDF764FB15
:102C0000FDF7E1FB8DF80300010A8DF80210010CBD
:102C10008DF80110000E8DF8000004216A46084668
:102C2000FDF77AFD08BD0000200000200FB4054B21
:102C300010B503A9044A029800F02CF810BC5DF806
:102C400014FB0000092E0008340000200907090EBB
:102C5000002804DB00F1E02080F80014704700F049
:102C60000F0000F1E02080F8141D70470048704705
:102C70003800002002E008C8121F08C1002AFAD15B
:102C800070477047002001E001C1121F002AFBD1EC
:102C9000704700002DE9FF4F89B09B460446002590
:102CA00006E025280BD05A460B999047641C6D1CF2
:102CB00020780028F5D10DB02846BDE8F08F002718
:102CC000B8460122474900E0074314F8013F203B82
:102CD00002FA03F00842F7D120782E2819D114F80F
:102CE000010F47F004072A280ED06FF02F0220783A
:102CF000A0F1300109290CD808EB880102EB410151
:102D000000EB0108641CF2E70A98641C50F8048B7D
:102D10000A9020780028CED0642808D0692806D0F0
:102D200075281ED05A460B9990476D1C58E00A9999
:102D30004FF00A0901C90A91002802DA40422D2108
:102D400002E0390504D52B218DF82010012103E084
:102D5000F90704D02021F7E78A4608AE0DE00021EC
:102D6000FAE70A994FF00A0901C90A91F7E74946BB
:102D7000FDF742FB303106F8011D0028F7D1ADEB1D
:102D8000060000F12009780701D44FF00108C8457A
:102D900002DDA8EB090000E000208046002706E0E5
:102DA00008A85A46C05D0B9990476D1C7F1C57457B
:102DB000F6DB04E030205A460B9990476D1CB8F1C1
:102DC0000001A8F10108F5DC05E016F8010B5A46F0
:102DD0000B9990476D1CB9F10001A9F10109F4DCD0
:102DE000641C65E7092801000549064A0968B1FB2A
:102DF000F2F141430520B1FBF0F0401EFDD27047D7
:102E00001C00002040420F0013B54FF6FF73012253
:102E100069460248FFF744FA00981CBD04020020EE
:102E2000314E08B564203060FEF720FAFFF764FCED
:102E3000FFF732FBFFF71AFBFFF7BAFBFFF7E6FAE3
:102E4000FFF7D8FBFFF70AFCFFF724FC0122274914
:102E50002748FFF77BF925490122491C2548FFF740
:102E600075F92548FEF7F0FEFDF7CCFB0A20FEF7CA
:102E7000DFF8FFF767FA1D4D204C6D1E3068411CCE
:102E800004D0811C05D0C01C06D008E04FF0FF30F4
:102E900004E06FF0010001E06FF00200A86021463D
:102EA0001020FDF72CFC642221461020FDF7E0FDE8
:102EB000A868411C0DD0C01CE0D121461020FDF7B0
:102EC0001EFC642221461020FDF7D2FDFFF73AFADE
:102ED000D4E7204603460A4A03210094FDF78CFC00
:102EE0006420FEF7A5F8C9E73000002005000020A7
:102EF000040200204C020020BC01002040420F00D0
:102F0000005A620238B50B480078002810D00A4CED
:102F100000210A222154009169462046FDF79CF9C0
:102F20000099A14204D00978002901D10349086021
:102F300038BD0000010000207C000020300000208F
:102F40000006101600061016000000000000000029
:102F5000010203040607080900000000010203043F
:102F6000000000000000FA43004040404040404064
:102F7000404041414141414040404040404040404C
:102F800040404040404040404005020202020202F0
:102F9000020202020202020202202020202020203F
:102FA0002020200202020202020290909090909053
:102FB0001010101010101010101010101010101011
:102FC0001010101002020202020288888888888885
:102FD0000808080808080808080808080808080871
:102FE000080808080202020240000000692F0008D9
:102FF00010300008000000203C000000742C000885
:103000004C3000083C0000205C060000842C0008C6
:1030100000000000000000000000000000000000B0
:103020000100000010000000000000000024F40077
:103030000000D0000000030295D626E80B2E2140A8
:0C30400000000000000000000000000084
:040000050800018965
:00000001FF
