:020000040800F2
:10000000F05E0020A10100089F3300089F2E000829
:100010009D33000899110008953800080000000081
:10002000000000000000000000000000A3330008F2
:100030006512000800000000A1330008B133000879
:10004000BB010008BB010008BB010008BB010008A0
:10005000BB010008BB010008BB010008BB01000890
:10006000BB010008BB010008BB010008BB01000880
:10007000BB010008BB010008BB010008BB01000870
:100080009D110008BB010008BB010008BB0100086E
:10009000BB010008BB010008BB010008BB01000850
:1000A000BB010008BB010008BB010008BB01000840
:1000B00059340008BB01000865340008BB01000882
:1000C000BB010008BB010008BB010008BB01000820
:1000D000BB0100087D38000889380008BB01000812
:1000E000BB010008BB010008BB010008BB01000800
:1000F000BB010008BB010008BB010008BB010008F0
:10010000BB010008BB010008BB010008BB010008DF
:10011000BB010008BB010008BB010008BB010008CF
:10012000A9110008BB010008BB010008BB010008C1
:10013000BB010008BB010008BB010008BB010008AF
:10014000BB010008BB010008BB010008BB0100089F
:10015000BB010008BB010008BB010008BB0100088F
:10016000BB010008BB010008BB010008BB0100087F
:10017000BB010008BB010008BB0100080000000033
:10018000BB010008BB010008DFF810D000F01EFC26
:1001900000480047394D0008AFF30080F05E0020B2
:1001A0000648804706480047FEE7FEE7FEE7FEE711
:1001B000FEE7FEE7FEE7FEE7FEE7FEE7493400085C
:1001C000890100082DE9F05F0546002092469B4614
:1001D00088460646814640241BE02846414647465D
:1001E000224600F0B5FA53465A46C01A914110D340
:1001F00011461846224600F016F82D1A67EB010842
:100200004F4622460120002100F00DF817EB0009AF
:100210004E41201EA4F10104DFDC484631462A4647
:100220004346BDE8F09F202A04DB203A00FA02F1A1
:10023000002070479140C2F1200320FA03F31943D4
:1002400090407047202A06DBCB17203A41FA02F093
:1002500043EAE07306E041FA02F3D040C2F1200223
:100260009140084319467047D2B201E000F8012BD3
:10027000491EFBD270470022F6E710B513460A4626
:1002800004461946FFF7F0FF204610BD421C10F847
:10029000011B0029FBD1801A70472DE9F0479146D8
:1002A0000F4680460446002614F8015B2DB100F08D
:1002B0005FFA0068405DC007F6D12B2D02D02D2DCE
:1002C00018D0641E4A463946204600F055FA27B138
:1002D0003968A14201D1C7F8008071054FF00204CE
:1002E0000BD54042002803DD03F02CFB0460A0077F
:1002F000BDE8F08746F48066E4E70028F8DA03F00A
:1003000021FB04606FF00040F2E72DE9FE4F8046CC
:1003100081EA0300C00F0C46009021F0004123F059
:100320000045B8EB0200A94105D24046214690465F
:100330001C460B46024623F00040104347D0270DD1
:10034000C7F30A00C3F30A510290401A01904028F3
:100350006BDAC3F3130040F4801B0098924620B17F
:100360000023D2EB030A63EB0B0B01985946C0F153
:1003700040025046FFF757FF06460D465046594685
:10038000019AFFF75FFF10EB08006141002487EA44
:10039000115284EAE7731A4340D0009A62B3019A7B
:1003A000012A4FEA075215DC001B61EB02014FF0F6
:1003B000004202EA0752CDE90042001C41F58011DB
:1003C00032462B4600F08BFA03B0BDE8F08F404672
:1003D0002146F9E7001B61EB0201001C41F5801387
:1003E00000185B412018A2F5001747EB030140EA13
:1003F000D570B6196D4111E06D084FEA360645EA31
:10040000C0754FEA0752001B61EB0201001C41F569
:10041000801149084FEA30000019514132462B46FD
:1004200003B0BDE8F04F00F04BBA00980122400045
:100430000023D0EB020263EBE073009821464FEA01
:10044000E074B8EB000061EB0401E9E783F00043DE
:100450005BE781F0004158E72DE9FE4F81EA030494
:1004600004F0004421F0004100944FF0000B23F011
:10047000004350EA01045ED052EA03045BD0C3F3A8
:100480000A54C1F30A552C44A4F2F3340194A0FB9E
:100490000254C1F3130141F48011C3F3130343F475
:1004A000801301FB024400FB034E840A970A44EACE
:1004B000815447EA8357A4FB076802958D0A05FB20
:1004C00007854FEA932C04FB0C542705029D4FEA45
:1004D000065847EA1637B5EB08056EEB070C870E92
:1004E000920E47EA811742EA8312A7FB0201B6EB9C
:1004F0000B0164EB00042B0D43EA0C335E1844EB54
:100500001C50DA465146E7FB0201C5F313044FEADB
:100510000B3343EA14534FEA0432019C43EA0603C7
:10052000A4F10C040294009CCDE900B400F0D7F9CA
:1005300003B0BDE8F08F00200146F9E72DE9F04D4A
:1005400081EA030404F0004B21F0004514464FF00B
:10055000000A23F0004150EA050220D054EA0102CB
:100560001DD0C5F30A570246C5F31303C1F31300A8
:10057000C1F30A5640F4801543F48013A7EB060834
:10058000101BD64608F2FD3873EB050002D308F1C4
:10059000010801E092185B41B8F1000F03DA002076
:1005A0000146BDE8F08D00204FF4801106468446D8
:1005B0000EE0171B73EB050705D3121B63EB050356
:1005C00006434CEA010C49084FEA300092185B419F
:1005D00050EA0107EDD152EA030012D082EA04008A
:1005E00083EA0501084305D0101BAB4106D2012266
:1005F000002306E000224FF0004302E06FF001020A
:1006000053101AEB06004CEB085110EB0A0041EBBB
:100610000B01BDE8F04D00F053B90EB540F2334187
:1006200002910021CDE900110A460B4600F057F96E
:1006300003B000BDC1F30A5210B5C1F3130140F27B
:10064000FF3341F480119A4201DA002010BD40F2DC
:1006500033439A42A2F2334203DC524200F078F86C
:1006600010BD904010BD00F0004230F000400AD0B4
:10067000C10D01F56071C0F3160042EA0151C208D4
:1006800040071143704700200146704730B5041EF3
:1006900071F1000404DB4FF00044404264EB0101BF
:1006A000141E73F1000405DB1C464FF00043524258
:1006B00063EB04038B4208BF824230BD30B5041E99
:1006C00071F1000404DB4FF00044404264EB01018F
:1006D000141E73F1000405DB1C464FF00043524228
:1006E00063EB0403994208BF904230BD01F0004320
:1006F00030B421F0004150EA010206D00A0DA2F503
:100700006072C1F31301002A02DC30BC0020704784
:10071000440F44EAC104C100E01830BC00EBC250F1
:1007200000F079B830B50B460146002020220124A4
:1007300009E021FA02F59D4205D303FA02F5491BAF
:1007400004FA02F52844151EA2F10102F1DC30BDC5
:10075000202A04DB203A21FA02F00021704721FA16
:1007600002F3D040C2F1200291400843194670477D
:10077000004870471C5C00082DE9F05F8246007855
:10078000002715468B460AF10104B946302801D0EE
:100790009DB113E014F8010B0127782803D05828E5
:1007A00001D045B10AE00DB1102D07D10027102569
:1007B00014F8010B02E0082500E00A250026B046E7
:1007C0000EE005FB080005FB06F1012701EB1046D2
:1007D0001FFA80F8B6F5803F00D3B94614F8010B34
:1007E000294600F005F90028EBDABBF1000F05D02F
:1007F0000FB1641E00E05446CBF80040B9F1000F81
:1008000006D003F09FF802210160C81EBDE8F09FEA
:1008100048EA0640FAE70029A8BF7047401C490093
:1008200008BF20F00100704710B4B0FA80FC00FA55
:100830000CF050EA010404BF10BC704749B1CCF180
:10084000200421FA04F411FA0CF118BF012121430C
:100850000843A3EB0C01CB1D4FEA00614FEA1020C7
:1008600042BF002010BC704700EBC3501044002969
:10087000A4BF10BC7047401C490008BF20F0010015
:1008800010BC704710B541000CD0C0F3C751962979
:1008900008DC7E2909DC06DB410204D000F00040C0
:1008A00040F07E5010BD002010BDC1F19604C4F18F
:1008B000200100FA01F1E040FFF7ADFFA04010BDBC
:1008C00010B5141E73F1000408DA401C41F1000158
:1008D00092185B411A4301D120F0010010BD2DE9AF
:1008E000F04D92469B4611B1B1FA81F202E0B0FAA6
:1008F00080F220329046FFF796FC04460F4640EA0D
:100900000A0041EA0B0153465A46084313D01146E8
:1009100053EA010019D0C8F140025046FFF718FF12
:1009200005460E46504659464246FFF77CFC0843B2
:1009300005D0012004E020463946BDE8F08D0020B6
:10094000054346EAE0762C4337430A986305E40AF8
:10095000A0EB08000022FD0A44EA47540A3002D501
:1009600000200146E9E7010510196941DDE9084564
:1009700000196941BDE8F04DA2E70EB5C10F80EA4C
:10098000E0700844CA07002140F233438DE80E00AE
:100990000A460B46FFF7A3FF03B000BDC1F30A529E
:1009A000C1F3130140F2FF3341F480119A4202DA9D
:1009B00000200146704740F233439A42A2F233428C
:1009C00002DC5242FFF7C4BEFFF72DBC064C074DB8
:1009D00006E0E06840F0010394E80700984710340F
:1009E000AC42F6D3FFF7D4FB205C0008405C000863
:1009F0003A2800D2303820F02002412A01D3A2F157
:100A00003700884201D34FF0FF30704700B587B000
:100A100014216846FFF72FFC21480021026842F0AC
:100A200001020260026802F001020592026842F0CF
:100A300002020260026802F002020592026842F0BD
:100A400004020260006800F0040005900120CDE976
:100A50000101022003905F2000906946114801F0D7
:100A6000EDF84FF40050009069460F4801F0E6F8A9
:100A70003F20009069460D4801F0E0F802F02CFAA2
:100A800000F018F80A4A0321012000F049F8084A4A
:100A90000221921E084600F043F807B000BD000096
:100AA00030380240001002400008024000140240AA
:100AB0003200002010B50C4C00221021204601F01D
:100AC000BAF9012003F01CFF01221021204601F099
:100AD000B2F91E2003F014FF20460022BDE81040AA
:100AE000102101F0A8B900000014024038B50C46EE
:100AF0008DF800006A460121002000F011F8204620
:100B000002F0C9FE38BD38B50C468DF800006A46C3
:100B10000121002000F004F8204602F0CDFE38BD8F
:100B20002DE9F05F334F93468846044600252A4658
:100B30000221384601F07FF9002220212E4801F0E1
:100B40007AF9DFF8B8904FF40056002202213846B7
:100B500001F071F9200601D5012200E000223146A2
:100B6000484601F068F901220221384601F063F994
:100B70006006040E012003F0C3FE6D1CEDB2082DCB
:100B8000E3D300220221384601F055F90024B24691
:100B900026E000BF1BF80460002500220221384631
:100BA00001F049F9300601D5012200E0002251464A
:100BB000484601F040F901220221384601F03BF994
:100BC0007006060E012003F09BFE6D1CEDB2082D91
:100BD000E3D300220221384601F02DF9641CE4B26F
:100BE0004445D7D3BDE8F05F01222021024801F03F
:100BF00022B9000000100240001402400008024028
:100C000070B52DED048B0D4601294B48089E848854
:100C100012D00146022D898801FB063110D0032D28
:100C20007DD14588BDB104FB16240021944214D324
:100C300001234380144614E004FB0621641E00E0F7
:100C4000641C84801020FFF75EFFBDEC048BBDE8C0
:100C5000704002F025B90C46E7E79C4202D841807B
:100C60001C4681808188491C818021462020FFF715
:100C70004AFF04F57A711020FFF745FF02F010F9E2
:100C80002E4CDFED2F0A4FF4404594ED000A284624
:100C900030EE600ADFED2B0A20EE208A02F064F9C4
:100CA00000F0F8FA00EE100AB8EE400A84ED000AEF
:100CB0009FED250A28EE008A18EE100AFFF7D3FCF4
:100CC00041EC100B03F028F89FED209B51EC100B2A
:100CD00053EC192BFFF7C0FB41EC100B1DA053EC9C
:100CE000102B02F00FFE284602F03EF900F0D2FA77
:100CF00000EE100A18EE100AB8EE400A84ED000A61
:100D0000FFF7B1FC41EC100B03F006F853EC192B84
:100D100051EC100BFFF7A0FB41EC100B00E008E0DA
:100D2000BDEC048B53EC102B0AA0BDE8704002F020
:100D3000E9BDBDEC048B70BD04000020D03800205C
:100D400000000047890BA4390000C84200000000E1
:100D5000000034404442312E7478743D22252E32F6
:100D60006622FFFFFF00000010B50146806B026C99
:100D700012F0500F05D0026CD20626D500F050FBC1
:100D800010BD016C41F40071016401688A6812F0C1
:100D9000405F17D1027EAAB9CA6A12F4700F02D05E
:100DA0008A6852050ED44A6822F020024A60016C1B
:100DB00021F480710164016CC90403D4016C41F019
:100DC0000101016400F02AFB10BD806BC26CBDE81C
:100DD00010400846104710B5806B40210164416CFB
:100DE00041F00401416400F01BFB10BD10B5806BA5
:100DF00000F015FB10BD0000464910B54A6822F40A
:100E000040324A604A6843681A434A6001684A6847
:100E100022F480724A6001684A68036942EA032248
:100E20004A6001684A6822F040724A6001684A6874
:100E300083681A434A6001688A6822F400628A6003
:100E400001688A68C3681A438A60816A6FF07062B9
:100E5000D14201688A6822F070628A6001688A68FB
:100E60000CD0836A1A438A6001688A6822F0405273
:100E70008A6001688A68C36A1A4301E022F040521E
:100E80008A6001688A6822F002028A6001688A68C2
:100E9000037E42EA43028A6090F82010002901682C
:100EA0004A680FD042F400624A6001684A6822F43E
:100EB00060424A6001684A68174C436A04EB433356
:100EC0001A4301E022F400624A600168CA6A22F40F
:100ED0007002CA620168CA6A838B104C04EB035328
:100EE0001A43CA6201688A6822F400728A60016843
:100EF0008A6890F8303042EA43228A6001688A6842
:100F000022F480628A6001688A68406942EA80202F
:100F1000886010BD0023014000E0FFFF0000F0FFEB
:100F20002DE9F04186B014216846FFF7A4F92D4859
:100F30000024016841F001010160016801F0010134
:100F40000591016841F004010160016801F00401AC
:100F50000591016841F00801016000684FF4004606
:100F600000F0080000960227059001250397DFF89E
:100F70007880CDE901546946404600F05FFEE80202
:100F80008DE831006946194800F058FE3C2003976F
:100F90000090CDE90154164C6946204600F04EFE03
:100FA00000223146404600F046FF0122082120463B
:100FB00000F041FF01222021204600F03CFF0022EA
:100FC0000421204600F037FF0A48016841F0807193
:100FD00001600948016841F00101016006B0BDE807
:100FE000F08100003038024000000240000802405A
:100FF000000C0240FCED00E0001000E070B504467B
:10100000FFF78EFF4FF4054000F08CF8022000F04F
:1010100003FE204602F0C6F9E54302E0204602F056
:10102000C1F9E9B2022000F09BF8022000F0F4FDC3
:10103000012000F003F8A042F0D170BD70B50B4D57
:10104000044600220821284600F0F5FE6006000E46
:1010500000F03CF800F00CF800F00AF80446012219
:101060000821284600F0E7FE204670BD000C024033
:101070002DE9F0410025DFF84C80134E2C464FF44B
:1010800000676006040E01220421304600F0D3FE02
:10109000022000F0E9F83946404600F0C7FE08B1EA
:1010A000641CE4B200220421304600F0C4FE022099
:1010B00000F0DAF86D1CEDB2082DE2D32046BDE851
:1010C000F081000000080240000C024070B5144E90
:1010D0000546002422460821304600F0ACFE2806D2
:1010E00001D5012200E000221021304600F0A3FECD
:1010F0006806050E01220421304600F09CFEC8203F
:1011000000F0B2F800220421304600F094FEC8201E
:1011100000F0AAF8641CE4B2082CE0D370BD000013
:10112000000C024070B50D4D0446002208212846EF
:1011300000F081FE200AFFF7C9FFE0B2FFF7C6FF0B
:101140000020FFF7C3FF0020FFF7C0FF2846BDE8DF
:1011500070400122082100F06EBE0000000C024029
:1011600070B50C4D0E46044600220821284600F0BA
:1011700062FE012000EB4400C0B2FFF7A7FF30463B
:10118000FFF7A4FF2846BDE870400122082100F0C7
:1011900052BE0000000C0240FEE70000014800F0D3
:1011A000C9BB00002459002010B5034800F0C2FB61
:1011B00002490120087010BDB05800200200002034
:1011C00001681823CAB2103AB2FBF3F2054B6FF371
:1011D0000901032A9B5CC36500D9091D8165084686
:1011E000704700000C56000810B5014600208B69BE
:1011F0008A6A4FF0C07453B1B3F5005F15D072B175
:10120000012A0CD0022A0AD0032A09D104E01AB11B
:10121000012A06D0022A03D1C96AC90100D50120DA
:1012200010BDC96AA142FAD010BD002AF7D0012A28
:10123000F2D0022AF3D0032AF3D010BD30B50468EF
:10124000256825F480252560046863608368402B49
:10125000036803D099600068C26030BD9A6000687E
:10126000C16030BD70470000064A10B5536806499A
:10127000064C0968B1FBF4F141435068C01A88423A
:10128000FBD310BD001000E02C00002040420F00F6
:1012900072B6FEE770B50D4D00220821284600F019
:1012A000CAFD0020FFF712FF0020FFF70FFFFFF736
:1012B000DFFE0446FFF7DCFE064601220821284631
:1012C00000F0B9FD46EA042070BD0000000C0240A9
:1012D00078B50024009490F83C20012A19D001220E
:1012E00080F83C200A6807230568092A13D9EE68AC
:1012F0000A3A02EB420293409E43EE600B788A6802
:101300000A3B03EB43039A400368DD682A43DA6033
:1013100010E0022078BD2E6902EB420293409E430A
:101320002E610B788A6803EB43039A4003681D69BA
:101330002A431A614A681F23072A13D205686E6B75
:10134000521E02EB820293409E436E630B790A8821
:101350005B1E92B203EB83039A4003685D6B2A43E2
:101360005A6327E005680D2A12D22E6BD21F02EBBA
:10137000820293409E432E630B790A88DB1F92B250
:1013800003EB83039A4003681D6B2A431A6311E041
:10139000EE6A0D3A02EB820293409E43EE620B79B5
:1013A0000A880D3B92B203EB83039A400368DD6A1F
:1013B0002A43DA62164B0568144A9D4206D10D682D
:1013C000122D03D1556845F48005556005689D428E
:1013D00018D10B68102B01D0112B13D1536843F493
:1013E00000035360096810290CD10A490A4A0968A8
:1013F000B1FBF2F101EB8101490000E0491E0091CF
:101400000029FBD180F83C40002078BD002301403A
:10141000002001402C00002040420F007047704720
:10142000704770B504004FF0000503D0206C002613
:1014300010B107E0012070BD204600F01DF8666481
:1014400084F83C60206CC00610D4206C20F48850D6
:1014500040F0020020642046FFF7CEFC6664206C5A
:1014600020F0020040F00100206400E0012584F833
:101470003C60284670BD000070B586B00646142159
:101480006846FEF7F8FE1D493068884233D11C4893
:101490000025016841F480710160006800F48070EB
:1014A000059017481438016841F001010160006897
:1014B000694600F001000590012000900320CDE96D
:1014C0000105104800F0BAFB104C0F48C4E90005B4
:1014D0000015A560C4E90350400060618000C4E9C4
:1014E000060525622046656200F0F4FA08B1FFF7B0
:1014F000CFFEB463A66306B070BD000000200140BB
:10150000443802400000024010640240B0580020FD
:1015100018B50021009190F83C20012A07D0012243
:1015200080F83C2002689368DB0702D011E00220BB
:1015300018BD936843F0010393602E4A2E4B126846
:10154000B2FBF3F202EB420200E0521E0092002ACC
:10155000FBD102689368DB0742D0036C40F2016460
:10156000A34343F48073036453685B0505D5036CA0
:1015700023F4005343F480530364036CDB0404D569
:10158000436C23F00603436400E0416480F83C10A0
:101590001A496FF02203136049680068CA061849A7
:1015A00006D0884224D1816811F0405F13D01FE03B
:1015B0008842F8D0134A904203D1D1F80423D206CE
:1015C000F1D0114A904213D1D1F8041301F01F0158
:1015D0001029E8D30CE0816841F08041816007E088
:1015E000016C41F010010164416C41F00101416462
:1015F000002018BD2C00002040420F0000230140B5
:10160000002001400021014000220140F8B50E46B3
:1016100000210446009190F83C0013460A46012838
:1016200007D0012084F83C0020688568ED0702D0CF
:1016300011E00220F8BD856845F00105856040484D
:10164000404D0068B0FBF5F000EB400000E0401EAC
:1016500000900028FBD120688568ED0503D58568DA
:1016600025F48075856020688568ED075DD0226C63
:1016700040F20165AA4342F480722264406840054A
:1016800005D5206C20F4005040F480502064206C7C
:10169000C00404D5606C20F00600606400E0616462
:1016A00084F83C10A16B2948274DC863A16B2848DA
:1016B0000864A16B2748C86421686FF022000860A5
:1016C0002068416841F0806141602068816841F490
:1016D00080718160216832464C31A06B00F064FA61
:1016E000024668681C49C006206806D0884224D19A
:1016F000816811F0405F13D01FE08842F8D0174B8B
:10170000984203D1D1F80433DB06F1D0144B984250
:1017100013D1D1F8041301F01F011029E8D30CE014
:10172000816841F08041816007E0206C40F010004A
:101730002064606C40F0010060641046F8BD000059
:101740002C00002040420F0000230140690D0008DA
:10175000ED0D0008D70D00080020014000210140D8
:101760000022014070B500B3F9B14379012B1ED0BE
:10177000012646710223037105682C6802F01003EC
:1017800040F6FE729A409443D1E900210A439A4000
:1017900022432A6001680A68C0249C40A2430A6070
:1017A000067100214171084670BD012070BD022004
:1017B00070BD70B5040003D02079002510B105E09C
:1017C000012070BD6571204600F008F802202071EC
:1017D000256101202071002070BD000070B586B029
:1017E000054614216846FEF746FD1F4928688842D1
:1017F00037D11E480026016841F0005101600068A1
:1018000000F00050059019481038016841F00101BE
:1018100001600068694600F001000590102000900A
:101820000320CDE90106124800F008FA124C1148D5
:1018300020604FF0606060604020C4E90206000153
:101840002061400060618000A0614011C4E907068A
:101850002046666200F03EF908B1FFF719FDAC6062
:10186000A56306B070BD000000740040403802401F
:101870000000024088600240245900202DE9F04118
:101880000446876D00F0DCFA064694F83500002522
:10189000022806D08020606584F834500120BDE81D
:1018A000F0812068016821F016010160206841691B
:1018B00021F080014161206C08B9A06C20B1206842
:1018C000016821F0080101602068016821F0010130
:1018D00001600CE000F0B4FA801B052807D9202035
:1018E0006065032084F8350084F83450D7E7206819
:1018F0000068C007EED194F85C103F208840B860C3
:10190000012084F8350084F834500020C7E790F8AF
:101910003510022903D0802141650120704705213F
:1019200080F835100068016821F001010160002095
:10193000704700002DE9F84304464FF00009CDF848
:10194000009063484FF41651A56D0068B0FBF1F7A5
:101950002E6894F85C10082000FA01F131420FD093
:1019600021680A6852070BD50A6822F004020A604F
:1019700094F85C108840A860606D40F001006065DC
:1019800094F85C104FF0010808FA01F0304208D0DA
:1019900021684969090604D5A860606D40F002001D
:1019A000606594F85C1004208840304208D02168BB
:1019B0000968890704D5A860606D40F0040060657F
:1019C00094F85C1010208840304218D021680968D3
:1019D000090714D5A86020680168490304D5006888
:1019E000000308D5A16C07E00168C90503D40168AC
:1019F00021F008010160216C09B12046884794F864
:101A00005C1020208840304231D021680968C90626
:101A10002DD5A86094F8350005282068016806D007
:101A2000490347D5006800031DD4616C1CE021F018
:101A3000160101602068416921F080014161206C3C
:101A400008B9A06C20B12068016821F0080101608C
:101A500094F85C103F208840A86084F8358084F8B2
:101A60003490216D1FE0E16B09B120468847606D1D
:101A700000282BD0606DC00714D0052084F83500F5
:101A80002068016821F0010101600098401C00906D
:101A9000B84203D820680068C007F6D184F83580C2
:101AA00084F83490E16C002910D001B02046BDE8E4
:101AB000F04308470168C905D5D4016821F0100139
:101AC000016084F8358084F83490CCE7BDE8F88371
:101AD0002C0000202DE9F041044600F0B1F9064643
:101AE0005CB1022084F83500002584F83450206869
:101AF000016821F0010101600DE00120BDE8F081E5
:101B000000F09EF9801B052805D920206065032080
:101B100084F83500F2E720680068C007F0D1226839
:101B2000116820480140D4E901031843D4E9033681
:101B30003343184363691843A3691843E36918439F
:101B4000236A18430843616A042903D1D4E90B13BB
:101B500019430843106020684069666A20F0070155
:101B600030460E43012704280CD1A06A0643E06AE0
:101B700040B12046FFF738FB20B14020606584F873
:101B80003570BAE7206846612046FFF719FB94F8E4
:101B90005C203F2191408160656584F835700020AC
:101BA000ACE700003F8010F02DE9F0410446866D5F
:101BB00090F83400002501280DD0012084F834006D
:101BC00094F835700020012F07D084F834000225E6
:101BD0002846BDE8F0810220FBE7022784F8357033
:101BE00060652046FFF72AFB94F85C103F20884090
:101BF000B0602068016841F016010160206C20B1DE
:101C00002068016841F0080101602068016841F026
:101C100001010160DCE7000070B5044600F010F936
:101C20000546601C02D004480078044400F008F91E
:101C3000401BA042FAD370BD200000202DE9F84FD0
:101C4000DFF8BCA10022012503264FF00F090AF19D
:101C5000040BAAF1040E00BF0B6805FA02F423403E
:101C6000A34270D10F7907F00307012F01D0022F93
:101C700016D187684FEA420806FA08FC27EA0C07E3
:101C8000D1F80CC00CFA08FC4CEA070CC0F808C0EC
:101C90004768A7430C79C4F3001494403C43446064
:101CA0000C79E443A4070AD0C4684FEA420C06FA50
:101CB0000CF7BC438F6807FA0CF72743C7600C7911
:101CC00004F00304022C12D1D40800EB840CDCF8DD
:101CD00020405707FF0E09FA07F824EA0804D1F854
:101CE000108008FA07F848EA0408CCF82080046855
:101CF0004FEA420C06FA0CF7BC430F7907F00307D2
:101D000007FA0CF7274307604C6814F4403F70D083
:101D10003C4C276847F480472760246822F003077B
:101D200004F480440094384C07EB040CDCF80848B9
:101D300097074FEA177809FA08F7BC43334FB842C0
:101D400002D1002724E054E0314FB84201D10127ED
:101D50001EE0304FB84201D1022719E02E4FB842A1
:101D600001D1032714E02D4FB84201D104270FE021
:101D70002B4FB84201D105270AE02A4FB84201D1C2
:101D8000062705E0284FB84201D1072700E00827C1
:101D900007FA08F72743CCF80878DAF800405746E6
:101DA000D1F804C09C435FEACC2C00D51C433C60B6
:101DB000DBF800405F46D1F804C09C435FEA8C2CFE
:101DC00000D51C433C60DEF800407746D1F804C0E3
:101DD0009C435FEA8C3C00D51C433C60084F083FA5
:101DE0003C68D1F804C09C435FEACC3C00D51C435E
:101DF0003C60521C102AFFF42FAFBDE8F88F0000A2
:101E0000083C0140443802400030014000000240DC
:101E10000004024000080240000C02400010024092
:101E20000014024000180240001C024000690840F3
:101E300000D0012070470AB1816170470904FBE7B7
:101E40000148806870470000200000200248816837
:101E50000278114481607047200000200B4810B5C3
:101E6000016841F400710160016841F48061016022
:101E7000016841F480710160032000F06FF80F20C9
:101E800000F006F800F024F8002010BD003C0240ED
:101E900070B50D4D04464FF47A712878B1FBF0F01F
:101EA0000A490968B1FBF0F000F00CFB48B9102CAE
:101EB00007D200222146501E00F030F800206C604E
:101EC00070BD012070BD0000200000202C0000200B
:101ED0000A4808B5016841F480410160006800F4D7
:101EE000804000900548001F016841F0805101606A
:101EF000006800F08050009008BD000044380240A7
:101F0000002809DB00F01F020121914040098000F8
:101F100000F1E020C0F8001170470000F0B40E4B53
:101F20001B680C46C3F30223C3F10705042D00D937
:101F30000425191D072901D2002300E0DB1E01261C
:101F400006FA05F1491E214099409E40761E164032
:101F50003143F0BC01F0E6BC0CED00E0064900F0B6
:101F6000070208684FF6FF03184040EA0220034AC0
:101F700010430860704700000CED00E00000FA0517
:101F80002DE9F0470E46050065D0DFF81481D8F83A
:101F90000000F7B200F00700B04207D288F80070E6
:101FA000D8F8000000F00700B04254D128683D4C3A
:101FB000810712D5400703D5206840F4E050206027
:101FC0002878000703D5206840F46040206020682E
:101FD000A96820F0F000084320602878C0072DD0C1
:101FE000304968680839012812D0022813D0032824
:101FF00011D00968890700292DDA216821F0030131
:1020000001432160FFF71CFF814641F2883A0EE050
:1020100009688903EFE709688901ECE7FFF710FF1A
:10202000A0EB0901514502D90320BDE8F0872068E3
:10203000696800F00C00B0EB810FEFD1D8F8001008
:10204000404601F00701B14207D90770006800F06F
:102050000700B04201D00120E7E72878400705D506
:102060002068E96820F4E0500843206028780007E1
:1020700006D52068296920F4604040EAC10020604C
:1020800000F038F82168084AC1F30311515CC840D8
:102090000649086006480068FFF7FAFE0020C4E71A
:1020A000003C024008380240145600082C00002072
:1020B000240000200448054900680968044AC1F367
:1020C0008221515CC84070472C0000200838024033
:1020D000245600080448054900680968044AC1F309
:1020E0004231515CC84070472C0000200838024043
:1020F00024560008154810B5006810F00C0214486A
:1021000013D01449042A0FD0082A0ED10F4C241FD3
:102110002268236802F03F025B0207D52068C0F303
:102120008810A0FB010106E0084610BD2168C1F33C
:102130008811A1FB00010023FEF744F82168C1F3D8
:102140000141491C4900B0FBF1F010BD08380240C4
:102150000024F40040787D012DE9F84F04006ED092
:102160002078DFF84C93C007A9F104054AD009F1A3
:1021700004000168C1F38101012908D00068C0F39F
:10218000810002280AD1D9F80000400206D528684B
:10219000800337D560680028E1D033E06068B0F58F
:1021A000803F10D0B0F5A02F286810D020F48030E8
:1021B0002860286820F4802028606068A8B1FFF7B4
:1021C0003FFE06460DE0286840F48030F4E740F416
:1021D00080202860F7E700BFFFF732FE801B6428ED
:1021E00073D828688003F7D50CE0FFF729FE064670
:1021F00005E000BFFFF724FE801B6428F0D82868A4
:102200008003F7D42078DFF8AC8280074FF0000A13
:102210003ED5A748001D016811F00C0F08D00068DA
:10222000C0F3810002280BD1D9F80000400207D486
:102230002868800716D5E068012800D112E033E154
:10224000E068B8B10120C8F80000FFF7F9FD0646C4
:1022500005E000BFFFF7F4FD801B0228C0D8286806
:102260008007F7D52868216920F0F80040EAC1000E
:1022700028600DE0C8F800A0FFF7E2FD064604E084
:10228000FFF7DEFD801B02281FD828688007F7D4DF
:102290002078000722D5864F87486169703771B171
:1022A00001210160FFF7CCFD064604E0FFF7C8FD01
:1022B000801B022809D838688007F7D50EE0C0F8DF
:1022C00000A0FFF7BDFD064605E082E0FFF7B8FD80
:1022D000801B02287DD838688007F7D42078400713
:1022E00068D5DFF8CCB100270BF13C0BDBF8000020
:1022F000C0000BD4DBF8001041F08051CBF8001087
:10230000DBF80000012700F0805000906B4E306831
:10231000C00510D4306840F480703060FFF790FD45
:10232000009005E0FFF78CFD0099401A022850D874
:102330003068C005F6D55E4EA0686C3601280FD017
:102340000528306810D020F001003060306820F09F
:1023500004003060A068B8B1FFF772FD00900FE094
:10236000306840F00100F4E740F004003060F7E727
:10237000FFF766FD0099411A41F28830814266D824
:1023800030688007F4D50EE0FFF75AFD009007E0B3
:10239000FFF756FD0099411A41F28830814256D824
:1023A00030688007F4D42FB1DBF8001021F08051A1
:1023B000CBF80010A069C8B33D49091D0968C1F3F5
:1023C000810102294AD00228504607D0C8F860008F
:1023D00000E03CE0FFF734FD04463BE04746C8F828
:1023E0006000FFF72DFD064605E000BFFFF728FD62
:1023F000801B02282BD828688001F7D4D4E9070174
:102400000843A16A2E4A490802EB0141626A41EA87
:102410008211084394F82C1040EA0161C9F80010B9
:1024200001203866FFF70CFD044606E03EE000BFE1
:10243000FFF706FD001B022809D828688001F7D5A0
:1024400034E000BFFFF7FCFC001B022802D9032088
:10245000BDE8F88F28688001F4D427E00128F7D080
:10246000D9F80000E26900F4800191421CD1226A8F
:1024700000F03F01914217D147F6C071626A0140F6
:10248000B1EB821F10D1A26A4FF0FF3300F440314C
:1024900003EB5202B1EB024F06D194F82C1000F07E
:1024A0007060B0EB016F01D00120D1E70020CFE7D1
:1024B0000438024000004742800E4742007000404E
:1024C0000000FFFF10B5401EB0F1807F01D3012056
:1024D00010BD4FF0E02460610F21601701F022FA77
:1024E0000020A06107202061002010BD70477047C8
:1024F00070B590F83C20012A32D0012480F83C408D
:10250000022280F83D2003685A689D6822F0700618
:102510000A6832435A60134B02689A4214D0B2F1EF
:10252000804F11D0104B9A420ED0104B9A420BD0D4
:102530000F4B9A4208D00F4B9A4205D00E4B9A424D
:1025400002D00E4B9A4204D1496825F0800319430A
:10255000916080F83D40002180F83C10084670BD35
:10256000022070BD0000014000040040000800404F
:10257000000C0040000401400040014000180040F1
:1025800010B5040003D094F83D0010B107E001201D
:1025900010BD002084F83C00204600F01FF8022007
:1025A00084F83D00211D206800F062FF012084F8BE
:1025B000460084F83E0084F83F0084F8400084F828
:1025C000410084F8420084F8430084F8440084F811
:1025D000450084F83D00002010BD000008B50168EA
:1025E0001948B1F1804F0BD0184A914217D10168B8
:1025F00041F002010160006800F00200009008BD97
:10260000016841F0010101600068002200F0010052
:10261000009011461C20FFF781FC1C2010E00C4AA2
:102620009142ECD1016841F0040101600068002290
:1026300000F00400009011461E20FFF76FFC1E20E2
:10264000BDE80840FFF75CBC403802400004004091
:102650000008004090F83D10012901D0012070478A
:10266000022180F83D1000681149884214D0B0F171
:10267000804F11D00F4988420ED00F4988420BD0AD
:102680000E49884208D00E49884205D00D4988423B
:1026900002D00D49884204D1816801F00701062962
:1026A00003D0016841F00101016000207047000083
:1026B000000001400004004000080040000C004001
:1026C00000040140004001400018004070B504467D
:1026D00090F83C000025012817D0012684F83C60C2
:1026E000022084F83D002068826822F0770222F4FC
:1026F0007F4282600868502838D00DDC20284FD0F7
:1027000005DC90B3102811D14AE0022070BD3028BA
:1027100046D040280AD13BE060282FD070280DD049
:10272000B0F5805F03D0B0F5005F12D0012584F8CA
:102730003D60002084F83C00284670BDCB68D1E99C
:102740000121206800F0FCFE2068816841F07701DB
:1027500009E0CB68D1E90121206800F0F1FE206892
:10276000816841F480418160E1E719E0CA68496805
:10277000206800F0F7FE5021206806E0CA6849682A
:10278000206800F000FF6021206800F0E3FECEE743
:10279000CA684968206800F0E5FE40212068F4E737
:1027A000226801461046F0E770472DE9F0410446E3
:1027B0000068C66805694FF00007A90713D5B1077F
:1027C00011D5F91E016101202077206880698007FA
:1027D000204602D0FFF7E8FF04E000F07EF8204634
:1027E00000F07CF82777680716D5700714D52168A4
:1027F0006FF004000861022020772068806910F4DF
:10280000407F204602D0FFF7CFFF04E000F065F8DC
:10281000204600F063F82777280715D5300713D531
:1028200021686FF008000861042020772068C069E3
:102830008007204602D0FFF7B7FF04E000F04DF814
:10284000204600F04BF82777E80616D5F00614D599
:1028500021686FF010000861082020772068C069A7
:1028600010F4407F204602D0FFF79EFF04E000F006
:1028700034F8204600F032F82777E80708D0F00750
:1028800006D021686FF001000861204600F027F8AB
:10289000280608D5300606D521686FF0800008614B
:1028A0002046FFF723FE680608D5700606D5216886
:1028B0006FF040000861204600F012F8A8060AD523
:1028C000B00608D521686FF0200008612046BDE8F9
:1028D000F041FFF70CBEBDE8F081704770477047CC
:1028E0007047704770470000F8B5016804460868F3
:1028F000CA684B6910F00F0F4FF0000559D003F074
:10290000010602F49077374365D0C10705D0D105A1
:1029100003D5616C41F001016164410705D5D90718
:1029200003D0616C41F002016164810705D5D907CC
:1029300003D0616C41F004016164010707D502F026
:102940002001314303D0616C41F008016164616C86
:1029500000293AD0800604D5900602D5204600F022
:1029600052FE20684069616CC0F38010090700D4F2
:1029700060B3204600F020FE20684069400621D563
:102980002068143050E8001F21F0400140E8001298
:10299000002AF5D1E06BA8B172490165E06BFEF742
:1029A000B6FF002811D0E06B016D01B0BDE8F0402A
:1029B000084783060FD593060DD52046BDE8F8409D
:1029C00000F021BE2046FFF78DFFF8BD2046FFF73F
:1029D00089FF6564F8BD266B2023012E7ED1C606D3
:1029E0007CD5D6067AD508684868009048694FF0CB
:1029F000020640064DD5E26B106840684FF48077C0
:102A00000004000C3AD0A18D814237D9E085D0690D
:102A1000B8422DD020680C3050E8001F21F480719E
:102A200040E80012002AF5D12068143050E8001F59
:102A300021F0010140E80012002AF5D1206814308D
:102A400050E8001F21F0400140E80012002AF5D1B3
:102A500084F84230256320680C3050E8001F21F0D4
:102A6000100140E80012002AF5D1E06BFEF706FFE6
:102A70006663A08DE18D401A81B206E0A18D81428E
:102A8000A8D1D069B842A5D166632046FFF729FFD7
:102A9000F8BDA08DE18D401A81B2E08D0028F7D0FD
:102AA0000029F5D020680C3050E8002F22F49072F5
:102AB00040E80027002FF5D12068143050E8002F9F
:102AC00022F0010240E80027002FF5D184F84230BF
:102AD000256320680C3050E8002F00E006E022F06B
:102AE000100240E80023002BF3D1CDE705062BD5DB
:102AF000150629D594F841002128C9D1A068B0F560
:102B0000805F01D12069B0B1206A411C2162216837
:102B100000784860E08C401E0004000CE084B7D1CF
:102B20002068C16821F08001C1602068C16841F05F
:102B30004001C160F8BD206A0088C0F30800486009
:102B4000206A801C2062E5E74006F3D55006F1D5E7
:102B5000CA68204622F04002CA6084F8413000F082
:102B60009DF9F8BDAB35000870B5040004D094F8A9
:102B70004100002510B106E0012070BD84F84050EE
:102B8000204600F023F8242084F841002068C16822
:102B900021F40051C160204600F096FD20680169D3
:102BA00021F4904101612068416921F02A014161CD
:102BB0002068C16841F40051C1606564202084F838
:102BC000410084F842006563002070BDF0B587B015
:102BD000044614216846FDF74EFB2A4F2368002265
:102BE00029490224032507262848BB4221D1264B28
:102BF00014331F6847F010071F601B6803F01003B1
:102C000005930B6843F001030B60096802AB01F008
:102C1000010105916902CDE9001483E86400694669
:102C2000FFF70CF8002211462520FFF777F9252041
:102C300023E0174FBB4222D1134B10331F6847F4D8
:102C400000371F601B6803F4003305930B6843F0E3
:102C500001030B60096802AB01F0010105910C2131
:102C6000CDE9001483E864006946FEF7E7FF00221F
:102C700011462620FFF752F92620FFF741F907B049
:102C8000F0BD00000010014030380240000002405A
:102C90000044004090F84230202B01D002207047C1
:102CA00021B11AB10023036300F094BD01207047E5
:102CB0002DE9F04700683D4900256E1EDFF8F090D1
:102CC0004FF00108884232D13A483C4C3A4A0178E8
:102CD00020780D290AD00A2908D03F2802D21154A1
:102CE000401C207001223349354834E00028F9D0D7
:102CF000155434A73846FDF7C9FA82B2334639462F
:102D00002F4800F07BF8334622782B492C4800F0FE
:102D100075F8334602222FA1294800F06FF84021B0
:102D20002548C9F80480FDF7A6FA2570DAE72A4994
:102D3000884238D129482B4C294F017820780D2919
:102D40000DD00A290BD03F2802D23954401C2070E4
:102D5000224925480122BDE8F047FFF79BBF002824
:102D6000F6D002F037FC20783D5420A73846FDF716
:102D70008DFA82B233463946114800F03FF83346A7
:102D8000402217490E4800F039F83346022211A1BB
:102D90000B4800F033F840211148C9F80480FDF7D2
:102DA0006AFA2570D4E7BDE8F08700000010014002
:102DB00040000020040000205000002000000020FF
:102DC0005C5A002055534152543120524543563AE3
:102DD000200000000D0A0000004400400500002013
:102DE0009000002001000020A45A002055534152B9
:102DF000543220524543563A200000002DE9F84352
:102E0000044690F84100984616460D46202802D008
:102E10000220BDE8F88385B17EB1002060642120E6
:102E200084F84100FFF70CF8A6848146E684A06888
:102E30002027B0F5805F02D003E00120E9E7206998
:102E400010B12E4600250EE000260CE08021204621
:102E500000F0DBFCA8B9C6B116F8010B2168486088
:102E6000E08C401EE084E08C4B464FF00002CDF831
:102E700000800028EAD14FF04001204600F0C5FC58
:102E800040B184F841700320C3E735F8020BC0F36A
:102E90000800E3E784F841700020BAE77047FEE7D6
:102EA00010B50C4C002204212046FEF7C4FF02207E
:102EB00001F026FD012204212046FEF7BCFF04207C
:102EC00001F01EFD20460022BDE810400421FEF75F
:102ED000B2BF00000010024070B5204C0022082153
:102EE0002046FEF7A8FF012220212046FEF7A3FF7F
:102EF0001B4D002202212846FEF79DFF00220421DF
:102F00002846FEF798FF002208212846FEF793FF87
:102F1000002210212846FEF78EFF0022402128467D
:102F2000FEF789FF002201212846FEF784FF0022D8
:102F30004FF400510B48FEF77EFF0022012120468E
:102F4000FEF779FF002202212046FEF774FF20469B
:102F5000BDE8704000220421FEF76DBF001402405E
:102F60000010024000080240FEF7DCB87FB50024E4
:102F700016480094019402941349039401604FF49D
:102F80008031C0E901140461047680F8204009030F
:102F9000C1620125C5614FF0C061C460816280F8E3
:102FA00030404561FEF73DFA08B1FEF771F90220A5
:102FB0000094CDE9015069460448FEF789F90028DC
:102FC00001D0FEF765F97FBD002001406858002060
:102FD0001CB500200D49009001900B480860084680
:102FE000FEF7E7FB08B1FEF753F92420009002201A
:102FF0000190002269460548FEF7B4FB002801D085
:10300000FEF746F91CBD0000007400401059002076
:10301000114808B5016841F400110160016801F42C
:1030200000110091016841F48001016000680022F4
:1030300000F48000009011461020FEF76FFF102072
:10304000FEF75EFF002211463820FEF767FFBDE85D
:1030500008403820FEF754BF303802402DE9F04FC9
:1030600087B014216846FDF706F95B480024016823
:1030700041F010010160016801F010010591016843
:1030800041F004010160016801F00401059101684B
:1030900041F020010160016801F020010591016803
:1030A00041F080010160016801F080010591016833
:1030B00041F001010160016801F001010591016821
:1030C00041F008010160016801F008010591016803
:1030D00041F0020101600068404F00F002000590DD
:1030E00000225F213846FEF7A6FEDFF8F4900022AA
:1030F0004FF420514846FEF79EFEDFF8E88000229C
:103100001F214046FEF797FE012245F2200140466E
:10311000FEF791FEDFF8D0A04FF4004600223146C2
:103120005046FEF788FEDFF8C4B000223C21584626
:10313000FEF781FE002210212D48FEF77CFE5F2065
:1031400000900125CDE90154694638460394FEF705
:1031500075FD68030090CDE9015469464846039423
:10316000FEF76CFD3F200090CDE9015469464046D2
:103170000394FEF763FD4FF4A040CDE90005CDE9CF
:10318000025469464046FEF759FDCDE90065022626
:10319000CDE9024669465046FEF750FDE802CDE90A
:1031A0000005CDE9024669464846FEF747FD3C204A
:1031B000CDE90005CDE9024669465846FEF73EFDD9
:1031C00010200090CDE90154694609480394FEF7A8
:1031D00035FD07B0BDE8F08F3038024000100240E6
:1031E000000802400014024000000240000C0240AF
:1031F0000004024010B586B00024174800940194E2
:103200000294039404944FF080410594C0E90014A3
:1032100040F24F11C0E90241802104618161FFF752
:10322000AFF908B1FEF734F84FF4805000906946CA
:103230000948FFF74BFA08B1FEF72AF82020CDE93C
:10324000040404A90448FFF753F9002801D0FEF74D
:103250001FF806B010BD00008459002010B586B0DC
:103260000024174800940194029403940494134991
:103270000594C0E900145121C0E902418021046194
:103280008161FFF77DF908B1FEF702F84FF4805035
:10329000009069460A48FFF719FA08B1FDF7F8FFF0
:1032A0002020CDE9040404A90548FFF721F90028EE
:1032B00001D0FDF7EDFF06B010BD00000004004096
:1032C000CC59002010B586B0002417480094019412
:1032D00002940394049413490594016042F2CF01CF
:1032E000C0E9011440F2E731C0E903148461FFF73B
:1032F00047F908B1FDF7CCFF4FF4805000906946C4
:103300000948FFF7E3F908B1FDF7C2FF049404A9E7
:1033100005480594FFF7ECF8002801D0FDF7B8FF49
:1033200006B010BD00080040145A00200C4810B52B
:103330000A4901604FF4E1314160002181600C22B3
:10334000C160C0E904128161C161FFF70DFC002872
:1033500003D0BDE81040FDF79BBF10BD0010014039
:103360005C5A00200C4810B50A4901604FF4E13165
:103370004160002181600C22C160C0E904128161BA
:10338000C161FFF7F1FB002803D0BDE81040FDF755
:103390007FBF10BD00440040A45A0020FEE7FEE7B6
:1033A0007047704701460120FDF7DABEFDF7D8BE31
:1033B000FEF74CBD30B593B030216846FCF75BFF9B
:1033C00014210CA8FCF757FF1D480025016841F0A7
:1033D00080510160006800F0805011901948016828
:1033E00041F4804101600068022400F480401190A3
:1033F0000120039010200490009406940820CDE949
:103400000750A820CDE9090404200B906846FEF778
:10341000A3FE08B172B6FEE70CA90F2081E83100C7
:103420004FF4A0500F904FF48050109005210CA83D
:10343000FEF7A6FD002801D072B6FEE713B030BD3E
:1034400040380240007000400248016841F47001B9
:103450000160704788ED00E00148FFF7A6B9000061
:10346000845900200148FFF7A0B90000145A002039
:10347000F0B50268274B284D284E294F294C4FF0B4
:10348000804C984209D0604507D0A84205D0B04290
:1034900003D0B84201D0A04204D122F0700E4A6895
:1034A00042EA0E0298421BD0604519D0A84217D0BC
:1034B000B04215D0B84213D0A04211D01A4DA84244
:1034C0000ED01A4DA8420BD0194DA84208D0194D64
:1034D000A84205D0184DA84202D0184DA84203D1E9
:1034E00022F44075CA682A434D6922F080022A43BB
:1034F0008D68C5620D688562984201D0A04201D1F5
:1035000009690163016841F0040101600121416121
:103510000260F0BD000001400004004000080040CF
:10352000000C004000040140004001400044014004
:103530000048014000180040001C004000200040EE
:1035400010B5846842EA032224F47F440A432243EC
:10355000826010BD826822F070020A4342F00701C7
:103560008160704710B5036A046A24F001040462A4
:10357000846924F0F00444EA021423F00A020A43A6
:103580008461026210BD10B5036A046A24F010045D
:103590000462846923F0A00324F4704444EA0232F4
:1035A00043EA01118261016210BD10B5806B0021F8
:1035B000C185FFF797F910BD01680C3151E8002F64
:1035C00022F4907241E80023002BF5D101681431F8
:1035D00051E8002F22F0010241E80023002BF5D131
:1035E000016B012909D101680C3151E8002F22F04B
:1035F000100241E80023002BF5D1202180F8421071
:1036000000210163704708B590F84210222901D0CB
:10361000022008BD82684FF480539A4201D10169AB
:1036200021B1816A9A421BD04AB10AE00268816ADC
:103630005268C2F308020A80816A891C08E00269A4
:1036400072B10268526802F07F020A70816A491CF6
:103650008162C18D491E0904090CC18503D01BE09C
:1036600002685268F1E70168CA6822F02002CA6065
:103670000168CA6822F48072CA6001684A6922F04F
:1036800001024A61202180F8421000214163026B4F
:10369000012A03D0FFF70CFB002008BD016301687D
:1036A0000C3151E8002F22F0100241E80023002BDA
:1036B000F5D101680A68D20602D50A684968009106
:1036C000818DFFF70EF9E7E770B5044600680169E0
:1036D000E26821F44051114301612169A068E26967
:1036E00008436169114308432168CA6849F20C63C1
:1036F0009A430243CA6020684169A26921F440717B
:103700001143416131492068884202D030498842E2
:1037100002D1FEF7DFFC01E0FEF7CCFCE2690023FA
:10372000192164253226B2F5004F626828D0A0FB2B
:103730000101930F9200FCF745FD0146B0FBF5F047
:103740006FF01802504301EB800006EB0010B0FB55
:10375000F5F000F0F002B1FBF5F002EB0012B1FB66
:10376000F5F06FF01803584301EB800006EB0010F2
:10377000B0FBF5F000F00F0021681044886070BDC8
:10378000A0FB010192185B41FCF71CFD0146B0FB58
:10379000F5F00201B1FBF5F06FF01803584301EBAF
:1037A000800006EBC000B0FBF5F000F0F80002EB83
:1037B0004002B1FBF5F0584301EB800006EBC0007E
:1037C000B0FBF5F000F00700D6E700000010014064
:1037D0000014014081628285C2850021416422215A
:1037E00080F84210016921B10168CA6842F4807210
:1037F000CA6001684A6942F001024A610068C16812
:1038000041F02001C160002070472DE9F84398463F
:1038100017460D460446089E24E0701C22D0FEF791
:103820000FFBA0EB0800B0421AD8CEB12068C168E7
:10383000490717D5802D15D0402D13D00168C943F5
:1038400009070FD401680025406800902046FFF763
:10385000B3FE0820606484F840500120BDE8F8837E
:103860000320FBE72068006835EA000004D0002050
:10387000B842D2D00020F1E70120F9E70148FFF774
:1038800033B800005C5A00200148FFF72DB8000053
:10389000A45A0020FEE708B5002140F480500091B2
:1038A000010A8DF801108DF802006A4603210620F6
:1038B000FDF736F908BD000008B500210091FCF7BE
:1038C000ACFE41EC100B0E4890ED021B51EC100BBE
:1038D00053EC112BFCF7C0FDFCF7ACFE8DF8030098
:1038E000010A8DF80210010C8DF80110000E8DF800
:1038F000000004216A460846FDF712F908BD0000E1
:10390000300000200FB4054B10B503A9044A0298FB
:1039100000F072FC10BC5DF814FB0000654C000860
:10392000480000200907090E002804DB00F1E02010
:1039300080F80014704700F00F0000F1E02080F8DC
:10394000141D7047004870474C0000200000000024
:1039500070B5D94B00242DED020B2DED108BDDE958
:103960001010984205DA20F000429A4201D809D19D
:1039700041B19DED100BBDEC108B02B0BDE8704065
:1039800000F046BBB0F5801F26DA11430BD00028AB
:1039900013DA012000F068FBBDEC108B02B0BDE82B
:1039A000704000F041BB022000F05EFB00F018FB0D
:1039B00051EC100B81F000419EE06FF035049FED5B
:1039C000C00B53EC102B9DED100B51EC100BFCF7C2
:1039D00043FDCDE91001084604EB2051C0F3130468
:1039E000B948A1F2FF31204400F4801080F07F62DA
:1039F00082F04052224301EB20559FEDB50B11920E
:103A000053EC102B9DED100B51EC100BFCF71EFD31
:103A100041EC180BA01CC0F313009FEDAFDB9FED32
:103A2000B0EBB14E7E4403286CD296ED000B51EC06
:103A3000180B53EC102BFCF729FE1DD1002D01BFF4
:103A400096ED000BBDEC108B02B070BD2846FCF764
:103A500094FF41EC180B53EC1D2BFCF7FDFC41ECE3
:103A6000190B53EC1E2B51EC180BFCF7F5FC53EC27
:103A7000192BFCF74AFC3FE09FED9D0B51EC180B16
:103A800053EC102BFCF7E8FC9FED9B1B53EC112B28
:103A9000FCF7DFFC41EC190B53EC182B51EC180B25
:103AA000FCF7DAFC53EC192BFCF7D6FC41EC190BB4
:103AB000002D04BF53EC192B51EC180B1AD02846DB
:103AC000FCF75BFF41EC1A0B53EC1D2BFCF7C4FC1D
:103AD00053EC192BFCF7BDFC53EC182BFCF7B6FC90
:103AE00041EC180B53EC1E2B51EC1A0BFCF7B4FCF9
:103AF00053EC182BFCF7AAFCBDEC108B02B041EC88
:103B0000100B70BD9FED7E0B51EC180B53EC102B7E
:103B1000FCF7FBFB41EC100B51EC180B53EC102B9A
:103B2000FCF70CFD41EC190B2846FCF726FF41EC95
:103B30001B0B53EC192B51EC190BFCF78DFC41ECD2
:103B40001A0B714853EC1A2B261851EC1A0BFCF780
:103B500083FC41EC1F0B6D48C4F1510404F5D724DC
:103B6000B0EE4F0AF0EE6F0A0321784400F0B9F985
:103B700053EC1F2B51EC100BFCF76EFC41EC1C0BB3
:103B80006348B0EE4F0AF0EE6F0A0421784400F06B
:103B9000A8F953EC1A2B51EC100BFCF75DFC3443E5
:103BA00053EC1C2BFCF7B1FB41EC1C0B002C4CDD47
:103BB0009FED510B51EC180B53EC102BFCF74CFC08
:103BC00053EC182BFCF748FC41EC1A0B55B353ECA3
:103BD0001D2B51EC1B0BFCF73FFC41EC1D0B53EC78
:103BE0001C2B51EC1A0BFCF790FB53EC192BFCF738
:103BF00033FC53EC1D2BFCF788FB53EC1A2BFCF722
:103C000028FC53EC182BFCF721FC41EC180B53EC6F
:103C10001E2B51EC1B0BFCF71FFC53EC182BFCF775
:103C200015FC69E753EC1C2B51EC1A0BFCF76DFBF0
:103C300053EC192BFCF710FC53EC1A2BFCF709FC86
:103C400053EC182BFCF705FC56E735B353EC1D2B52
:103C500051EC1B0BFCF700FC41EC1A0B53EC1C2B3A
:103C600051EC180BFCF7F2FB53EC192BFCF7F4FBAF
:103C700053EC1A2BFCF7EAFB53EC182BFCF7E6FB92
:103C800041EC180B53EC1E2B51EC1B0BFCF7E4FB27
:103C900053EC182BFCF7DAFB2EE753EC1C2B51EC02
:103CA000180BFCF7D3FB53EC192BFCF7D5FB53ECAB
:103CB000182BFCF7CEFB1FE70000F07F0000000090
:103CC0000000000000005043645F09000000000095
:103CD000000000000000F03F763C7935EF39EA3D06
:103CE0000000E0FE422EE63F6821000000000000D8
:103CF000555555555555D53F000000000000E03F93
:103D0000000000000000004086EBF9FFEA1F000001
:103D1000E01F00000000000070B5414A00252DEDB5
:103D2000020B2DED048BDDE90404944205DA24F046
:103D30000041914201D809D140B19DED040BBDEC89
:103D4000048B02B0BDE8704000F062B9B4F5801F8A
:103D500026DA08430BD0002C13DA012000F084F996
:103D6000BDEC048B02B0BDE8704000F05DB90220EC
:103D700000F07AF900F034F951EC100B81F00041B9
:103D800046E09FED290B6FF0350553EC102B9DEDB0
:103D9000040B51EC100BFCF75FFBCDE904010C4662
:103DA00005EB2450A0F2FF30C10F40F2FF32521A4F
:103DB00062F31F540844FCF7E0FD05949DED040BED
:103DC00041EC180B51EC100B00F0AEFF9FED181BEF
:103DD00053EC112BFCF740FB9FED170B41EC190B3B
:103DE00053EC102B51EC180BFCF736FB53EC192B52
:103DF000FCF78BFA9FED120B41EC190B53EC102BD7
:103E000051EC180BFCF728FB53EC192BFCF77DFA4F
:103E1000BDEC048B02B041EC100B70BD0000000043
:103E20000000F07F00000000000000000000504390
:103E30000EE526157BCBDB3F362BF111F3FE593D0A
:103E400000609F501344D33F10B52DED028BB0EEB0
:103E5000408A18EE100AFCF715FD01EE100A18EE64
:103E6000100AB7EE000A78EE410A10F0004F4FF04A
:103E70007F4010EE901A12D0B1F13F4F24BF10EEE8
:103E8000901AB0EB410F12D210EE901AB1F17C5F94
:103E90001CDD10EE901AB0EB410F17D314E0B1F116
:103EA0003F4F07D910EE901AB0EB410F02D331EE1D
:103EB000401A0BE010EE901AB1F17C5F06DB10EEB9
:103EC000901AB0EB410F01D331EE001A18EE100A30
:103ED000BDEC028B11EE101A61F31E0000EE100A09
:103EE00010BD70B504462DED028B4D1E00EBC500D4
:103EF000B0EE408AF0EE608A90ED000B35F00600DF
:103F000017D053EC182B51EC100BFCF7A5FA41EC31
:103F1000100B6D1E04EBC50090ED001B51EC100B57
:103F200053EC112BFCF7F1F941EC100B35F00600C6
:103F3000E7D1022D36D0042D1CD0062D1CBFBDECC0
:103F4000028B70BD53EC182B51EC100BFCF784FA6C
:103F500094ED0A1B53EC112BFCF7D7F953EC182BFB
:103F6000FCF77AFA94ED081B53EC112BFCF7CDF912
:103F700041EC100B53EC182B51EC100BFCF76CFAC6
:103F800094ED061B53EC112BFCF7BFF953EC182BE7
:103F9000FCF762FA94ED040B53EC102BFCF7B5F927
:103FA00041EC100B53EC182B51EC100BFCF754FAAE
:103FB00094ED021B53EC112BFCF7A7F953EC182BD3
:103FC000FCF74AFA94ED001B53EC112BFCF79DF91A
:103FD000BDEC028B41EC100B70BD00000000000036
:103FE0009FED070B10B553EC102B9FED070B51EC19
:103FF000100BFCF7A3FA41EC100B10BD0000000001
:104000000000000000000000000000000000F03F81
:1040100010B553EC102B51EC100BFCF776F941EC7A
:10402000100B10BD000000009FED050B10B553EC08
:10403000102B51EC100BFCF781FA41EC100B10BD6A
:10404000000000000000000002E008C8121F08C1C4
:10405000002AFAD170477047002001E001C1121F09
:10406000002AFBD17047000001490860704700003A
:104070004C0000202DE9FF5F82B00021DDE9043013
:10408000020DDDF840B0034318D044F61050A2F200
:10409000FF3242431514119801281FD0A5EB0B00E5
:1040A000401C5FEA000A4FF000064E4FDFF83891DF
:1040B000B046504615D5CAF1000413E0119801240A
:1040C0004AA3012801D16FEA0B010298119AC0E9B5
:1040D0000031C0E9024206B0BDE8F09FCBF100001C
:1040E000DFE704460021404A491842EB0450CDE97D
:1040F000001012E0E00707D032463B4640464946F2
:10410000FCF7AAF98046894632463B4610461946D6
:10411000FCF7A2F906460F466410002CEAD1DDE94F
:104120000401DDE90023BAF1000F06DAFCF794F987
:1041300042464B46FCF790F905E0FCF7FFF9424692
:104140004B46FCF7FBF904460E460022284BFCF7D1
:10415000B5FA03D84FF0FF30014607E00022254BA7
:1041600020463146FCF7D1F8FCF718FC102409E092
:10417000002C0ADB0A220023FCF724F8039B3032D0
:104180001A55641E50EA0102F2D1641C039AC4F16C
:1041900011031444119A012A03D0012208430DD1BE
:1041A0000AE0084304D000204FF0110B119072E791
:1041B000A3EB0B056D1E0DE05B4504DD4FF0000227
:1041C00005F1010504E003DA4FF00002A5F1010555
:1041D000002AECD002981199C0E90231C0E90045EB
:1041E00079E70000000014400000F03F30000000BC
:1041F0000000F0430000E03F2DE9FF4F95B09A46E4
:10420000884606460025EEE1252877D1002427467A
:10421000F94A0121039400E0044316F8013F203BD2
:1042200001FA03F01042F7D130782A2811D06FF04C
:104230002F033078A0F13002092A16D8039A44F0EF
:10424000020402EB820203EB42021044761C03904C
:10425000EFE758F8042B0392002A03DA504244F4A3
:104260000054039044F00204761C30782E2816D1B6
:1042700016F8010F44F004042A280DD06FF02F0225
:104280003078A0F13003092B09D807EB870302EB44
:104290004303C718761CF3E758F8047B761C307884
:1042A0006C280FD006DC4C2817D068280DD06A285F
:1042B00014D104E0742810D07A280FD10DE044F412
:1042C00000140AE044F4801401E044F440147278CD
:1042D000824202D104F58014761C761C3078662860
:1042E0000BD013DC582877D009DC002875D045287E
:1042F000F6D04628F4D047281AD193E118E0632875
:1043000035D0642879D0652812D18BE1702873D01C
:1043100008DC6728F1D069286FD06E280DD06F288F
:1043200006D1ACE073282CD0752874D0782853D0EF
:104330005246179990476D1C54E1C4F3025002286D
:1043400009D003280DD0D8F8001004280DD00D6036
:1043500008F1040846E1D8F80010EA17C1E9005254
:10436000F6E7D8F800100D80F2E70D70F0E718F8C6
:10437000041B8DF8001000208DF80100EB46012091
:1043800003E058F804BB4FF0FF3061074FF0000125
:1043900002D40DE009F101018946B9420FDA8145E5
:1043A000F8DB1BF809100029F4D108E009F101013C
:1043B00089468142FADB1BF809100029F6D10398DF
:1043C0005346A0EB090721463846179A00F080FAB9
:1043D000284400EB090507E044E008E10DE01BF884
:1043E000010B524617999047B9F10109F7D253468C
:1043F00021463846179AF2E039E00A21C4F3025206
:104400004FF0000B0091022A06D058F8040BC11798
:10441000032A09D00AE023E008F1070020F0070290
:10442000F2E80201904605E000B2C117042A01D16A
:1044300040B2C117002906DA0A460021404261EB6A
:1044400002012D2202E0220504D52B228DF8042042
:10445000012203E0E20701D02022F7E7914657E06E
:104460000A2100E010214FF0000B00910BE0102119
:104470004FF0000B44F004040827009103E00820EB
:104480004FF0000B0090C4F30252022A05D058F8F6
:10449000040B0021032A08D008E008F1070020F0EF
:1044A0000702F2E80201904603E080B2042A00D13C
:1044B000C0B24FF0000922072AD53278702A07D0FF
:1044C000DDF800C08CF0100C5CEA0B0C05D00EE09F
:1044D00040228DF80420012208E050EA010306D0B2
:1044E00030238DF804308DF8052002229146009B80
:1044F00083F0080353EA0B030AD150EA010201D109
:10450000620705D530228DF804204FF001097F1E87
:104510003278582A04D039A20C920CAA02920BE0ED
:104520003BA2F9E75B46009AFBF74CFE0C9B9B5CB9
:10453000029A521E0292137050EA0102F2D10298BE
:1045400004A9081A00F1200B600702D524F4803476
:1045500000E001275F4502DDA7EB0B0000E0002033
:1045600000EB0B01009003984944401A0390E003CC
:1045700006D453462146179A039800F0A9F905443A
:10458000002706E001A85246C05D179990476D1CB0
:104590007F1C4F45F6DBE0030CD553462146179AA6
:1045A000039800F095F9054404E03020524617992D
:1045B00090476D1C0099481E00900029F5DC08E02A
:1045C0000298029952460078491C02911799904727
:1045D0006D1CBBF10001ABF1010BF1DC5BE100F004
:1045E00065F90544761C307800287FF40DAE19B0CB
:1045F0002846BDE8F08F0000092801003031323331
:10460000343536373839616263646566000000000E
:1046100030313233343536373839414243444546F8
:1046200000000000600700D4062708F1070020F012
:104630000700F0E80223804603F0004C5FEA0C001C
:1046400001D097A009E0200501D596A005E0E0077C
:1046500001D095A001E0AFF24C001390307823F028
:10466000004365280CD006DC452809D046281DD01B
:1046700047287FD13BE0662818D067287AD136E0FA
:104680000021112F01DB112000E0781CCDE9000191
:1046900004A90CA8FFF7EEFCDDE90D010C9A4FF020
:1046A000000B07F10109109200914EE04FF000401D
:1046B0000097CDE9011004A90CA8FFF7DBFCDDE9A8
:1046C0000D020C9B0F994FF0000B91461093009236
:1046D00011B9791C00EB0109B7EB090003D4C0F153
:1046E000FF3B07F10109A9EB0700019042E0012F10
:1046F00000DA01270021112F01DD112000E03846EA
:10470000CDE9000104A90CA8FFF7B4FCDDE90D0117
:104710000C9A00914FF0000BB946109221070FD46C
:10472000009A4A4503DA914601E0A9F10109B9F17D
:10473000010F05DD109AA9F10101515C3029F4D077
:10474000B84202DA10F1040F03DA0121CDE90110B9
:1047500010E0002803DC8344A9EB000102E0411CC7
:10476000494500DD8946A0EB0B00401C01904FF04D
:1047700000400290200705D40198484502DB4FF025
:10478000FF30019000208DF84B0002980DF14B078F
:10479000B0F1004F25D002200C902B200D900298F4
:1047A00000280CDA404202902D200D9007E00A21EB
:1047B0000298FBF7B7FF3031029007F8011D0C9902
:1047C000481E0C900029F2DC02980028EFD1791ED7
:1047D0000D980870307800F0200040F0450007F890
:1047E000020D11A8C01BC01D02901398007800B1E3
:1047F000012000EB0901019801EBE07102980144EE
:104800000398401A401E0390E00306D45346214605
:10481000179A039800F05CF805441398007818B1D3
:104820005246179990476D1CE00323D55346214605
:10483000179A039800F04CF805441BE0BBF1000FF9
:1048400007DB0098584504DD1098179910F80B0005
:1048500001E0179930205246904701980BF1010B67
:10486000401E05F10105019004D12E2052461799F2
:1048700090476D1CB9F10001A9F10109DEDC05E0EA
:1048800017F8010B5246179990476D1C0299481E64
:1048900002900029F4DC53462146179A03989EE6BD
:1048A0002D0000002B000000200000002DE9F04149
:1048B000044600251E461746880404D405E0394600
:1048C0002020B0476D1C641EF9D52846BDE8F08154
:1048D0002DE9F041044600251E469046C80301D547
:1048E000302700E02027880404D505E041463846FB
:1048F000B0476D1C641EF9D52846BDE8F081000064
:104900000549064A0968B1FBF2F141430520B1FBB4
:10491000F0F0401EFDD270472C00002040420F00F6
:104920002DE9F05FADF5FA5D0121B0EE080A4FF414
:1049300079746B4600EB810212ED011AD2ED000A88
:1049400071EE200A92ED011A03EB8102491C70EE10
:10495000810AA14280EE801A82ED001AEADD90ED14
:10496000000A00F540608DED000AD0EDE50A0DF576
:1049700040600021C0EDE50AF0EE400A0846012241
:1049800040F2E63503EB820494ED001AB4EEE01A2F
:10499000F1EE10FA02DDF0EE410A1146B4EEC01A53
:1049A000F1EE10FA02D2B0EE410A1046521CAA42B1
:1049B000E8DB70EEC01AB5EE000A00240DF698721E
:1049C00021EE800A4FEA050A03EB840595ED001AF3
:1049D00002EB8405641C30EEC11A544585ED001AC3
:1049E000F2DB4FF0C70940F28F1740F2562C40F22D
:1049F0001E3BDFED750A00263346F0EE602AB0EE6E
:104A0000601AB0EE602A354634469FED703A61EE8A
:104A1000833A9FED6F3A21EE834A00BF02EB840890
:104A200098ED003AB4EEE33AF1EE10FA07DDB4EE99
:104A3000C43AF1EE10FA02D273EE222A761C641CFC
:104A40004C45EBDB4FEA070402EB840898ED003A93
:104A5000B4EEE33AF1EE10FA07DDB4EEC43AF1EE4B
:104A600010FA02D233EE011A5B1C641C6445EBDBC6
:104A70005C46D14602EB840898ED003AB4EEE33A86
:104A8000F1EE10FA07DDB4EEC43AF1EE10FA02D2FC
:104A900033EE022A6D1C641C4C45EBDB36B103EE91
:104AA000106AF8EEC33A82EEA33A01E0B0EE603A43
:104AB00033B102EE903AF8EEE23AC1EE232A01E079
:104AC000F0EE602A2DB100EE905AB8EEE01AC2EE78
:104AD000010AB4EEC03AF1EE10FA0BD2F4EEC00ABD
:104AE000F1EE10FA06DDF4EEE02AF1EE10FA01D252
:104AF000012500E00025B4EEC03AF1EE10FA0BDD1E
:104B0000F4EEC00AF1EE10FA06D2F4EEC32AF1EE8A
:104B100010FA01D2012400E00024F4EEC02AF1EEE4
:104B200010FA0BD2B4EEC03AF1EE10FA06DDF4EE54
:104B3000C00AF1EE10FA01DD012300E00023F4EEDB
:104B4000C02AF1EE10FA0BDDB4EEC03AF1EE10FA25
:104B500006D2F4EEC00AF1EE10FA01D2012200E012
:104B600000223DB11BA0FEF7CDFE4C200DF5FA5DF5
:104B7000BDE8F09F24B11DA0FEF7C4FE4820F5E774
:104B80001BB9B84206DD604504DA1EA0FEF7BAFE86
:104B90004220EBE71AB9B94206DD614504DA1FA0ED
:104BA000FEF7B0FE4E20E1E711EE900A214988425F
:104BB00004DA21A0FEF7A6FE4620D7E723A0FEF7E1
:104BC000A1FE5520D2E7000000000000CDCCCC3D76
:104BD0006666663F747970652E7478743D224C6FFA
:104BE000777061737322FFFFFF00000074797065B6
:104BF0002E7478743D22486967687061737322FF70
:104C0000FFFF0000747970652E7478743D22426154
:104C10006E647061737322FFFFFF0000747970652A
:104C20002E7478743D2242616E6473746F7022FF3B
:104C3000FFFF000000004040747970652E747874A6
:104C40003D22466C617422FFFFFF0000747970659D
:104C50002E7478743D22556E6B6E6F776E22FFFF57
:104C6000FF00000013B54FF6FF742346012269468A
:104C70000548FEF7C3F80448234601226946483038
:104C8000FEF7BCF800981CBD5C5A002070B50D46BC
:104C90002DED028BA0F1640440F65531B0EE408A50
:104CA0008C421BD2642690FBF6F106FB1100A8B9DA
:104CB00018EE100AA0F17E50B0F5000F0ED8F2EEFB
:104CC000048A28EE280AFFF7BFF808EE680A14499C
:104CD000B0EEC00A10EE100A884203DD0020BDECE1
:104CE000028B70BDB7EE000A94FBF6F438EE400A72
:104CF00020EE280AFFF7A8F8BDEEC00A04EB440135
:104D0000084A10EE100A01EBC40102EB810101EB2D
:104D1000800090ED000A012085ED000ADFE7000029
:104D20000AD7233C2C56000810B541EC100BFEF7B7
:104D30000FFE51EC100B10BD2DED0E8BFF4D82B010
:104D400000262E60FDF78AF8FEF734FBFEF786F9A1
:104D5000FEF75EF9FEF70AF9FEF780FAFEF7E6FACB
:104D6000FEF700FBFEF746FAFEF732F9FEF7AAFA65
:104D7000F348FCF7CDFB0122F249F348FDF78AFF27
:104D8000F0490122491CF148FDF784FFF048FDF786
:104D900061FCF048FDF75EFCFBF738FEFCF7C0F85D
:104DA000FF20FCF72BF900210620FEF7FFFA002177
:104DB0000720FEF7FBFA4FF480642246E649E048FC
:104DC000FCF724FC2246E449DD48FCF71FFCE048E0
:104DD000FDF740FCDFF88483E14FDFEDE29AD94C28
:104DE00040F2E6394FF47A7ADFEDDF8A9FEDDFABF0
:104DF0009FEDE0BBDFF884B39FEDE19A9FEDE1EA20
:104E00009FEDE1DBD8F800000128FBD128682A30AB
:104E100009D1012291033846FDF70DF80122110353
:104E20003846FDF708F828682B300BD100224FF4E4
:104E300080413846FCF7FFFF00224FF4805138468E
:104E4000FCF7F9FF2868401C21D1FBF7DFFD94ED4A
:104E5000040A30EE690A84ED040A10EE100AFBF72A
:104E600002FC41EC100BCAA053EC102BFEF74AFDDC
:104E70006069FBF7F8FB41EC100BCBA053EC102B57
:104E8000FEF740FDCDA02968FEF73CFD2E602868A6
:104E9000801C21D1FBF7BAFD94ED040A30EE290AFB
:104EA00084ED040A10EE100AFBF7DDFB41EC100B59
:104EB000B7A053EC102BFEF725FD6069FBF7D3FB81
:104EC00041EC100BB8A053EC102BFEF71BFDBBA060
:104ED0002968FEF717FD2E602868C01C20D1FBF75B
:104EE00095FD94ED050A30EE298A84ED058A206946
:104EF000FBF7B9FB41EC100BA5A053EC102BFEF710
:104F000001FD6069FBF7AFFB41EC100BA6A053EC71
:104F1000102BFEF7F7FCA9A02968FEF7F3FC2E6022
:104F20002868011D2AD0002824DDFBF76FFD95EDD0
:104F3000000AB8EEC00A84ED060AFDF7B1FF2E6044
:104F40002069FBF790FB41EC100B91A053EC102B68
:104F5000FEF7D8FC6069FBF786FB41EC100B92A0D2
:104F600053EC102BFEF7CEFC94A02968FEF7CAFC88
:104F7000FDF796FF2868801D22D080E1FBF746FDF3
:104F800094ED050A30EE698A84ED058A2069FBF705
:104F90006AFB41EC100B7EA053EC102BFEF7B2FC29
:104FA0006069FBF760FB41EC100B7FA053EC102B0A
:104FB000FEF7A8FC81A02968FEF7A4FC2E60D9E7C3
:104FC00040F2CD111020FBF791FDFDF769FF40F293
:104FD000D7112020FBF78AFDFDF762FF7CA029682E
:104FE000FEF790FCA16849457EDCC8200090504641
:104FF00053467C4A0321FBF703FE4FF44040FDF784
:10500000B3FFFCF747F900EE100AB8EE400A8BED4B
:10501000000A30EE490A20EE0ECA1CEE100AFBF719
:1050200022FB53EC1D2BFBF717FAFBF75FFB0CEE93
:10503000900A1CEE900AFBF716FB41EC100B6AA0DD
:1050400053EC102BFEF75EFC1CEE100AFBF70BFB7B
:1050500041EC100B69A053EC102BFEF753FC4FF4FE
:105060004440FDF781FFFCF715F900EE100AB8EE99
:10507000400A8BED000A30EE490A60EE0EEA1EEEA1
:10508000900AFBF7F0FA9FED621B53EC112BFBF734
:10509000E3F9FBF72BFB0CEE100A1CEE100AFBF7F2
:1050A000E2FA41EC100B5CA053EC102BFEF72AFC4B
:1050B0001EEE900AFBF7D7FA41EC100B5BA053EC05
:1050C000102BFEF71FFCCCEE8CEA1EEE900AFBF7CD
:1050D000CAFA41EC100BFEF71FFE9FED59CB51ECC5
:1050E000100B53EC1C2B00E01CE0FBF7B5F941EC76
:1050F000100B55A053EC102BFEF704FC1EEE900A8B
:10510000FBF7B1FA41EC100BFEF706FE53EC1C2B3B
:1051100051EC100BFBF7A0F9FBF7E8FA4F49A26836
:1051200041F822004EA0A168FEF7ECFBA0684845BC
:1051300002DC401CA0609FE09AE0000040000020DC
:1051400068580020040000205C5A0020A45A002067
:10515000CC59002084590020D000002044000020B9
:10516000001402400000C84200007A440000000021
:10517000004C80400000000000009040D03800202B
:1051800000000047890BA43926E4839ECDAAE73F9F
:10519000667265712E7478743D22252E3266487AC7
:1051A00022FFFFFF00000000766F6C2E7478743DC4
:1051B00022252E32666D5622FFFFFF007265737541
:1051C0006C742E7478743D22256422FFFFFF00006A
:1051D000726573756C742E7478743D2225640A228E
:1051E000FFFFFF00980F030056312E7478743D22A4
:1051F000252E326622FFFFFF00000000564F4C3183
:105200002E7478743D22252E326622FFFFFF0000A7
:10521000B3EA73B515FBE73F56322E7478743D221E
:10522000252E326622FFFFFF00000000564F4C3251
:105230002E7478743D22252E326622FFFFFF000077
:1052400000000000000034406174742E7478743DD6
:1052500022252E326622FFFFFF000000D0480020EA
:10526000692E7478743D22256422FFFFFF00000040
:10527000C948FFF755FB2E600120FCF7CDFC2868DC
:1052800009303AD1FBF7C2FBC4ED048A9FEDC30A93
:10529000514684ED050A1020FBF735FC6069FBF7E9
:1052A000E2F953EC1A2BFBF749F953EC1B2BFBF7F4
:1052B000D3F8FBF7BFF981B21020FBF717FCFDF71D
:1052C000EFFD2E602069FBF7CEF941EC100B53EC9B
:1052D000102BAFF24410FEF715FB6069FBF7C3F922
:1052E00041EC100B53EC102BAFF24410FEF70AFB0D
:1052F000AFF238102968FEF705FB286808303FD167
:10530000FBF784FB94ED058AD4ED040AA44988EEEA
:10531000280AFDEEE00A10EE900AFFF7B7FC94EDC4
:10532000030A20EE280A84ED050A10EE100AFBF7A6
:105330009AF941EC100B9BA053EC102BFEF7E2FA0C
:1053400088EE280A10EE100AFBF78DF941EC100BDD
:1053500099A053EC102BFEF7D5FA2069FBF783F9DF
:1053600041EC100B53EC102BAFF2DC10FEF7CAFA35
:10537000AFF2B8102968FEF7C5FAFDF791FD2E606F
:1053800028680E300CD1A0692061FBF76CF941EC64
:10539000100B53EC102BAFF20820FEF7B3FA2E607F
:1053A00028680D300CD1A0696061FBF75CF941EC15
:1053B000100B53EC102BAFF21020FEF7A3FA2E6067
:1053C000286810F10B0F7CD042F2F011C84279D15D
:1053D0004FF44040FDF7C8FDFBF75CFF00EE100AFC
:1053E000B8EE400A8BED000A30EE490A20EE0ECAF4
:1053F0001CEE100AFBF737F953EC1D2BFBF72CF8CA
:10540000FBF774F90EEE900A1EEE900AFBF72BF9EB
:1054100041EC100B53EC102BAFF23420FEF772FA74
:105420001CEE100AFBF71FF941EC100B53EC102B8C
:10543000AFF23820FEF766FA4FF44440FDF794FDD2
:10544000FBF728FF00EE100AB8EE400A8BED000AC9
:1054500030EE490A60EE0ECA1CEE900AFBF703F923
:105460001FED951B53EC112BFAF7F6FFFBF73EF9F6
:105470000CEE100A1CEE100AFBF7F5F841EC100BCD
:1054800053EC102BAFF27020FEF73CFA1CEE900AA2
:10549000FBF7E9F841EC100B53EC102BAFF2742042
:1054A000FEF730FA8EEE8C0A10EE100AFBF7DBF8EE
:1054B00041EC100BFEF730FC1FED9F1B53EC112B42
:1054C00001E01AE00CE051EC100BFAF7C5FF41ECDB
:1054D000100B53EC102BAFF29020FEF713FA2E6056
:1054E000286801460A307FF48DACAFF23030FEF709
:1054F00009FAFBF78BFA2E6084E4A66094ED040AA7
:10550000202030EE280ABCEEC00A10EE101AFBF77D
:10551000FAFA94ED040A1020BCEEC00A10EE101A3C
:10552000FBF7F1FA6069FBF79EF853EC1A2BFBF7D7
:1055300005F853EC1B2BFAF78FFF9FED24CB53ECB0
:105540001C2BFAF789FFFBF775F881B22020FBF7D7
:10555000CDFA6069FBF787F853EC1A2BFAF7EEFFE8
:1055600053EC1B2BFAF778FF53EC1C2BFAF774FF64
:10557000FBF760F881B21020FBF7B8FAFDF790FC5A
:105580002820FCF749FB84ED058AAFF2D03029686A
:10559000FEF7B8F9A3E70000D0480020E17AB7424F
:1055A0001000002061696D2E7478743D22252E3420
:1055B000666D5622FFFFFF00766F6C2E7478743D87
:1055C00022252E32665622FFFFFF0000C3F5285C1D
:1055D0008FC2ED3F38B50B49094C002009780A22EB
:1055E0006054009069462046FAF757FE0099A142A0
:1055F00004D00978002901D10349086038BD0000B2
:10560000900000200100002040000020000610163D
:105610000006101600000000000000000102030454
:105620000607080900000000010203049296CA3C24
:1056300089D2DE3C800EF33C3CA5033DB3CD0D3D4D
:10564000AFEB173DAB09223DA6272C3D1E50363D42
:105650001A6E403D158C4A3DC79DD23C75ABE73C68
:1056600024B9FC3C69E3083D406A133D17F11D3D38
:10567000EE77283DC5FE323D9D853D3D740C483D8D
:105680004B93523D5665DF3C8FC2F53C6805063DA5
:105690000534113DA2621C3DC286273D5FB5323DF7
:1056A000FCE33D3D1C08493DB936543D56655F3D20
:1056B0007845F03C1023043DE02D103D342E1C3D78
:1056C000882E283D5839343DAC39403D003A4C3D98
:1056D000D044583D2445643D7845703D344B023DEF
:1056E000AD510F3D25581C3D9E5E293D1765363D49
:1056F000906B433D0872503D81785D3DFA7E6A3D76
:105700007385773DF645823DB3CD0D3DC6F91B3D12
:1057100055302A3D685C383D7B88463D8DB4543D0C
:105720001CEB623D2F17713D42437F3DAAB7863D7A
:10573000F2D28D3D49801A3D6BF1293D8D62393D94
:10574000AED3483D4C4F583D6EC0673D9031773DDC
:105750005951833DEA098B3DB9C7923D49809A3D35
:105760000B24283D35EF383DDBC4493D04905A3DBC
:10577000AA656B3DD3307C3D3C83863DD1E88E3DB0
:10578000A453973D39B99F3D0B24A83D8599363DDB
:105790002BDE483DD1225B3DFB5C6D3DA1A17F3DF1
:1057A00023F3883D7715923D8B329B3DDE54A43D1B
:1057B0003277AD3D8599B63DBCCB453DDF89593D3E
:1057C0007E526D3D8F8D803DDE718A3D2E56943D1B
:1057D0007E3A9E3DCD1EA83D1D03B23D2EE2BB3D4F
:1057E0007EC6C53D3D9B553DCEFC6A3DF129803DC1
:1057F000BADA8A3D4486953D0D37A03D97E2AA3D31
:105800006093B53DEA3EC03DB3EFCA3D3D9BD53DFB
:105810000708663D060D7D3D03098A3D4486953D9A
:10582000C408A13D448BAC3D8508B83D058BC33D04
:10583000840DCF3DC68ADA3D450DE63D1B12773D0E
:1058400082E2873DF73B943D6C95A03DE1EEAC3D97
:105850005648B93DCBA1C53D7E00D23DF359DE3D52
:1058600068B3EA3DDD0CF73D014D843DE887913D8D
:10587000CEC29E3DB5FDAB3D9B38B93D8273C63D62
:1058800068AED33D4FE9E03D3524EE3D1C5FFB3D66
:10589000014D043E5C5A8D3DF27B9B3D889DA93DA8
:1058A0001FBFB73DB5E0C53D4B02D43DE223E23D0D
:1058B000B64AF03D4C6CFE3DF146063EBC570D3EEF
:1058C000A0A6963D63B9A53DE7C6B43DA9D9C33DA1
:1058D0002EE7D23DF0F9E13DB30CF13D1B0D003E4A
:1058E0007D96073E3F1D0F3EA0A6163E0D37A03DFC
:1058F0003A40B03D2844C03D1748D03D4451E03DBA
:105900003255F03D912C003E882E083E1E33103E4D
:105910001635183E0D37203EA20BAA3D7710BB3D31
:105920000E10CC3DA60FDD3D7B14EE3D1214FF3D65
:10593000D509083E3F8C103E0B0C193ED68B213EFC
:10594000410E2A3E5F24B43D1B2AC63DD72FD83DC9
:105950005530EA3D1136FC3DE71D073E261E103E40
:105960000421193EE223223E20242B3EFE26343E13
:105970008386BE3D6492D13D459EE43D64AFF73DD4
:10598000A25D053E93E30E3E8369183E13F2213E6D
:1059900003782B3EF4FD343E83863E3E9127C93D7D
:1059A0005249DD3DD465F13D2BC1023E6CCF0C3E2A
:1059B0004CE0163E8DEE203ECEFC2A3E0F0B353ECF
:1059C00050193F3E302A493E0612D43DA549E93DD3
:1059D0004581FE3DD3D9093EA375143ED40E1F3E2A
:1059E000A4AA293ED443343EA4DF3E3ED578493EA6
:1059F000A514543EE145DF3DDC9DF53D4DF8053EE7
:105A0000AB21113E0A4B1C3E6974273E66A0323E14
:105A1000C5C93D3E23F3483E821C543E80485F3E4C
:105A200022C3EA3DBD1D013E87DC0C3EB398183E03
:105A3000DE54243EA913303ED5CF3B3E008C473E7A
:105A40002C48533EF7065F3E22C36A3ECA89F63DA4
:105A50001C99073E52ED133EEA3E203E21932C3E18
:105A600058E7383E8E3B453EC58F513E5DE15D3E79
:105A700093356A3ECA89763EEC4C013ECD3B0E3EE4
:105A8000AE2A1B3E8F19283ED105353EB2F4413E69
:105A900093E34E3ED5CF5B3EB6BE683E97AD753EB6
:105AA0003C4E813E467C073E7008153E9A94223E4D
:105AB0006423303E8EAF3D3EB83B4B3EE3C7583E7D
:105AC0000D54663E37E0733E31B6803E467C873EDD
:105AD000F2D20D3EA3011C3E55302A3E075F383EF0
