:020000040800F2
:1000000050960020A1010008EF22000821210008DD
:10001000ED220008010A00089F26000800000000E9
:10002000000000000000000000000000F3220008B3
:10003000BD0D000800000000F1220008F5220008B4
:10004000BB010008BB010008BB010008BB010008A0
:10005000BB010008BB010008BB010008BB01000890
:10006000BB010008BB010008BB010008BB01000880
:10007000BB010008BB010008BB010008BB01000870
:10008000BB010008BB010008BB010008BB01000860
:10009000BB010008BB010008BB010008BB01000850
:1000A000BB010008BB010008BB010008BB01000840
:1000B000BB010008BB010008BB010008BB01000830
:1000C000BB010008BB010008BB010008BB01000820
:1000D000BB010008BB010008BB010008BB01000810
:1000E000BB010008BB010008BB010008BB01000800
:1000F000BB010008BB010008BB010008BB010008F0
:10010000BB010008BB010008BB010008BB010008DF
:10011000BB010008BB010008BB010008BB010008CF
:10012000E90C0008BB010008010D0008BB01000834
:10013000BB010008BB010008BB010008BB010008AF
:10014000BB010008BB010008BB010008BB0100089F
:10015000BB010008BB010008BB010008BB0100088F
:10016000BB010008BB010008BB010008BB0100087F
:10017000BB010008BB010008BB0100080000000033
:10018000BB010008BB010008DFF810D000F04AFBFB
:1001900000480047813F0008AFF3008050960020E0
:1001A0000648804706480047FEE7FEE7FEE7FEE711
:1001B000FEE7FEE7FEE7FEE7FEE7FEE7892300082D
:1001C000890100082DE9F05F0546002092469B4614
:1001D00088460646814640241BE02846414647465D
:1001E000224600F045FA53465A46C01A914110D3B0
:1001F00011461846224600F016F82D1A67EB010842
:100200004F4622460120002100F00DF817EB0009AF
:100210004E41201EA4F10104DFDC484631462A4647
:100220004346BDE8F09F202A04DB203A00FA02F1A1
:10023000002070479140C2F1200320FA03F31943D4
:1002400090407047202A06DBCB17203A41FA02F093
:1002500043EAE07306E041FA02F3D040C2F1200223
:100260009140084319467047D2B201E000F8012BD3
:10027000491EFBD270470022F6E710B513460A4626
:1002800004461946FFF7F0FF204610BD2DE9FE4F4A
:10029000804681EA0300C00F0C46009021F0004127
:1002A00023F00045B8EB0200A94105D240462146A3
:1002B00090461C460B46024623F00040104347D0B0
:1002C000270DC7F30A00C3F30A510290401A0190A8
:1002D00040286BDAC3F3130040F4801B0098924669
:1002E00020B10023D2EB030A63EB0B0B01985946B4
:1002F000C0F140025046FFF796FF06460D465046B5
:100300005946019AFFF79EFF10EB08006141002457
:1003100087EA115284EAE7731A4340D0009A62B325
:10032000019A012A4FEA075215DC001B61EB02011A
:100330004FF0004202EA0752CDE90042001C41F5AD
:10034000801132462B4600F007FA03B0BDE8F08F6B
:1003500040462146F9E7001B61EB0201001C41F514
:10036000801300185B412018A2F5001747EB03012A
:1003700040EAD570B6196D4111E06D084FEA3606B6
:1003800045EAC0754FEA0752001B61EB0201001CF1
:1003900041F5801149084FEA3000001951413246B9
:1003A0002B4603B0BDE8F04F00F0C7B9009801221A
:1003B00040000023D0EB020263EBE073009821467B
:1003C0004FEAE074B8EB000061EB0401E9E783F069
:1003D00000435BE781F0004158E72DE9FE4F81EAD9
:1003E000030404F0004421F0004100944FF0000B9E
:1003F00023F0004350EA01045ED052EA03045BD0CC
:10040000C3F30A54C1F30A552C44A4F2F334019403
:10041000A0FB0254C1F3130141F48011C3F3130391
:1004200043F4801301FB024400FB034E840A970A45
:1004300044EA815447EA8357A4FB076802958D0A72
:1004400005FB07854FEA932C04FB0C542705029DFE
:100450004FEA065847EA1637B5EB08056EEB070C6E
:10046000870E920E47EA811742EA8312A7FB020128
:10047000B6EB0B0164EB00042B0D43EA0C335E1862
:1004800044EB1C50DA465146E7FB0201C5F3130466
:100490004FEA0B3343EA14534FEA0432019C43EA18
:1004A0000603A4F10C040294009CCDE900B400F012
:1004B00053F903B0BDE8F08F00200146F9E72DE9BC
:1004C000F04D81EA030404F0004B21F0004514468E
:1004D0004FF0000A23F0004150EA050220D054EA10
:1004E00001021DD0C5F30A570246C5F31303C1F339
:1004F0001300C1F30A5640F4801543F48013A7EBB0
:100500000608101BD64608F2FD3873EB050002D32F
:1005100008F1010801E092185B41B8F1000F03DA1D
:1005200000200146BDE8F08D00204FF48011064602
:1005300084460EE0171B73EB050705D3121B63EB14
:10054000050306434CEA010C49084FEA30009218B3
:100550005B4150EA0107EDD152EA030012D082EA72
:10056000040083EA0501084305D0101BAB4106D205
:100570000122002306E000224FF0004302E06FF06A
:10058000010253101AEB06004CEB085110EB0A0065
:1005900041EB0B01BDE8F04D00F0CFB80EB540F2D5
:1005A000334102910021CDE900110A460B4600F0CB
:1005B000D3F803B000BD00F0004230F000400AD094
:1005C000C10D01F56071C0F3160042EA0151C20885
:1005D00040071143704700200146704730B5041EA4
:1005E00071F1000404DB4FF00044404264EB010170
:1005F000141E73F1000405DB1C464FF00043524209
:1006000063EB0403994208BF904230BD01F0004300
:1006100030B421F0004150EA010206D00A0DA2F5E3
:100620006072C1F31301002A02DC30BC0020704765
:10063000440F44EAC104C100E01830BC00EBC250D2
:1006400000F026B830B50B460146002020220124D8
:1006500009E021FA02F59D4205D303FA02F5491B90
:1006600004FA02F52844151EA2F10102F1DC30BDA6
:10067000202A04DB203A21FA02F00021704721FAF7
:1006800002F3D040C2F1200291400843194670475E
:100690000029A8BF7047401C490008BF20F0010096
:1006A000704710B4B0FA80FC00FA0CF050EA010474
:1006B00004BF10BC704749B1CCF1200421FA04F406
:1006C00011FA0CF118BF012121430843A3EB0C01DF
:1006D000CB1D4FEA00614FEA102042BF002010BC42
:1006E000704700EBC35010440029A4BF10BC7047F2
:1006F000401C490008BF20F0010010BC704710B535
:1007000041000CD0C0F3C751962908DC7E2909DCD2
:1007100006DB410204D000F0004040F07E5010BDE6
:10072000002010BDC1F19604C4F1200100FA01F1CE
:10073000E040FFF7ADFFA04010BD10B5141E73F1EF
:10074000000408DA401C41F1000192185B411A4391
:1007500001D120F0010010BD2DE9F04D92469B46DD
:1007600011B1B1FA81F202E0B0FA80F22032904683
:10077000FFF759FD04460F4640EA0A0041EA0B0123
:1007800053465A46084313D0114653EA010019D084
:10079000C8F140025046FFF76BFF05460E46504633
:1007A00059464246FFF73FFD084305D0012004E0CB
:1007B00020463946BDE8F08D0020054346EAE07644
:1007C0002C4337430A986305E40AA0EB0800002293
:1007D000FD0A44EA47540A3002D500200146E9E701
:1007E000010510196941DDE9084500196941BDE8B5
:1007F000F04DA2E7C1F30A52C1F3130140F2FF33F7
:1008000041F480119A4202DA00200146704740F21A
:1008100033439A42A2F2334202DC5242FFF728BF2E
:10082000FFF701BD064C074D06E0E06840F001030C
:1008300094E8070098471034AC42F6D3FFF7A8FCC1
:10084000287800084878000810B50146806B026CD3
:1008500012F0500F05D0026CD20626D500F05AFBDC
:1008600010BD016C41F40071016401688A6812F0E6
:10087000405F17D1027EAAB9CA6A12F4700F02D083
:100880008A6852050ED44A6822F020024A60016C40
:1008900021F480710164016CC90403D4016C41F03E
:1008A0000101016400F034FB10BD806BC26CBDE837
:1008B00010400846104710B5806B40210164416C20
:1008C00041F00401416400F025FB10BD10B5806BC0
:1008D00000F01FFB10BD0000464910B54A6822F425
:1008E00040324A604A6843681A434A6001684A686D
:1008F00022F480724A6001684A68036942EA03226E
:100900004A6001684A6822F040724A6001684A6899
:1009100083681A434A6001688A6822F400628A6028
:1009200001688A68C3681A438A60816A6FF07062DE
:10093000D14201688A6822F070628A6001688A6820
:100940000CD0836A1A438A6001688A6822F0405298
:100950008A6001688A68C36A1A4301E022F0405243
:100960008A6001688A6822F002028A6001688A68E7
:10097000037E42EA43028A6090F820100029016851
:100980004A680FD042F400624A6001684A6822F463
:1009900060424A6001684A68174C436A04EB43337B
:1009A0001A4301E022F400624A600168CA6A22F434
:1009B0007002CA620168CA6A838B104C04EB03534D
:1009C0001A43CA6201688A6822F400728A60016868
:1009D0008A6890F8303042EA43228A6001688A6867
:1009E00022F480628A6001688A68406942EA802055
:1009F000886010BD0023014000E0FFFF0000F0FF11
:100A0000FEE7000010B50C462DED028BF0EE408A9B
:100A100000239FED348A9FED340ADFED340A344918
:100A200011E000BF30F8132001EE102A01EBC302E1
:100A30005B1CB8EE411A21EE001A21EE201A82ED5D
:100A4000001A82ED018AA342ECD301230022284937
:100A5000284802F082FC22462749254802F0BEFFC2
:100A600000210120244A0CE002EB8003D3ED000AB0
:100A7000F4EEC80AF1EE10FA02DDB0EE608A01462B
:100A8000401CB0EB540FEFD302EB8100B6EE002A0E
:100A900090EC020A10ED011A9FED188A30EE410A1F
:100AA00070EEC11A70EE600A61EE821A81EEA00A41
:100AB00000EE901AF8EE600A30EE800A00EE904ADE
:100AC000B8EE601AC8EE810A20EE800A20EE080A0D
:100AD00001F070FFC0EE080ABDEC028BB0EE600AB8
:100AE00010BD000000000000333353400000803987
:100AF0006C600020187800086C8000200000C8425C
:100B00002DE9F047DFF8B8A180462DED048B14469F
:100B10000F469AF80000DFF8AC91DFED6B8A18BB46
:100B20000025661EB7EE008AB6EE009A17E000BFF9
:100B300000EE105AB8EE400A60EE280A00EE106A85
:100B4000B8EE401A80EE810A02F06AFF38EE400AE1
:100B500009EB85006D1C20EE090A80ED000AA54214
:100B6000E6D301218AF800109FED588A0020B0EEEC
:100B7000480AF0EE400A10E038F8101001EE101AA2
:100B800037F81010401CB8EE411A31EE000A01EEA1
:100B9000101AB8EE411A71EE200AA042ECD301EE11
:100BA000104A4B4E0020F8EE411AA6F5005580EE93
:100BB000211A00EE104AF8EE401A80EEA10A24E055
:100BC00038F8101000EE901A09EB8001D1ED001AF0
:100BD00037F81010F8EE600A02EE101A05EBC001AB
:100BE00070EEC10AB8EE422A60EEA10A32EE402A47
:100BF000C1ED000A81ED018A62EE211A06EBC00107
:100C0000401CC1ED001A81ED018AA042D8D3012316
:100C100000223049304802F0A0FB012300222C4979
:100C20002D4802F09AFB00216208052015E000BF64
:100C300005EBC003D3ED000A93ED010A60EEA00AB4
:100C400040EE000AB0EE600AB4EEC80AF1EE10FA07
:100C500002DDB0EE408A0146401C9042E8D305EB2D
:100C6000C10090ED001A90ED012A06EBC10090ED55
:100C7000000AD0ED011A61EE000A22EE000A42EEEF
:100C8000210A01EE610A01F03FFD144902E000BFB4
:100C900030EE680A10EE100A8842F9DC104900BFF5
:100CA00010EE100A884202D930EE280AF8E7DFED8C
:100CB0000D0ABDEC048B20EE200ABDE8F087000091
:100CC000000000206C400020DB0FC9400000000045
:100CD0006C2000206C00002018780008DB0F4940D1
:100CE000DB0F49C0E02E654210B5034800F06CFAF6
:100CF00002490120087010BDFC9000200100002076
:100D000010B5034800F060FA02490120087010BDD8
:100D10005C9100200200002001681823CAB2103A3A
:100D2000B2FBF3F2054B6FF30901032A9B5CC36529
:100D300000D9091D8165084670470000E44100089C
:100D400010B5014600208B698A6A4FF0C07453B118
:100D5000B3F5005F15D072B1012A0CD0022A0AD077
:100D6000032A09D104E01AB1012A06D0022A03D1CC
:100D7000C96AC90100D5012010BDC96AA142FAD0D3
:100D800010BD002AF7D0012AF2D0022AF3D0032A9C
:100D9000F3D010BD30B50468256825F480252560A2
:100DA000046863608368402B036803D0996000681F
:100DB000C26030BD9A600068C16030BD704772B6D5
:100DC000FEE7000078B50024009490F83C20012A4A
:100DD00019D0012280F83C200A6807230568092AF7
:100DE00013D9EE680A3A02EB420293409E43EE604A
:100DF0000B788A680A3B03EB43039A400368DD687B
:100E00002A43DA6010E0022078BD2E6902EB42022C
:100E100093409E432E610B788A6803EB43039A400C
:100E200003681D692A431A614A681F23072A13D2DF
:100E300005686E6B521E02EB820293409E436E6306
:100E40000B790A885B1E92B203EB83039A40036816
:100E50005D6B2A435A6327E005680D2A12D22E6B78
:100E6000D21F02EB820293409E432E630B790A88C5
:100E7000DB1F92B203EB83039A4003681D6B2A4386
:100E80001A6311E0EE6A0D3A02EB820293409E4330
:100E9000EE620B790A880D3B92B203EB83039A4012
:100EA0000368DD6A2A43DA62164B0568144A9D42DC
:100EB00006D10D68122D03D1556845F480055560A3
:100EC00005689D4218D10B68102B01D0112B13D14E
:100ED000536843F400035360096810290CD10A4990
:100EE0000A4A0968B1FBF2F101EB8101490000E017
:100EF000491E00910029FBD180F83C40002078BDBC
:100F000000230140002001406000002040420F000B
:100F100070477047704770B504004FF0000503D06C
:100F2000206C002610B107E0012070BD204600F0C3
:100F30001DF8666484F83C60206CC00610D4206CF8
:100F400020F4885040F0020020642046FFF7C4FCE3
:100F50006664206C20F0020040F00100206400E094
:100F6000012584F83C60284670BD00002DE9F0435F
:100F700087B0064614216846FFF77DF93748DFF849
:100F8000D8C014383568002434490323344A07157F
:100F90004FF400684FF40059654529D10D6845F4B8
:100FA00080750D60096801F480710591016841F058
:100FB000010101600068694600F001000590012010
:100FC0008DE81900104600F071FA274D254805F10B
:100FD0000C0CC5E90004AC608CE89003EC612C6259
:100FE00028466C6230E0B563AE6307B0BDE8F083BD
:100FF000DFF878C06545F8D10D6845F400750D60DF
:10100000096801F400710591016841F00101016076
:101010000068694600F00100059002208DE8190083
:10102000104600F043FA104D0E486035303028600D
:101030004FF00070C5E9010405F10C0C28468CE85E
:101040009003EC612C626C6200F08EF90028CAD02B
:10105000FFF7B5FEC7E7000000200140443802401A
:101060000000024010640240FC900020002101407A
:10107000F8B50E4600210446009190F83C00134656
:101080000A46012807D0012084F83C0020688568C2
:10109000ED0702D011E00220F8BD856845F001059A
:1010A00085604048404D0068B0FBF5F000EB400023
:1010B00000E0401E00900028FBD120688568ED0507
:1010C00003D5856825F48075856020688568ED07FF
:1010D0005DD0226C40F20165AA4342F48072226422
:1010E0004068400505D5206C20F4005040F4805045
:1010F0002064206CC00404D5606C20F0060060649D
:1011000000E0616484F83C10A16B2948274DC86356
:10111000A16B28480864A16B2748C86421686FF058
:10112000220008602068416841F0806141602068C9
:10113000816841F480718160216832464C31A06B36
:1011400000F07CF9024668681C49C006206806D099
:10115000884224D1816811F0405F13D01FE088429B
:10116000F8D0174B984203D1D1F80433DB06F1D005
:10117000144B984213D1D1F8041301F01F01102928
:10118000E8D30CE0816841F08041816007E0206C89
:1011900040F010002064606C40F001006064104674
:1011A000F8BD00006000002040420F000023014015
:1011B00049080008CD080008B708000800200140D1
:1011C00000210140002201402DE9F84304464FF080
:1011D0000009CDF8009063484FF41651A56D0068E2
:1011E000B0FBF1F72E6894F85C10082000FA01F1CA
:1011F00031420FD021680A6852070BD50A6822F0E5
:1012000004020A6094F85C108840A860606D40F0A9
:101210000100606594F85C104FF0010808FA01F0D5
:10122000304208D021684969090604D5A860606D7C
:1012300040F00200606594F85C1004208840304261
:1012400008D021680968890704D5A860606D40F05E
:101250000400606594F85C1010208840304218D07B
:1012600021680968090714D5A86020680168490346
:1012700004D50068000308D5A16C07E00168C90522
:1012800003D4016821F008010160216C09B12046F6
:10129000884794F85C1020208840304231D0216883
:1012A0000968C9062DD5A86094F83500052820687E
:1012B000016806D0490347D5006800031DD4616C5E
:1012C0001CE021F0160101602068416921F08001D5
:1012D0004161206C08B9A06C20B12068016821F040
:1012E0000801016094F85C103F208840A86084F8F1
:1012F000358084F83490216D1FE0E16B09B1204600
:101300008847606D00282BD0606DC00714D0052081
:1013100084F835002068016821F00101016000981F
:10132000401C0090B84203D820680068C007F6D17E
:1013300084F8358084F83490E16C002910D001B035
:101340002046BDE8F04308470168C905D5D40168C7
:1013500021F01001016084F8358084F83490CCE7E6
:10136000BDE8F883600000202DE9F041044600F05C
:1013700095F906465CB1022084F83500002584F812
:1013800034502068016821F0010101600DE0012066
:10139000BDE8F08100F082F9801B052805D92020E6
:1013A0006065032084F83500F2E720680068C00714
:1013B000F0D12268116820480140D4E901031843A4
:1013C000D4E903363343184363691843A3691843C8
:1013D000E3691843236A18430843616A042903D167
:1013E000D4E90B1319430843106020684069666A0A
:1013F00020F0070130460E43012704280CD1A06AD3
:101400000643E06A40B12046FFF79AFC20B1402035
:10141000606584F83570BAE7206846612046FFF7BA
:101420007BFC94F85C203F2191408160656584F8E5
:1014300035700020ACE700003F8010F02DE9F0414E
:101440000446866D90F83400002501280DD0012057
:1014500084F8340094F835700020012F07D084F808
:10146000340002252846BDE8F0810220FBE7022770
:1014700084F8357060652046FFF78CFC94F85C10AA
:101480003F208840B0602068016841F0160101608B
:10149000206C20B12068016841F0080101602068DB
:1014A000016841F001010160DCE700002DE9F84F1F
:1014B000DFF8BCA10022012503264FF00F090AF135
:1014C000040BAAF1040E00BF0B6805FA02F42340D6
:1014D000A34270D10F7907F00307012F01D0022F2B
:1014E00016D187684FEA420806FA08FC27EA0C077B
:1014F000D1F80CC00CFA08FC4CEA070CC0F808C084
:101500004768A7430C79C4F3001494403C434460FB
:101510000C79E443A4070AD0C4684FEA420C06FAE7
:101520000CF7BC438F6807FA0CF72743C7600C79A8
:1015300004F00304022C12D1D40800EB840CDCF874
:1015400020405707FF0E09FA07F824EA0804D1F8EB
:10155000108008FA07F848EA0408CCF820800468EC
:101560004FEA420C06FA0CF7BC430F7907F0030769
:1015700007FA0CF7274307604C6814F4403F70D01B
:101580003C4C276847F480472760246822F0030713
:1015900004F480440094384C07EB040CDCF8084851
:1015A00097074FEA177809FA08F7BC43334FB84258
:1015B00002D1002724E054E0314FB84201D1012785
:1015C0001EE0304FB84201D1022719E02E4FB84239
:1015D00001D1032714E02D4FB84201D104270FE0B9
:1015E0002B4FB84201D105270AE02A4FB84201D15A
:1015F000062705E0284FB84201D1072700E0082759
:1016000007FA08F72743CCF80878DAF8004057467D
:10161000D1F804C09C435FEACC2C00D51C433C604D
:10162000DBF800405F46D1F804C09C435FEA8C2C95
:1016300000D51C433C60DEF800407746D1F804C07A
:101640009C435FEA8C3C00D51C433C60084F083F3C
:101650003C68D1F804C09C435FEACC3C00D51C43F5
:101660003C60521C102AFFF42FAFBDE8F88F000039
:10167000083C014044380240003001400000024074
:101680000004024000080240000C0240001002402A
:101690000014024000180240001C0240014880680B
:1016A000704700005400002002488168027811440D
:1016B00081607047540000200B4810B5016841F468
:1016C00000710160016841F480610160016841F4CA
:1016D00080710160032000F06FF80F2000F006F821
:1016E00000F024F8002010BD003C024070B50D4D04
:1016F00004464FF47A712878B1FBF0F00A49096882
:10170000B1FBF0F000F00CFB48B9102C07D200221E
:101710002146501E00F030F800206C6070BD0120A2
:1017200070BD000054000020600000200A4808B589
:10173000016841F480410160006800F4804000903D
:101740000548001F016841F080510160006800F009
:101750008050009008BD000044380240002809DB9A
:1017600000F01F02012191404009800000F1E020BB
:10177000C0F8001170470000F0B40E4B1B680C4617
:10178000C3F30223C3F10705042D00D90425191D55
:10179000072901D2002300E0DB1E012606FA05F12D
:1017A000491E214099409E40761E16403143F0BCB0
:1017B00000F099BF0CED00E0064900F00702086850
:1017C0004FF6FF03184040EA0220034A1043086026
:1017D000704700000CED00E00000FA052DE9F0472D
:1017E0000E46050065D0DFF81481D8F80000F7B286
:1017F00000F00700B04207D288F80070D8F8000067
:1018000000F00700B04254D128683D4C810712D542
:10181000400703D5206840F4E05020602878000796
:1018200003D5206840F4604020602068A96820F05B
:10183000F000084320602878C0072DD03049686840
:101840000839012812D0022813D0032811D00968C2
:10185000890700292DDA216821F003010143216065
:10186000FFF71CFF814641F2883A0EE009688903C0
:10187000EFE709688901ECE7FFF710FFA0EB09012A
:10188000514502D90320BDE8F0872068696800F05F
:101890000C00B0EB810FEFD1D8F80010404601F0FA
:1018A0000701B14207D90770006800F00700B04295
:1018B00001D00120E7E72878400705D52068E968CE
:1018C00020F4E050084320602878000706D52068FF
:1018D000296920F4604040EAC100206000F038F837
:1018E0002168084AC1F30311515CC84006490860E9
:1018F00006480068FFF7FAFE0020C4E7003C0240FB
:1019000008380240EC410008600000205800002028
:101910000448054900680968044AC1F38221515C02
:10192000C84070476000002008380240FC410008B1
:101930000448054900680968044AC1F34231515C12
:10194000C84070476000002008380240FC41000891
:10195000154810B5006810F00C02144813D0144953
:10196000042A0FD0082A0ED10F4C241F22682368A6
:1019700002F03F025B0207D52068C0F38810A0FB8D
:10198000010106E0084610BD2168C1F38811A1FBE2
:1019900000010023FEF716FC2168C1F30141491C38
:1019A0004900B0FBF1F010BD083802400024F400FB
:1019B00040787D012DE9F84F04006ED02078DFF8E3
:1019C0004C93C007A9F104054AD009F1040001684D
:1019D000C1F38101012908D00068C0F38100022809
:1019E0000AD1D9F80000400206D52868800337D50F
:1019F00060680028E1D033E06068B0F5803F10D027
:101A0000B0F5A02F286810D020F480302860286816
:101A100020F4802028606068A8B1FFF73FFE0646EA
:101A20000DE0286840F48030F4E740F4802028601E
:101A3000F7E700BFFFF732FE801B642873D82868E1
:101A40008003F7D50CE0FFF729FE064605E000BF4E
:101A5000FFF724FE801B6428F0D828688003F7D4A1
:101A60002078DFF8AC8280074FF0000A3ED5A74807
:101A7000001D016811F00C0F08D00068C0F3810050
:101A800002280BD1D9F80000400207D4286880074B
:101A900016D5E068012800D112E033E1E068B8B162
:101AA0000120C8F80000FFF7F9FD064605E000BF79
:101AB000FFF7F4FD801B0228C0D828688007F7D5FF
:101AC0002868216920F0F80040EAC10028600DE094
:101AD000C8F800A0FFF7E2FD064604E0FFF7DEFDD0
:101AE000801B02281FD828688007F7D420780007B9
:101AF00022D5864F87486169703771B10121016035
:101B0000FFF7CCFD064604E0FFF7C8FD801B022866
:101B100009D838688007F7D50EE0C0F800A0FFF7B5
:101B2000BDFD064605E082E0FFF7B8FD801B0228F8
:101B30007DD838688007F7D42078400768D5DFF86B
:101B4000CCB100270BF13C0BDBF80000C0000BD43C
:101B5000DBF8001041F08051CBF80010DBF80000FA
:101B6000012700F0805000906B4E3068C00510D403
:101B7000306840F480703060FFF790FD009005E021
:101B8000FFF78CFD0099401A022850D83068C00534
:101B9000F6D55E4EA0686C3601280FD00528306857
:101BA00010D020F001003060306820F00400306078
:101BB000A068B8B1FFF772FD00900FE0306840F008
:101BC0000100F4E740F004003060F7E7FFF766FD3E
:101BD0000099411A41F28830814266D83068800706
:101BE000F4D50EE0FFF75AFD009007E0FFF756FD31
:101BF0000099411A41F28830814256D830688007F6
:101C0000F4D42FB1DBF8001021F08051CBF8001094
:101C1000A069C8B33D49091D0968C1F381010229C2
:101C20004AD00228504607D0C8F8600000E03CE0E7
:101C3000FFF734FD04463BE04746C8F86000FFF775
:101C40002DFD064605E000BFFFF728FD801B02289A
:101C50002BD828688001F7D4D4E907010843A16A8A
:101C60002E4A490802EB0141626A41EA82110843A7
:101C700094F82C1040EA0161C9F800100120386680
:101C8000FFF70CFD044606E03EE000BFFFF706FD4F
:101C9000001B022809D828688001F7D534E000BF6E
:101CA000FFF7FCFC001B022802D90320BDE8F88FD7
:101CB00028688001F4D427E00128F7D0D9F8000083
:101CC000E26900F4800191421CD1226A00F03F01D8
:101CD000914217D147F6C071626A0140B1EB821F91
:101CE00010D1A26A4FF0FF3300F4403103EB5202EF
:101CF000B1EB024F06D194F82C1000F07060B0EBFD
:101D0000016F01D00120D1E70020CFE70438024065
:101D100000004742800E4742007000400000FFFF75
:101D200010B5401EB0F1807F01D3012010BD4FF0EF
:101D3000E02460610F21601700F0D5FC0020A06155
:101D400007202061002010BD70B590F83C20012ACA
:101D500032D0012480F83C40022280F83D20036804
:101D60005A689D6822F070060A6832435A60134B25
:101D700002689A4214D0B2F1804F11D0104B9A42AF
:101D80000ED0104B9A420BD00F4B9A4208D00F4BFB
:101D90009A4205D00E4B9A4202D00E4B9A4204D181
:101DA000496825F080031943916080F83D40002187
:101DB00080F83C10084670BD022070BD0000014054
:101DC0000004004000080040000C004000040140F6
:101DD000004001400018004010B5040003D094F802
:101DE0003D0010B107E0012010BD002084F83C0048
:101DF000204600F01FF8022084F83D00211D2068D5
:101E000000F0CAFA012084F8460084F83E0084F805
:101E10003F0084F8400084F8410084F8420084F8D0
:101E2000430084F8440084F8450084F83D00002015
:101E300010BD000008B500680649884208D1064870
:101E4000016841F002010160006800F002000090AA
:101E500008BD0000000400404038024090F83D10EA
:101E6000012901D001207047022180F83D1000684F
:101E70001149884214D0B0F1804F11D00F498842E7
:101E80000ED00F4988420BD00E49884208D00E4927
:101E9000884205D00D49884202D00D49884204D1BC
:101EA000816801F00701062903D0016841F00101B2
:101EB0000160002070470000000001400004004065
:101EC00000080040000C00400004014000400140B8
:101ED0000018004070B5044690F83C000025012829
:101EE00017D0012684F83C60022084F83D00206869
:101EF000826822F0770222F47F42826008685028CC
:101F000038D00DDC20284FD005DC90B3102811D13B
:101F10004AE0022070BD302846D040280AD13BE07C
:101F200060282FD070280DD0B0F5805F03D0B0F5B9
:101F3000005F12D0012584F83D60002084F83C0049
:101F4000284670BDCB68D1E90121206800F08CFAE9
:101F50002068816841F0770109E0CB68D1E901216F
:101F6000206800F081FA2068816841F48041816036
:101F7000E1E719E0CA684968206800F087FA502153
:101F8000206806E0CA684968206800F090FA60217D
:101F9000206800F073FACEE7CA684968206800F04C
:101FA00075FA40212068F4E7226801461046F0E700
:101FB00070B5040004D094F84100002510B106E08B
:101FC000012070BD84F84050204600F023F8242002
:101FD00084F841002068C16821F40051C1602046A6
:101FE00000F09EFA2068016921F4904101612068A7
:101FF000416921F02A0141612068C16841F4005122
:10200000C1606564202084F8410084F84200656363
:10201000002070BD10B586B0044614216846FEF756
:102020002AF914492068884221D113480021026806
:1020300042F010020260006800F0100005900E48A7
:102040001438026842F001020260006800F00100EA
:1020500005904FF4C06000900220CDE901010320FB
:1020600003900720049069460448FFF71FFA06B062
:1020700010BD000000100140443802400000024042
:102080002DE9F843044690F84100984616460D465F
:10209000202802D00220BDE8F88385B17EB100205F
:1020A0006064212084F84100FFF7F8FAA684814695
:1020B000E684A0682027B0F5805F02D003E001200D
:1020C000E9E7206910B12E4600250EE000260CE05D
:1020D0008021204600F0AAFAA8B9C6B116F8010B73
:1020E00021684860E08C401EE084E08C4B464FF055
:1020F0000002CDF800800028EAD14FF040012046D0
:1021000000F094FA40B184F841700320C3E735F839
:10211000020BC0F30800E3E784F841700020BAE73F
:10212000FEE700007FB50024154800940194029456
:102130001249039401604FF48031C0E90114046135
:10214000047680F820400903C1620125C561491069
:10215000C460816280F830404561FEF7DCFE08B162
:10216000FEF72DFECDE90045694605480294FEF7CD
:1021700029FE002801D0FEF722FE7FBD002001408D
:102180006C9000207FB500241548009401940294BF
:102190001249039401604FF48031C0E901140461D5
:1021A000047680F820400903C1620125C561491009
:1021B000C460816280F830404561FEF7ACFE08B132
:1021C000FEF7FDFD0095CDE9015469460448FEF790
:1021D000F9FD002801D0FEF7F2FD7FBD002101408E
:1021E000B49000200D4808B5016841F480010160F9
:1021F0000068002200F48000009011463820FFF7AC
:10220000BBFA3820FFF7AAFA002211463A20FFF75E
:10221000B3FABDE808403A20FFF7A0BA30380240D0
:10222000094808B5016841F080010160016801F0CA
:1022300080010091016841F001010160006800F037
:102240000100009008BD00003038024010B586B093
:1022500000241748009401940294039404941349B1
:102260000594C0E900145121C0E9024180210461B4
:102270008161FFF7B1FD08B1FEF7A1FD4FF4805079
:10228000009069460A48FFF725FE08B1FEF797FD62
:102290002020CDE9040404A90548FFF755FD0028D6
:1022A00001D0FEF78CFD06B010BD00000004004018
:1022B000BC9100200C4810B50A4901604FF4E1318F
:1022C0004160002181600C22C160C0E9041281617B
:1022D000C161FFF76DFE002803D0BDE81040FEF796
:1022E0006EBD10BD0010014004920020FEE7FEE725
:1022F00070477047FFF7D8B930B593B030216846C2
:10230000FDF7B9FF14210CA8FDF7B5FF1C48002408
:10231000016841F080510160006800F08050119028
:102320001848016841F4804101600068022500F40A
:102330008040119001200390102004900095069594
:102340000820CDE907405420CDE9090504200B9071
:102350006846FFF72FFB08B172B6FEE70F20CDE904
:102360000C054FF48050CDE90E4002210CA81094CA
:10237000FFF734FA002801D072B6FEE713B030BD83
:1023800040380240007000400248016841F470018A
:102390000160704788ED00E0F0B50268274B284DDA
:1023A000284E294F294C4FF0804C984209D0604567
:1023B00007D0A84205D0B04203D0B84201D0A04215
:1023C00004D122F0700E4A6842EA0E0298421BD0F5
:1023D000604519D0A84217D0B04215D0B84213D0EA
:1023E000A04211D01A4DA8420ED01A4DA8420BD0CF
:1023F000194DA84208D0194DA84205D0184DA84241
:1024000002D0184DA84203D122F44075CA682A436D
:102410004D6922F080022A438D68C5620D6885628D
:10242000984201D0A04201D109690163016841F0DD
:1024300004010160012141610260F0BD0000014022
:102440000004004000080040000C0040000401406F
:102450000040014000440140004801400018004095
:10246000001C00400020004010B5846842EA0322AE
:1024700024F47F440A432243826010BD826822F024
:1024800070020A4342F007018160704710B5036A89
:10249000046A24F001040462846924F0F00444EA2C
:1024A000021423F00A020A438461026210BD10B5CF
:1024B000036A046A24F010040462846923F0A00310
:1024C00024F4704444EA023243EA01118261016259
:1024D00010BD01680C3151E8002F22F4907241E8E0
:1024E0000023002BF5D10168143151E8002F22F0B0
:1024F000010241E80023002BF5D1016B012909D12C
:1025000001680C3151E8002F22F0100241E800234D
:10251000002BF5D1202180F8421000210163704783
:1025200070B5044600680169E26821F44051114326
:1025300001612169A068E2690843616911430843A8
:102540002168CA6849F20C639A430243CA60206852
:102550004169A26921F44071114341613149206808
:10256000884202D03049884202D1FFF7E1F901E008
:10257000FFF7CEF9E2690023192164253226B2F56E
:10258000004F626828D0A0FB0101930F9200FDF775
:1025900019FE0146B0FBF5F06FF01802504301EB55
:1025A000800006EB0010B0FBF5F000F0F002B1FB8C
:1025B000F5F002EB0012B1FBF5F06FF01803584391
:1025C00001EB800006EB0010B0FBF5F000F00F000F
:1025D00021681044886070BDA0FB010192185B4126
:1025E000FDF7F0FD0146B0FBF5F00201B1FBF5F09F
:1025F0006FF01803584301EB800006EBC000B0FBFE
:10260000F5F000F0F80002EB4002B1FBF5F05843A2
:1026100001EB800006EBC000B0FBF5F000F0070016
:10262000D6E7000000100140001401402DE9F843F6
:10263000984617460D460446089E24E0701C22D09A
:10264000FFF72CF8A0EB0800B0421AD8CEB12068F2
:10265000C168490717D5802D15D0402D13D00168CA
:10266000C94309070FD4016800254068009020463F
:10267000FFF72FFF0820606484F840500120BDE878
:10268000F8830320FBE72068006835EA000004D0E7
:102690000020B842D2D00020F1E70120F9E7FEE7A0
:1026A0000FB4054B10B503A9044A029800F0B2FA22
:1026B00010BC5DF814FB0000693F000864000020B6
:1026C0004100080218BF04200A0E18BF40F00100A4
:1026D0004FF07F4232EA010108BF40F002000128BA
:1026E00008BF052070470907090E002804DB00F128
:1026F000E02080F80014704700F00F0000F1E020A7
:1027000080F8141D7047000070B54FF068422DED41
:10271000048BF0EE408A18EE900AB0EE608A18EE54
:10272000101A02EB4003B3F1654F3CBF02EB4102CC
:10273000B2F1654F7DD200BFC0F3C753C1F3C7529A
:102740009A1A1B2A09DD10F0004F14BF9FED830A6F
:102750009FED830ABDEC048B70BD12F11A0F36DABF
:1027600011F0004F09D010F0004F0CBF9FED7D0A13
:102770009FED7D0ABDEC048B70BD88EE889A19EE42
:10278000100AFFF79DFF042808BF00F063F918EE58
:10279000900AFFF795FF054618EE100AFFF790FF25
:1027A000044619EE100AFFF78BFF042D18BF052D04
:1027B00008D1042C18BF052C04D1002804BF022026
:1027C00000F060F9B0EE490ABDEC048B70BD420028
:1027D000B2EB410F3AD910F0004F19BFDFED630A99
:1027E0009FED630ADFED630A9FED630AB0EE481ABE
:1027F0000A46B1EE688A80F00041F0EE418A104648
:102800000A1A5200B2F1807F34D2484010F0004FD3
:10281000DFED5A1A9FED5A2A1DBFBEEE001A70EE68
:10282000E10A30EE420AB6EE001A08BF70EEA10AC5
:1028300000E040E008BF30EE020AB0EE682A01EE88
:10284000482A08EE818AC2EE081A15E011F0004FFE
:1028500004BF9FED4C0AF0EE400AD1D010F0004FBB
:1028600019BFDFED490A9FED490ADFED490A9FEDE7
:10287000490AC5E7C8EE881A21EEA11A9FED462A3B
:10288000DFED462A41EE022A9FED452A01EE222A7B
:10289000DFED442A41EE022A9FED432ABDEC048B72
:1028A00001EE222A21EE811A01EE020A30EE210AFF
:1028B00030EE200A70BD4FF07F42B2EB400F28BFD0
:1028C000B2EB410F09D2F0EE480AB0EE680ABDEC57
:1028D000048BBDE8704000F0BAB840EA01035B0029
:1028E00008BF41F0FF410BD0B2EB400F08BFB2EB85
:1028F000410F08D120F0804008EE900A21F080417D
:1029000008EE101A18E7B2EB400F12BF5FEA41035E
:1029100040F0FF4001F000413FF40EAFB2EB410F39
:1029200012BF5FEA400200F0004041F0FF413FF477
:1029300003AF4A0092EA40033FF5FEAE002AACBF67
:102940009FED1A0A9FED1A0A68EE808A28EE008A27
:1029500018EE900A18EE101AEEE60000DB0FC9BF61
:10296000DB0FC93FDB0F4940DB0F49C00000C9BF87
:1029700022AAFDB90000C93F22AAFD390060ED3E40
:10298000C30ACE3700000000000049C022AA7DBA69
:102990000000494022AA7D3A2DAD65BD8FB8D53DD6
:1029A0000FB511BE61C84C3EA8AAAABE0000804F58
:1029B0000000802F10B52DED028BB0EE408A18EE8E
:1029C000100AFDF79CFE01EE100A18EE100AB7EE91
:1029D000000A78EE410A10F0004F4FF07F4010EEF1
:1029E000901A12D0B1F13F4F24BF10EE901AB0EB05
:1029F000410F12D210EE901AB1F17C5F1CDD10EE87
:102A0000901AB0EB410F17D314E0B1F13F4F07D943
:102A100010EE901AB0EB410F02D331EE401A0BE0EA
:102A200010EE901AB1F17C5F06DB10EE901AB0EB5D
:102A3000410F01D331EE001A18EE100ABDEC028BE3
:102A400011EE101A61F31E0000EE100A10BD30EEF8
:102A5000200A70479FED020A20EE000A704700002E
:102A60000000001002E008C8121F08C1002AFAD1B5
:102A700070477047002001E001C1121F002AFBD1FE
:102A8000704700000149086070470000680000209E
:102A90002DE9FF5F82B00021DDE90430020DDDF891
:102AA00040B0034318D044F61050A2F2FF32424324
:102AB0001514119801281FD0A5EB0B00401C5FEAEC
:102AC000000A4FF000064E4FDFF83891B0465046EE
:102AD00015D5CAF1000413E0119801244AA3012876
:102AE00001D16FEA0B010298119AC0E90031C0E9E7
:102AF000024206B0BDE8F09FCBF10000DFE70446DC
:102B00000021404A491842EB0450CDE9001012E080
:102B1000E00707D032463B4640464946FDF75DFC9C
:102B20008046894632463B4610461946FDF755FC1D
:102B300006460F466410002CEAD1DDE90401DDE908
:102B40000023BAF1000F06DAFDF747FC42464B4678
:102B5000FDF743FC05E0FDF7B2FC42464B46FDF7AE
:102B6000AEFC04460E460022284BFDF737FD03D885
:102B70004FF0FF30014607E00022254B204631464A
:102B8000FDF784FBFDF736FE102409E0002C0ADB7C
:102B90000A220023FDF716FB039B30321A55641EF0
:102BA00050EA0102F2D1641C039AC4F111031444E7
:102BB000119A012A03D0012208430DD10AE00843EB
:102BC00004D000204FF0110B119072E7A3EB0B051E
:102BD0006D1E0DE05B4504DD4FF0000205F10105BF
:102BE00004E003DA4FF00002A5F10105002AECD061
:102BF00002981199C0E90231C0E9004579E7000067
:102C0000000014400000F03F300000000000F043DE
:102C10000000E03F2DE9FF4F95B09A4688460646F2
:102C20000025EEE1252877D100242746F94A012125
:102C3000039400E0044316F8013F203B01FA03F03F
:102C40001042F7D130782A2811D06FF02F03307856
:102C5000A0F13002092A16D8039A44F0020402EBCC
:102C6000820203EB42021044761C0390EFE758F80F
:102C7000042B0392002A03DA504244F400540390D8
:102C800044F00204761C30782E2816D116F8010F75
:102C900044F004042A280DD06FF02F023078A0F100
:102CA0003003092B09D807EB870302EB4303C7184E
:102CB000761CF3E758F8047B761C30786C280FD02C
:102CC00006DC4C2817D068280DD06A2814D104E0FF
:102CD000742810D07A280FD10DE044F400140AE0D3
:102CE00044F4801401E044F440147278824202D12A
:102CF00004F58014761C761C307866280BD013DC23
:102D0000582877D009DC002875D04528F6D0462809
:102D1000F4D047281AD193E118E0632835D064280D
:102D200079D0652812D18BE1702873D008DC672830
:102D3000F1D069286FD06E280DD06F2806D1ACE095
:102D400073282CD0752874D0782853D05246179900
:102D500090476D1C54E1C4F30250022809D00328A7
:102D60000DD0D8F8001004280DD00D6008F104082B
:102D700046E1D8F80010EA17C1E90052F6E7D8F8A2
:102D800000100D80F2E70D70F0E718F8041B8DF8C5
:102D9000001000208DF80100EB46012003E058F8F8
:102DA00004BB4FF0FF3061074FF0000102D40DE08B
:102DB00009F101018946B9420FDA8145F8DB1BF8B8
:102DC00009100029F4D108E009F101018946814286
:102DD000FADB1BF809100029F6D103985346A0EB43
:102DE000090721463846179A00F080FA284400EB7C
:102DF000090507E044E008E10DE01BF8010B52462D
:102E000017999047B9F10109F7D253462146384640
:102E1000179AF2E039E00A21C4F302524FF0000B96
:102E20000091022A06D058F8040BC117032A09D0D2
:102E30000AE023E008F1070020F00702F2E80201AF
:102E4000904605E000B2C117042A01D140B2C11773
:102E5000002906DA0A460021404261EB02012D22D8
:102E600002E0220504D52B228DF80420012203E084
:102E7000E20701D02022F7E7914657E00A2100E05F
:102E800010214FF0000B00910BE010214FF0000BD0
:102E900044F004040827009103E008204FF0000BE1
:102EA0000090C4F30252022A05D058F8040B002106
:102EB000032A08D008E008F1070020F00702F2E832
:102EC0000201904603E080B2042A00D1C0B24FF064
:102ED000000922072AD53278702A07D0DDF800C011
:102EE0008CF0100C5CEA0B0C05D00EE040228DF843
:102EF0000420012208E050EA010306D030238DF8B7
:102F000004308DF8052002229146009B83F00803CF
:102F100053EA0B030AD150EA010201D1620705D539
:102F200030228DF804204FF001097F1E3278582A94
:102F300004D039A20C920CAA02920BE03BA2F9E752
:102F40005B46009AFDF73EF90C9B9B5C029A521E71
:102F50000292137050EA0102F2D1029804A9081AF1
:102F600000F1200B600702D524F4803400E0012733
:102F70005F4502DDA7EB0B0000E0002000EB0B013A
:102F8000009003984944401A0390E00306D4534646
:102F90002146179A039800F0A9F90544002706E096
:102FA00001A85246C05D179990476D1C7F1C4F4584
:102FB000F6DBE0030CD553462146179A039800F040
:102FC00095F9054404E030205246179990476D1C4E
:102FD0000099481E00900029F5DC08E0029802994B
:102FE00052460078491C0291179990476D1CBBF11D
:102FF0000001ABF1010BF1DC5BE100F065F9054488
:10300000761C307800287FF40DAE19B02846BDE854
:10301000F08F000009280100303132333435363763
:103020003839616263646566000000003031323314
:1030300034353637383941424344454600000000B4
:10304000600700D4062708F1070020F00700F0E829
:103050000223804603F0004C5FEA0C0001D097A0E9
:1030600009E0200501D596A005E0E00701D095A074
:1030700001E0AFF24C001390307823F00043652854
:103080000CD006DC452809D046281DD047287FD122
:103090003BE0662818D067287AD136E00021112F4E
:1030A00001DB112000E0781CCDE9000104A90CA887
:1030B000FFF7EEFCDDE90D010C9A4FF0000B07F174
:1030C0000109109200914EE04FF000400097CDE9C9
:1030D000011004A90CA8FFF7DBFCDDE90D020C9B35
:1030E0000F994FF0000B91461093009211B9791C83
:1030F00000EB0109B7EB090003D4C0F1FF3B07F176
:103100000109A9EB0700019042E0012F00DA012735
:103110000021112F01DD112000E03846CDE900012A
:1031200004A90CA8FFF7B4FCDDE90D010C9A00918D
:103130004FF0000BB946109221070FD4009A4A4570
:1031400003DA914601E0A9F10109B9F1010F05DDAA
:10315000109AA9F10101515C3029F4D0B84202DA89
:1031600010F1040F03DA0121CDE9011010E000286D
:1031700003DC8344A9EB000102E0411C494500DD6A
:103180008946A0EB0B00401C01904FF000400290DC
:10319000200705D40198484502DB4FF0FF3001902D
:1031A00000208DF84B0002980DF14B07B0F1004F55
:1031B00025D002200C902B200D90029800280CDACC
:1031C000404202902D200D9007E00A210298FDF761
:1031D00039FA3031029007F8011D0C99481E0C9005
:1031E0000029F2DC02980028EFD1791E0D980870B2
:1031F000307800F0200040F0450007F8020D11A8DB
:10320000C01BC01D02901398007800B1012000EB94
:103210000901019801EBE071029801440398401AFA
:10322000401E0390E00306D453462146179A0398A4
:1032300000F05CF805441398007818B152461799CD
:1032400090476D1CE00323D553462146179A0398F7
:1032500000F04CF805441BE0BBF1000F07DB0098C1
:10326000584504DD1098179910F80B0001E01799E4
:1032700030205246904701980BF1010B401E05F19A
:103280000105019004D12E205246179990476D1CDC
:10329000B9F10001A9F10109DEDC05E017F8010B25
:1032A0005246179990476D1C0299481E02900029BA
:1032B000F4DC53462146179A03989EE62D00000041
:1032C0002B000000200000002DE9F04104460025FD
:1032D0001E461746880404D405E039462020B0472E
:1032E0006D1C641EF9D52846BDE8F0812DE9F0413A
:1032F000044600251E469046C80301D5302700E04D
:103300002027880404D505E041463846B0476D1CA7
:10331000641EF9D52846BDE8F0810000F0B5002311
:1033200018E000BF02EB430532F813406D88A40893
:10333000AD0850F8246050F8257040F8247040F82B
:10334000256000EB840400EB850566686F686760A4
:103350009B1C6E608B42E5D3F0BD2DE9F0410588E2
:10336000984617460C460646012A0CD1201D00211E
:1033700007E090ED000AB1EE400A80ED000A083047
:10338000491CA942F5D3B5F5807F1BD008DC102D70
:1033900013D0202D16D0402D19D0802D1DD10CE03A
:1033A000B5F5007F13D0B5F5806F06D0B5F5006F89
:1033B00008D0B5F5805F10D109E02146304600F015
:1033C00032F80AE02146304600F0F1F805E02946DF
:1033D00001232046726800F065FBB8F1000F04D0AD
:1033E000B1892046B268FFF799FF012F19D100EE8D
:1033F000105AB7EE001A0020F8EE400A81EE200ABB
:103400000DE0D4ED000A401C60EE800AC4ED000A15
:10341000D4ED010A60EEC00AC4ED010A0834A842E6
:10342000EFD3BDE8F0812DE9F04105462DED028B8B
:103430008C4602886E6801EB82005408804601EBDE
:10344000840200EB8403A7087CD091ED003AD0ED14
:10345000002A91ED015A90ED014A33EE228AD1ED16
:10346000027A91ED031A90ED022AD0ED033A92ED23
:10347000007AD2ED016AD2ED021AD2ED034AD3ED01
:10348000000A93ED010AD3ED025A93ED036A81ED30
:10349000008A35EE048A33EE623A75EE442A81EDF5
:1034A000018A37EE828A31EE635A37EEC24A81EDE5
:1034B000028A31EE238A37EE201A30EEC72A81EDD8
:1034C000038A82ED001A36EE801A76EE643A82EDB7
:1034D000011A31EEA51A75EEE11A82ED021A34EEE8
:1034E000861A82ED031A30EE661A96ED000AD6EDC2
:1034F000010A63EE004A62EEA05A62EE802A23EED1
:10350000203A74EEA54A72EEC32AC0ED004A22EEBC
:10351000203AC0ED012A61EE002A61EE200A22EE77
:10352000000A33EE621A30EE800A83ED001A83ED52
:10353000010A96ED020AD6ED030A24EE002A25EED2
:10354000201A00E023E065EE002A24EE203A32EE55
:10355000011A23EE802A21EE800A80ED021A32EE53
:10356000C31A1031103280ED031A21EEA01A63EE57
:10357000A00A1030103631EE421A30EE800A83ED88
:10358000021A83ED030A10337F1E7FF45EAF2146DB
:10359000022360466A6800F085FA6A682146BDEC3D
:1035A000028B4046BDE8F041022300F07BBA2DE9D2
:1035B000F34F2DED048B87B00B9800884FEA50082D
:1035C00001EB880000EB880303EB8804CDE900439E
:1035D000DDF82CC0221F02EB8807CDE902014FEA7B
:1035E0005808DCF804A0CDF810804FF00408CDF89E
:1035F00018804FF00608CDF81480D1ED000A93ED45
:10360000000AD0ED013A94ED013A30EE802A70EED6
:10361000C01AD1ED010A93ED010A061F1D1F70EEBD
:10362000802A30EEC01A33EEA10AD4ED000A71EE02
:10363000E31A0AF1080B70EE435A90ED000A71EE9E
:10364000831A0AF1100931EE404A72EE404A30EE18
:10365000011A30EE020A34EE204A34EEE05A31EE1E
:10366000601A30EE200A72EEE34A0AF1180A81ED80
:10367000000A90ED010AD4ED010A74EEC34A30EE5F
:10368000220A30EE200A81ED010AC0ED005A80EDD9
:10369000014A83ED005AC3ED014AC4ED001A84EDDE
:1036A000011ADDF810800830A8F10208083108334B
:1036B0004FEA580C0834D1ED000A93ED000A5FEA96
:1036C0000C0E70EE804A70EEC01AD1ED010A93ED37
:1036D000010A7ED090ED015A30EE802A30EEC01AF9
:1036E00035EE210AD4ED013AD0ED000A71EEC51A8B
:1036F00070EE635A71EE602A94ED000A30EE811A82
:1037000071EEA31A32EE804A74EEE02A70EEA40A3B
:1037100031EE401A32EEC03A30EE800A72EE452A9F
:1037200081ED000A90ED010AD4ED010A72EEE32A60
:1037300030EE020A30EE200A81ED010A56ED010A50
:1037400012ED010A15ED015A57ED017A70EE808AEB
:1037500030EEC02AD6ED000A92ED000A95ED007A0F
:1037600030EE808A30EEC00AD7ED000A70EE453A9E
:1037700037EE609A73EEA76A78EEC53A37EEC55A0F
:1037800039EE026A39EE422A73EEE74A35EE405AC4
:1037900037EE080A78EE473A30EE200A73EEE03A48
:1037A00086ED000A15ED010A57ED010A30EE280AF0
:1037B00030EE200A06ED010A9BED000ADBED010A5E
:1037C0000BF1080B25EE807A64EE207A24EE008A55
:1037D00000E074E025EEA04A77EE275A0831083E53
:1037E000C0ED005A38EE444A66EEA05A66EE200A52
:1037F00080ED014A26EE004A26EE800A0830AEF13E
:10380000010C35EEC44A30EE800A85ED004A05ED24
:10381000010AD9ED000A99ED010ADDF8188023EEBE
:10382000204A62EE805A62EEA02A23EE003A09EBAB
:10383000880934EE254A083D72EEC32A83ED004A1A
:1038400023EEE03AC3ED012A64EE802A64EEA00A7A
:1038500023EE800A083373EE622A30EE600AC2ED6E
:10386000002A02ED010ADAED000A9AED010ADDF8FC
:10387000148021EEA03A61EE002A61EE203A21EE9A
:10388000801A083A73EE221A0AEB880A33EEC11A3C
:10389000C4ED001A62EE201A84ED011A25EE001A1A
:1038A00022EE000A65EE200A083431EE611A30EE8D
:1038B000200A87ED001A07ED010A083FFBE630EE0B
:1038C000805A90ED011A70EEC05A94ED012A31EE43
:1038D000210AD0ED000A35EE414A31EEC11A70EEF0
:1038E000422A94ED000A35EEE03A74EEE03A70EECA
:1038F000A51A70EEA40A33EE003A73EEC03A71EEE8
:10390000C01A30EE800A34EE424A31EE021A81EDDE
:10391000000A90ED010AD4ED010A30EE050A30EEFE
:10392000200A81ED010A9BEC020A62EE804A23EE36
:10393000202A23EE000A62EEA00A34EE822A30EE3C
:10394000600A80ED002A80ED010AD9ED000A99EDA8
:10395000010A23EEA02A64EE002A64EE200A23EE78
:10396000800A32EE222A30EEC00A83ED002A83ED6F
:10397000010A04239AEC020A21EE002A61EEA02A31
:1039800021EE800A61EE200A32EE221A30EE600A41
:1039900084ED001A84ED010A0B984268DDE9030109
:1039A00000F080F80B98042304994268029800F014
:1039B00079F80B98042304994268019800F072F892
:1039C0000B98049904234268009807B0BDEC048B5F
:1039D00002B0BDE8F04F00F065B800009FED0F1A8F
:1039E00018E000BF90ED000AD0ED010A0B4620EE72
:1039F000000A091D083000EEA00AB5EEC00AF1EE7B
:103A000010FA04DBF1EEC00AC3ED000A01E083ED19
:103A1000001A521E002AE5D1704700000000000085
:103A20009FED1D1AF5EE000A40EE010ABDEEE00A18
:103A3000F5EEC00A10EE100AF1EE10FA00D2401EA8
:103A400000EE100AB8EEC00A30EEC00ADFED130A2D
:103A500020EE200ABCEEC01A11EE100A80B2B0F5BA
:103A6000007F02D330EE600A002000EE900A0C497D
:103A7000F7EE001AF8EE600A01EB800090ED011AF3
:103A800070EE600A90ED000A71EEE01A21EE800AF5
:103A900000EE810A7047000083F9223E00000044D6
:103AA000147000082DE9FF4F2DED108B84B09FEDB1
:103AB000FE0A15990291C90800235E18771807EBD2
:103AC000010E0EEB010404EB010C0CEB010808EBFA
:103AD000010900EBC305CDF8009000EBC40495ED9F
:103AE000001AD4ED000A00EBC60B00EBCC0671EE19
:103AF000201A31EE604A9BED001AD6ED000A00EB69
:103B0000C70A00EBC80831EE202A71EE604ADDF8E2
:103B10000090DAED000A98ED001A00EBCE0700EBFA
:103B2000C90CD7ED003ADCED002A30EE813A30EED8
:103B3000C11A73EEA20A33EEE25A71EEC32A31EED5
:103B4000833A72EE601A72EE200A33EE202A73EE88
:103B5000600A85ED002AC4ED000A95ED013AD4ED26
:103B6000010ADBED013ADAED015A33EE202A33EE99
:103B7000603AD6ED010AD7ED017A73EEA06A73EED2
:103B8000E00AD8ED013A35EEA37A75EEE33ADCEDC2
:103B9000015A37EEA56A77EEE55A72EE477A32EEB1
:103BA000077A36EEC62A36EE866A77EE066A37EE72
:103BB000466AC5ED016A84ED016A32EE826A32EE30
:103BC000C22A8AED006A88ED002A37EEE12A77EEF4
:103BD000A11A8AED012AC8ED011A74EEC51A21EE68
:103BE000802A74EE851A74EE424A61EE802A70EEE5
:103BF000E51A70EEA50A34EE022A61EE801A20EE74
:103C0000805A71EE620A31EE221A73EE612A73EE67
:103C1000211A33EEC53A73EE853A32EE234A32EE7C
:103C2000632A8BED004A8CED002A34EE832A86ED60
:103C3000002A34EEC32A87ED002A31EEC12A31EE84
:103C4000811A8BED012A8CED011A32EEE01A72EE28
:103C5000A00A86ED011AC7ED010A029C2344159CB7
:103C6000A342FFF42AAF08297ED300230193012346
:103C70000093179C019B234401939E004FEA430C41
:103C8000F5180CEB0307EC182344DDF8048002EB75
:103C9000C30302EBC80802EBCC0C02EBC70702EB34
:103CA000C60602EBC50502EBC40493ED009A93ED42
:103CB00001AAD8ED00DA9CED00DAD7ED00CA96ED46
:103CC00000CAD5ED00BA94ED00BAD8ED018A9CED9A
:103CD000018AD7ED01AAD6ED017A95ED017AD4EDEE
:103CE000016A009B5D186E1806EB010CCDF80CC044
:103CF0008C440CEB010700EBC30400EBCC0A94ED01
:103D0000001ADAED000A00EBC50E00EBC70B9EEDC2
:103D1000002ADBED001A71EE203A07EB010831EEC4
:103D2000601A72EE210A00EBC60500EBC80772EEBE
:103D3000611AD5ED002A97ED002ADDF80CC008EBDA
:103D4000010972EE824A00EBCC0600EBC90832EEA4
:103D5000C22A96ED003AD8ED002A33EE224A73EEDD
:103D6000622A33EEE43A00E0F9E070EEC45A73EEF2
:103D7000A43A70EE840A33EEA04A33EEE0EA84ED12
:103D8000004AD4ED013ADAED010A9EED014AD5ED83
:103D9000014A33EEA0FA73EEE03ADBED010AD6ED0C
:103DA00001EA98ED015A74EE209A34EE604AD7ED9C
:103DB000010A34EEA06A74EEE04A7EEE850A3EEE19
:103DC000C55A7FEE46EA3FEE066A39EEE0FA79EE32
:103DD000A09A73EE0F0A33EE4F3A36EE29FA76EEDA
:103DE000699A3EEEE56A84ED01FA7EEEA55A6CEE24
:103DF0000EEA27EEA9FA6CEE299A27EE8EEA7EEEFD
:103E00008FEA79EECE9ACAED00EA28EE06EACAED0C
:103E1000019A6DEE209A2DEE066A68EE200A79EE80
:103E20008E9A76EE600AC5ED009A2BEE036A66EE76
:103E3000A59AC5ED010A6BEE255A66EE830A36EEA9
:103E4000293A75EEE00A87ED003A34EE053AC7EDFF
:103E5000010A71EEE20A71EEA21A74EE452A23EE0F
:103E6000004A60EE800A61EE801A62EE802A31EE2E
:103E7000603A71EE200A32EE611A72EE211A33EEC8
:103E8000E22A73EEA22A74EEC43A74EE844A30EE4B
:103E9000A44A70EEE40A73EE234A33EE633A72EEFC
:103EA000E13A72EEA12A01E0F304353F72EE411AC5
:103EB00032EE011A2DEE842A28EEA35A6DEEA33AB3
:103EC00028EE844A32EE052A8EED002A33EEC42A0B
:103ED0006AEE223A69EE222A8EED012A29EE202A84
:103EE0006AEE200A32EE232A72EEE00A67EE242AF6
:103EF00088ED002AC8ED010A6BEEA40A27EE212AFC
:103F00006BEEA11A70EE820A2AEE832ACBED000A2C
:103F100071EEE20A6AEE811A2CEE811ACBED010AEB
:103F20006CEE830A70EEA10AC6ED000A71EE420A39
:103F3000C6ED010A029C2344159CA342FFF4D2AEB5
:103F4000009B5B1C00938B42FFF493AE179B4FF6D4
:103F5000FF7404EAC303179307293FF6ABAD04B01F
:103F6000BDEC108BBDE8FF8F13B54FF6FF73012238
:103F700069460248FEF784F800981CBD04920020B0
:103F80002DED068BDFED688AFDF796FBFEF7B4F9A1
:103F9000FEF746F9FEF726F9FEF7C4F8FEF756F9E4
:103FA000FEF788F9FEF7EEF84FF480652A465F4980
:103FB0005F48FDF75DF82A465E495F48FDF758F80F
:103FC0005E48FDF74BFF5E4E707810B9B078002860
:103FD000FAD1DFF8588100249FED5A9B9FED5BAB2F
:103FE00008F580579FED5B8A38F81400FCF7D6FA85
:103FF00053EC192BFCF7F1F953EC1A2BFCF7EDF904
:10400000FCF704FB07EBC401641C086081ED018A26
:10401000AC42E9DBDFF81C81002400BF38F8140053
:10402000FCF7BCFA53EC192BFCF7D7F953EC1A2B1D
:10403000FCF7D3F9FCF7EAFA07EBC401641C08604B
:1040400081ED018AAC42E9DB012300224249434869
:10405000FFF783F92A4642493F48FFF7BFFC404932
:1040600091ED000ADFED3F0A012020EE200A81EDEC
:10407000000A9FED3D0A00BF01EB8002401CD2ED1B
:10408000000AA84260EE800AC2ED000AF4DBB0EE3E
:10409000680A29462548FCF7B5FCB0EE409AB0EE18
:1040A000680A29462348FCF7ADFCDFED309AB0EEF4
:1040B000408AC9EE290A10EE900AFCF77CFA41EC1E
:1040C000100B2BA053EC102BFEF7EAFAC8EE290ACE
:1040D00010EE900AFCF76FFA41EC100B2DA053EC98
:1040E000102BFEF7DDFAB0EE680A2A4611490F4898
:1040F000FCF706FD10EE100AFCF75DFA41EC100B20
:104100002DA053EC102BFEF7CBFA00207070B0708E
:104110002A4606490648FCF7ABFF2A4605490648E9
:10412000FCF7A6FFFEE7000080117A496C500020E2
:104130006C9000206C580020B4900020BC910020AE
:10414000000000206666666666660A4000000000A1
:104150000000303F000000006C600020187800086C
:104160006C8000200000803A0000003B00007A4490
:104170004D65617375726564204672657175656E13
:10418000637931093A20252E3266206B487A0D0A70
:10419000000000004D6561737572656420467265AC
:1041A0007175656E637932093A20252E3266206B6F
:1041B000487A0D0A00000000436F727265637465EF
:1041C0006420706861736520646966666572656EF7
:1041D00063653A20252E32662064656772656573D3
:1041E0000D0A000000061016000610160000000060
:1041F0000000000001020304060708090000000097
:10420000010203040000803F00000000C4FE7F3F65
:10421000890FC93B11FB7F3F900E493CE6F47F3F7D
:10422000B6C9963C43EC7F3FB00AC93C29E17F3FC9
:10423000B949FB3C98D37F3F2CC3163D8FC37F3FCA
:1042400007E02F3D0FB17F3F2FFB483D189C7F3F7C
:104250006814623DAB847F3F742B7B3DC76A7F3F10
:104260000A208A3D6D4E7F3F05A9963D9D2F7F3FD9
:104270008C30A33D580E7F3F80B6AF3D9DEA7E3F18
:10428000C33ABC3D6DC47E3F36BDC83DC99B7E3F31
:10429000B93DD53DB0707E3F2EBCE13D23437E3F0E
:1042A0007638EE3D24137E3F73B2FA3DB1E07D3F98
:1042B0000295033ECCAB7D3F86CF093E74747D3FB3
:1042C000B708103EAC3A7D3F8340163E73FE7C3FFC
:1042D000DE761C3EC9BF7C3FB6AB223EB07E7C3F43
:1042E000FCDE283E283B7C3FA2102F3E31F57B3F71
:1042F0009840353ECDAC7B3FCF6E3B3EFC617B3F73
:10430000379B413EBE147B3FC2C5473E16C57A3F30
:1043100060EE4D3E02737A3F0115543E841E7A3F93
:1043200097395A3E9DC7793F135C603E4E6E793F88
:10433000667C663E9812793F7F9A6C3E7BB4783FEC
:1043400051B6723EF853783FCCCF783E10F1773FAC
:10435000E1E67E3EC58B773FC07D823E1724773FE6
:10436000CE86853E07BA763F938E883E974D763F40
:1043700007958B3EC6DE753F229A8E3E976D753F40
:10438000DD9D913E0BFA743F31A0943E2284743F30
:1043900017A1973EDD0B743F86A09A3E3F91733F75
:1043A000789E9D3E4714733FE59AA03EF894723F75
:1043B000C595A33E5213723F128FA63E578F713F91
:1043C000C486A93E0809713FD47CAC3E6680703F2C
:1043D0003A71AF3E73F56F3FEF63B23E30686F3FA7
:1043E000EC54B53E9ED86E3F2A44B83EBE466E3F62
:1043F000A031BB3E93B26D3F4A1DBE3E1D1C6D3FBA
:104400001E07C13E5E836C3F15EFC33E58E86B3F0D
:1044100029D5C63E0C4B6B3F53B9C93E7BAB6A3FB7
:104420008B9BCC3EA7096A3FCA7BCF3E9165693F13
:10443000095AD23E3CBF683F4136D53EA816683F78
:104440006B10D83ED86B673F80E8DA3ECCBE663F43
:1044500079BEDD3E880F663F4F92E03E0B5E653FC2
:10446000FA63E33E59AA643F7533E63E73F4633F53
:10447000B700E93E5A3C633FBBCBEB3E1082623F44
:104480007994EE3E98C5613FEA5AF13EF206613FEB
:10449000071FF43E2146603FCBE0F63E27835F3F97
:1044A0002DA0F93E05BE5E3F275DFC3EBEF65D3F9A
:1044B000B217FF3E532D5D3FE4E7003FC7615C3F0D
:1044C000B142023F1A945B3F3D9C033F50C45A3FA8
:1044D00084F4043F6AF2593F824B063F6A1E593FFB
:1044E00036A1073F5348583F9BF5083F2670573F7A
:1044F000AD480A3FE595563F6B9A0B3F93B9553F40
:10450000D0EA0C3F31DB543FDA390E3FC3FA533F58
:1045100084870F3F4918533FCDD3103FC633523FD6
:10452000B01E123F3D4D513F2A68133FAF64503FCC
:1045300039B0143F1F7A4F3FD9F6153F908D4E3F4B
:10454000073C173F029F4D3FC07F183F79AE4C3F5D
:1045500000C2193FF8BB4B3FC6021B3F7FC74A3F13
:104560000C421C3F12D1493FD17F1D3FB3D8483F79
:1045700012BC1E3F65DE473FCBF61F3F2AE2463F97
:10458000F92F213F03E4453F9967223FF5E3443F7C
:10459000A99D233F00E2433F25D2243F29DE423F2D
:1045A0000A05263F70D8413F5636273FDAD0403FB4
:1045B0000566283F67C73F3F1594293F1BBC3E3F18
:1045C00082C02A3FF9AE3D3F4AEB2B3F03A03C3F60
:1045D00069142D3F3B8F3B3FDE3B2E3FA47C3A3F8F
:1045E000A5612F3F4268393FBB85303F1652383FA7
:1045F0001DA8313F233A373FC9C8323F6C20363FB0
:10460000BCE7333FF304353FF304353FBCE7333FAA
:104610006C20363FC9C8323F233A373F1DA8313F8F
:104620001652383FBB85303F4268393FA5612F3F66
:10463000A47C3A3FDE3B2E3F3B8F3B3F69142D3F2E
:1046400003A03C3F4AEB2B3FF9AE3D3F82C02A3FDF
:104650001BBC3E3F1594293F67C73F3F0566283F77
:10466000DAD0403F5636273F70D8413F0A05263FF3
:1046700029DE423F25D2243F00E2433FA99D233F4C
:10468000F5E3443F9967223F03E4453FF92F213F7B
:104690002AE2463FCBF61F3F65DE473F12BC1E3F76
:1046A000B3D8483FD17F1D3F12D1493F0C421C3F38
:1046B0007FC74A3FC6021B3FF8BB4B3F00C2193FB2
:1046C00079AE4C3FC07F183F029F4D3F073C173FDC
:1046D000908D4E3FD9F6153F1F7A4F3F39B0143FAA
:1046E000AF64503F2A68133F3D4D513FB01E123F0B
:1046F000C633523FCDD3103F4918533F84870F3FF5
:10470000C3FA533FDA390E3F31DB543FD0EA0C3F56
:1047100093B9553F6B9A0B3FE595563FAD480A3F1D
:104720002670573F9BF5083F5348583F36A1073F37
:104730006A1E593F824B063F6AF2593F84F4043F98
:1047400050C45A3F3D9C033F1A945B3FB142023F25
:10475000C7615C3FE4E7003F532D5D3FB217FF3E6A
:10476000BEF65D3F275DFC3E05BE5E3F2DA0F93ED7
:1047700027835F3FCBE0F63E2146603F071FF43EB4
:10478000F206613FEA5AF13E98C5613F7994EE3EE8
:104790001082623FBBCBEB3E5A3C633FB700E93E21
:1047A00073F4633F7533E63E59AA643FFA63E33E10
:1047B0000B5E653F4F92E03E880F663F79BEDD3E5F
:1047C000CCBE663F80E8DA3ED86B673F6B10D83EC0
:1047D000A816683F4136D53E3CBF683F095AD23ED5
:1047E0009165693FCA7BCF3EA7096A3F8B9BCC3E50
:1047F0007BAB6A3F53B9C93E0C4B6B3F29D5C63ED4
:1048000058E86B3F15EFC33E5E836C3F1E07C13E09
:104810001D1C6D3F4A1DBE3E93B26D3FA031BB3E95
:10482000BE466E3F2A44B83E9ED86E3FEC54B53E1D
:1048300030686F3FEF63B23E73F56F3F3A71AF3E42
:104840006680703FD47CAC3E0809713FC486A93EA7
:10485000578F713F128FA63E5213723FC595A33EEC
:10486000F894723FE59AA03E4714733F789E9D3EB0
:104870003F91733F86A09A3EDD0B743F17A1973E90
:104880002284743F31A0943E0BFA743FDD9D913E2B
:10489000976D753F229A8E3EC6DE753F07958B3E1B
:1048A000974D763F938E883E07BA763FCE86853EFB
:1048B0001724773FC07D823EC58B773FE1E67E3E81
:1048C00010F1773FCCCF783EF853783F51B6723E27
:1048D0007BB4783F7F9A6C3E9812793F667C663E47
:1048E0004E6E793F135C603E9DC7793F97395A3EC3
:1048F000841E7A3F0115543E02737A3F60EE4D3EAE
:1049000016C57A3FC2C5473EBE147B3F379B413E2A
:10491000FC617B3FCF6E3B3ECDAC7B3F9840353E4C
:1049200031F57B3FA2102F3E283B7C3FFCDE283E2A
:10493000B07E7C3FB6AB223EC9BF7C3FDE761C3EDC
:1049400073FE7C3F8340163EAC3A7D3FB708103E75
:1049500074747D3F86CF093ECCAB7D3F0295033E0C
:10496000B1E07D3F73B2FA3D24137E3F7638EE3DD1
:1049700023437E3F2EBCE13DB0707E3FB93DD53D27
:10498000C99B7E3F36BDC83D6DC47E3FC33ABC3D2A
:104990009DEA7E3F80B6AF3D580E7F3F8C30A33DF1
:1049A0009D2F7F3F05A9963D6D4E7F3F0A208A3D92
:1049B000C76A7F3F742B7B3DAB847F3F6814623DA9
:1049C000189C7F3F2FFB483D0FB17F3F07E02F3DF5
:1049D0008FC37F3F2CC3163D98D37F3FB949FB3C23
:1049E00029E17F3FB00AC93C43EC7F3FB6C9963C02
:1049F000E6F47F3F900E493C11FB7F3F890FC93B96
:104A0000C4FE7F3F000000000000803F890FC9BB4B
:104A1000C4FE7F3F900E49BC11FB7F3FB6C996BCD8
:104A2000E6F47F3FB00AC9BC43EC7F3FB949FBBC09
:104A300029E17F3F2CC316BD98D37F3F07E02FBDF0
:104A40008FC37F3F2FFB48BD0FB17F3F681462BD0E
:104A5000189C7F3F742B7BBDAB847F3F0A208ABDAF
:104A6000C76A7F3F05A996BD6D4E7F3F8C30A3BDC1
:104A70009D2F7F3F80B6AFBD580E7F3FC33ABCBD70
:104A80009DEA7E3F36BDC8BD6DC47E3FB93DD5BDF4
:104A9000C99B7E3F2EBCE1BDB0707E3F7638EEBD37
:104AA00023437E3F73B2FABD24137E3F029503BEBB
:104AB000B1E07D3F86CF09BECCAB7D3FB70810BECD
:104AC00074747D3F834016BEAC3A7D3FDE761CBEDB
:104AD00073FE7C3FB6AB22BEC9BF7C3FFCDE28BE66
:104AE000B07E7C3FA2102FBE283B7C3F984035BE55
:104AF00031F57B3FCF6E3BBECDAC7B3F379B41BE9C
:104B0000FC617B3FC2C547BEBE147B3F60EE4DBE1D
:104B100016C57A3F011554BE02737A3F97395ABEC3
:104B2000841E7A3F135C60BE9DC7793F667C66BE7B
:104B30004E6E793F7F9A6CBE9812793F51B672BE25
:104B40007BB4783FCCCF78BEF853783FE1E67EBEA9
:104B500010F1773FC07D82BEC58B773FCE8685BE84
:104B60001724773F938E88BE07BA763F07958BBE92
:104B7000974D763F229A8EBEC6DE753FDD9D91BE73
:104B8000976D753F31A094BE0BFA743F17A197BE85
:104B90002284743F86A09ABEDD0B743F789E9DBE32
:104BA0003F91733FE59AA0BE4714733FC595A3BEDE
:104BB000F894723F128FA6BE5213723FC486A9BEEC
:104BC000578F713FD47CACBE0809713F3A71AFBEBC
:104BD0006680703FEF63B2BE73F56F3FEC54B5BEB5
:104BE00030686F3F2A44B8BE9ED86E3FA031BBBE2E
:104BF000BE466E3F4A1DBEBE93B26D3F1E07C1BE8C
:104C00001D1C6D3F15EFC3BE5E836C3F29D5C6BE2C
:104C100058E86B3F53B9C9BE0C4B6B3F8B9BCCBE66
:104C20007BAB6A3FCA7BCFBEA7096A3F095AD2BE97
:104C30009165693F4136D5BE3CBF683F6B10D8BE19
:104C4000A816683F80E8DABED86B673F79BEDDBE44
:104C5000CCBE663F4F92E0BE880F663FFA63E3BE6C
:104C60000B5E653F7533E6BE59AA643FB700E9BEE7
:104C700073F4633FBBCBEBBE5A3C633F7994EEBE0B
:104C80001082623FEA5AF1BE98C5613F071FF4BE29
:104C9000F206613FCBE0F6BE2146603F2DA0F9BE93
:104CA00027835F3F275DFCBE05BE5E3FB217FFBE98
:104CB000BEF65D3FE4E700BF532D5D3FB14202BF4A
:104CC000C7615C3F3D9C03BF1A945B3F84F404BF03
:104CD00050C45A3F824B06BF6AF2593F36A107BF04
:104CE0006A1E593F9BF508BF5348583FAD480ABF5D
:104CF0002670573F6B9A0BBFE595563FD0EA0CBF25
:104D000093B9553FDA390EBF31DB543F84870FBF6B
:104D1000C3FA533FCDD310BF4918533FB01E12BF43
:104D2000C633523F2A6813BF3D4D513F39B014BFBF
:104D3000AF64503FD9F615BF1F7A4F3F073C17BFEE
:104D4000908D4E3FC07F18BF029F4D3F00C219BFDC
:104D500079AE4C3FC6021BBFF8BB4B3F0C421CBF99
:104D60007FC74A3FD17F1DBF12D1493F12BC1EBF32
:104D7000B3D8483FCBF61FBF65DE473FF92F21BFB1
:104D80002AE2463F996722BF03E4453FA99D23BF1E
:104D9000F5E3443F25D224BF00E2433F0A0526BF86
:104DA00029DE423F563627BF70D8413F056628BFEF
:104DB000DAD0403F159429BF67C73F3F82C02ABF62
:104DC0001BBC3E3F4AEB2BBFF9AE3D3F69142DBFE4
:104DD00003A03C3FDE3B2EBF3B8F3B3FA5612FBF77
:104DE000A47C3A3FBB8530BF4268393F1DA831BF24
:104DF0001652383FC9C832BF233A373FBCE733BFEA
:104E00006C20363FF30435BFF304353F6C2036BFCA
:104E1000BCE7333F233A37BFC9C8323F165238BFC9
:104E20001DA8313F426839BFBB85303FA47C3ABFE3
:104E3000A5612F3F3B8F3BBFDE3B2E3F03A03CBF16
:104E400069142D3FF9AE3DBF4AEB2B3F1BBC3EBF63
:104E500082C02A3F67C73FBF1594293FDAD040BFC1
:104E60000566283F70D841BF5636273F29DE42BF2E
:104E70000A05263F00E243BF25D2243FF5E344BFA5
:104E8000A99D233F03E445BF9967223F2AE246BF1D
:104E9000F92F213F65DE47BFCBF61F3FB3D848BF90
:104EA00012BC1E3F12D149BFD17F1D3F7FC74ABFF1
:104EB0000C421C3FF8BB4BBFC6021B3F79AE4CBF38
:104EC00000C2193F029F4DBFC07F183F908D4EBF5B
:104ED000073C173F1F7A4FBFD9F6153FAF6450BF4D
:104EE00039B0143F3D4D51BF2A68133FC63352BFFE
:104EF000B01E123F491853BFCDD3103FC3FA53BF62
:104F000084870F3F31DB54BFDA390E3F93B955BF69
:104F1000D0EA0C3FE59556BF6B9A0B3F267057BF02
:104F2000AD480A3F534858BF9BF5083F6A1E59BF1A
:104F300036A1073F6AF259BF824B063F50C45ABFA1
:104F400084F4043F1A945BBF3D9C033FC7615CBF80
:104F5000B142023F532D5DBFE4E7003FBEF65DBFA7
:104F6000B217FF3E05BE5EBF275DFC3E27835FBFD5
:104F70002DA0F93E214660BFCBE0F63EF20661BFB0
:104F8000071FF43E98C561BFEA5AF13E108262BF26
:104F90007994EE3E5A3C63BFBBCBEB3E73F463BFE8
:104FA000B700E93E59AA64BF7533E63E0B5E65BFA4
:104FB000FA63E33E880F66BF4F92E03ECCBE66BF09
:104FC00079BEDD3ED86B67BF80E8DA3EA81668BFC1
:104FD0006B10D83E3CBF68BF4136D53E916569BF76
:104FE000095AD23EA7096ABFCA7BCF3E7BAB6ABFD4
:104FF0008B9BCC3E0C4B6BBF53B9C93E58E86BBF83
:1050000029D5C63E5E836CBF15EFC33E1D1C6DBF28
:105010001E07C13E93B26DBF4A1DBE3EBE466EBF67
:10502000A031BB3E9ED86EBF2A44B83E30686FBFE9
:10503000EC54B53E73F56FBFEF63B23E668070BF50
:105040003A71AF3E080971BFD47CAC3E578F71BF37
:10505000C486A93E521372BF128FA63EF89472BF47
:10506000C595A33E471473BFE59AA03E3F9173BF19
:10507000789E9D3EDD0B74BF86A09A3E228474BF4D
:1050800017A1973E0BFA74BF31A0943E976D75BF80
:10509000DD9D913EC6DE75BF229A8E3E974D76BF4E
:1050A00007958B3E07BA76BF938E883E172477BF4D
:1050B000CE86853EC58B77BFC07D823E10F177BF1F
:1050C000E1E67E3EF85378BFCCCF783E7BB478BF24
:1050D00051B6723E981279BF7F9A6C3E4E6E79BF80
:1050E000667C663E9DC779BF135C603E841E7ABFB6
:1050F00097395A3E02737ABF0115543E16C57ABFDE
:1051000060EE4D3EBE147BBFC2C5473EFC617BBF17
:10511000379B413ECDAC7BBFCF6E3B3E31F57BBF75
:105120009840353E283B7CBFA2102F3EB07E7CBF0E
:10513000FCDE283EC9BF7CBFB6AB223E73FE7CBFFF
:10514000DE761C3EAC3A7DBF8340163E74747DBF54
:10515000B708103ECCAB7DBF86CF093EB1E07DBF26
:105160000295033E24137EBF73B2FA3D23437EBFF4
:105170007638EE3DB0707EBF2EBCE13DC99B7EBF50
:10518000B93DD53D6DC47EBF36BDC83D9DEA7EBFED
:10519000C33ABC3D580E7FBF80B6AF3D9D2F7FBF49
:1051A0008C30A33D6D4E7FBF05A9963DC76A7FBF7A
:1051B0000A208A3DAB847FBF742B7B3D189C7FBF48
:1051C0006814623D0FB17FBF2FFB483D8FC37FBF87
:1051D00007E02F3D98D37FBF2CC3163D29E17FBF49
:1051E000B949FB3C43EC7FBFB00AC93CE6F47FBF42
:1051F000B6C9963C11FB7FBF900E493CC4FE7FBFF1
:10520000890FC93B000080BF00000000C4FE7FBFC3
:10521000890FC9BB11FB7FBF900E49BCE6F47FBF6D
:10522000B6C996BC43EC7FBFB00AC9BC29E17FBFB9
:10523000B949FBBC98D37FBF2CC316BD8FC37FBFBA
:1052400007E02FBD0FB17FBF2FFB48BD189C7FBF6C
:10525000681462BDAB847FBF742B7BBDC76A7FBF00
:105260000A208ABD6D4E7FBF05A996BD9D2F7FBFC9
:105270008C30A3BD580E7FBF80B6AFBD9DEA7EBF08
:10528000C33ABCBD6DC47EBF36BDC8BDC99B7EBF21
:10529000B93DD5BDB0707EBF2EBCE1BD23437EBFFE
:1052A0007638EEBD24137EBF73B2FABDB1E07DBF88
:1052B000029503BECCAB7DBF86CF09BE74747DBFA3
:1052C000B70810BEAC3A7DBF834016BE73FE7CBFEC
:1052D000DE761CBEC9BF7CBFB6AB22BEB07E7CBF33
:1052E000FCDE28BE283B7CBFA2102FBE31F57BBF61
:1052F000984035BECDAC7BBFCF6E3BBEFC617BBF63
:10530000379B41BEBE147BBFC2C547BE16C57ABF20
:1053100060EE4DBE02737ABF011554BE841E7ABF83
:1053200097395ABE9DC779BF135C60BE4E6E79BF78
:10533000667C66BE981279BF7F9A6CBE7BB478BFDC
:1053400051B672BEF85378BFCCCF78BE10F177BF9C
:10535000E1E67EBEC58B77BFC07D82BE172477BFD6
:10536000CE8685BE07BA76BF938E88BE974D76BF30
:1053700007958BBEC6DE75BF229A8EBE976D75BF30
:10538000DD9D91BE0BFA74BF31A094BE228474BF20
:1053900017A197BEDD0B74BF86A09ABE3F9173BF65
:1053A000789E9DBE471473BFE59AA0BEF89472BF65
:1053B000C595A3BE521372BF128FA6BE578F71BF81
:1053C000C486A9BE080971BFD47CACBE668070BF1C
:1053D0003A71AFBE73F56FBFEF63B2BE30686FBF97
:1053E000EC54B5BE9ED86EBF2A44B8BEBE466EBF52
:1053F000A031BBBE93B26DBF4A1DBEBE1D1C6DBFAA
:105400001E07C1BE5E836CBF15EFC3BE58E86BBFFD
:1054100029D5C6BE0C4B6BBF53B9C9BE7BAB6ABFA7
:105420008B9BCCBEA7096ABFCA7BCFBE916569BF03
:10543000095AD2BE3CBF68BF4136D5BEA81668BF68
:105440006B10D8BED86B67BF80E8DABECCBE66BF33
:1054500079BEDDBE880F66BF4F92E0BE0B5E65BFB2
:10546000FA63E3BE59AA64BF7533E6BE73F463BF43
:10547000B700E9BE5A3C63BFBBCBEBBE108262BF34
:105480007994EEBE98C561BFEA5AF1BEF20661BFDB
:10549000071FF4BE214660BFCBE0F6BE27835FBF87
:1054A0002DA0F9BE05BE5EBF275DFCBEBEF65DBF8A
:1054B000B217FFBE532D5DBFE4E700BFC7615CBFFD
:1054C000B14202BF1A945BBF3D9C03BF50C45ABF98
:1054D00084F404BF6AF259BF824B06BF6A1E59BFEB
:1054E00036A107BF534858BF9BF508BF267057BF6A
:1054F000AD480ABFE59556BF6B9A0BBF93B955BF30
:10550000D0EA0CBF31DB54BFDA390EBFC3FA53BF48
:1055100084870FBF491853BFCDD310BFC63352BFC6
:10552000B01E12BF3D4D51BF2A6813BFAF6450BFBC
:1055300039B014BF1F7A4FBFD9F615BF908D4EBF3B
:10554000073C17BF029F4DBFC07F18BF79AE4CBF4D
:1055500000C219BFF8BB4BBFC6021BBF7FC74ABF03
:105560000C421CBF12D149BFD17F1DBFB3D848BF69
:1055700012BC1EBF65DE47BFCBF61FBF2AE246BF87
:10558000F92F21BF03E445BF996722BFF5E344BF6C
:10559000A99D23BF00E243BF25D224BF29DE42BF1D
:1055A0000A0526BF70D841BF563627BFDAD040BFA4
:1055B000056628BF67C73FBF159429BF1BBC3EBF08
:1055C00082C02ABFF9AE3DBF4AEB2BBF03A03CBF50
:1055D00069142DBF3B8F3BBFDE3B2EBFA47C3ABF7F
:1055E000A5612FBF426839BFBB8530BF165238BF97
:1055F0001DA831BF233A37BFC9C832BF6C2036BFA0
:10560000BCE733BFF30435BFF30435BFBCE733BF9A
:105610006C2036BFC9C832BF233A37BF1DA831BF7F
:10562000165238BFBB8530BF426839BFA5612FBF56
:10563000A47C3ABFDE3B2EBF3B8F3BBF69142DBF1E
:1056400003A03CBF4AEB2BBFF9AE3DBF82C02ABFCF
:105650001BBC3EBF159429BF67C73FBF056628BF67
:10566000DAD040BF563627BF70D841BF0A0526BFE3
:1056700029DE42BF25D224BF00E243BFA99D23BF3C
:10568000F5E344BF996722BF03E445BFF92F21BF6B
:105690002AE246BFCBF61FBF65DE47BF12BC1EBF66
:1056A000B3D848BFD17F1DBF12D149BF0C421CBF28
:1056B0007FC74ABFC6021BBFF8BB4BBF00C219BFA2
:1056C00079AE4CBFC07F18BF029F4DBF073C17BFCC
:1056D000908D4EBFD9F615BF1F7A4FBF39B014BF9A
:1056E000AF6450BF2A6813BF3D4D51BFB01E12BFFB
:1056F000C63352BFCDD310BF491853BF84870FBFE5
:10570000C3FA53BFDA390EBF31DB54BFD0EA0CBF46
:1057100093B955BF6B9A0BBFE59556BFAD480ABF0D
:10572000267057BF9BF508BF534858BF36A107BF27
:105730006A1E59BF824B06BF6AF259BF84F404BF88
:1057400050C45ABF3D9C03BF1A945BBFB14202BF15
:10575000C7615CBFE4E700BF532D5DBFB217FFBE5A
:10576000BEF65DBF275DFCBE05BE5EBF2DA0F9BEC7
:1057700027835FBFCBE0F6BE214660BF071FF4BEA4
:10578000F20661BFEA5AF1BE98C561BF7994EEBED8
:10579000108262BFBBCBEBBE5A3C63BFB700E9BE11
:1057A00073F463BF7533E6BE59AA64BFFA63E3BE00
:1057B0000B5E65BF4F92E0BE880F66BF79BEDDBE4F
:1057C000CCBE66BF80E8DABED86B67BF6B10D8BEB0
:1057D000A81668BF4136D5BE3CBF68BF095AD2BEC5
:1057E000916569BFCA7BCFBEA7096ABF8B9BCCBE40
:1057F0007BAB6ABF53B9C9BE0C4B6BBF29D5C6BEC4
:1058000058E86BBF15EFC3BE5E836CBF1E07C1BEF9
:105810001D1C6DBF4A1DBEBE93B26DBFA031BBBE85
:10582000BE466EBF2A44B8BE9ED86EBFEC54B5BE0D
:1058300030686FBFEF63B2BE73F56FBF3A71AFBE32
:10584000668070BFD47CACBE080971BFC486A9BE97
:10585000578F71BF128FA6BE521372BFC595A3BEDC
:10586000F89472BFE59AA0BE471473BF789E9DBEA0
:105870003F9173BF86A09ABEDD0B74BF17A197BE80
:10588000228474BF31A094BE0BFA74BFDD9D91BE1B
:10589000976D75BF229A8EBEC6DE75BF07958BBE0B
:1058A000974D76BF938E88BE07BA76BFCE8685BEEB
:1058B000172477BFC07D82BEC58B77BFE1E67EBE71
:1058C00010F177BFCCCF78BEF85378BF51B672BE17
:1058D0007BB478BF7F9A6CBE981279BF667C66BE37
:1058E0004E6E79BF135C60BE9DC779BF97395ABEB3
:1058F000841E7ABF011554BE02737ABF60EE4DBE9E
:1059000016C57ABFC2C547BEBE147BBF379B41BE1A
:10591000FC617BBFCF6E3BBECDAC7BBF984035BE3C
:1059200031F57BBFA2102FBE283B7CBFFCDE28BE1A
:10593000B07E7CBFB6AB22BEC9BF7CBFDE761CBECC
:1059400073FE7CBF834016BEAC3A7DBFB70810BE65
:1059500074747DBF86CF09BECCAB7DBF029503BEFC
:10596000B1E07DBF73B2FABD24137EBF7638EEBDC1
:1059700023437EBF2EBCE1BDB0707EBFB93DD5BD17
:10598000C99B7EBF36BDC8BD6DC47EBFC33ABCBD1A
:105990009DEA7EBF80B6AFBD580E7FBF8C30A3BDE1
:1059A0009D2F7FBF05A996BD6D4E7FBF0A208ABD82
:1059B000C76A7FBF742B7BBDAB847FBF681462BD99
:1059C000189C7FBF2FFB48BD0FB17FBF07E02FBDE5
:1059D0008FC37FBF2CC316BD98D37FBFB949FBBC13
:1059E00029E17FBFB00AC9BC43EC7FBFB6C996BCF2
:1059F000E6F47FBF900E49BC11FB7FBF890FC9BB86
:105A0000C4FE7FBF00000080000080BF890FC93B3B
:105A1000C4FE7FBF900E493C11FB7FBFB6C9963CC8
:105A2000E6F47FBFB00AC93C43EC7FBFB949FB3CF9
:105A300029E17FBF2CC3163D98D37FBF07E02F3DE0
:105A40008FC37FBF2FFB483D0FB17FBF6814623DFE
:105A5000189C7FBF742B7B3DAB847FBF0A208A3D9F
:105A6000C76A7FBF05A9963D6D4E7FBF8C30A33DB1
:105A70009D2F7FBF80B6AF3D580E7FBFC33ABC3D60
:105A80009DEA7EBF36BDC83D6DC47EBFB93DD53DE4
:105A9000C99B7EBF2EBCE13DB0707EBF7638EE3D27
:105AA00023437EBF73B2FA3D24137EBF0295033EAB
:105AB000B1E07DBF86CF093ECCAB7DBFB708103EBD
:105AC00074747DBF8340163EAC3A7DBFDE761C3ECB
:105AD00073FE7CBFB6AB223EC9BF7CBFFCDE283E56
