:020000040800F2
:10000000B0040020A101000807180008F916000834
:10001000051800084F0700081B1E0008000000001C
:100020000000000000000000000000000B180008A5
:100030005107000800000000091800080D1800080A
:10004000BB010008BB010008BB010008BB010008A0
:10005000BB010008BB010008BB010008BB01000890
:10006000BB010008BB010008BB010008BB01000880
:10007000BB010008BB010008BB010008BB01000870
:10008000BB010008BB010008BB010008BB01000860
:10009000BB010008BB010008BB010008BB01000850
:1000A000BB010008BB010008BB010008BB01000840
:1000B000B5180008BB010008BB010008BB0100081F
:1000C000BB010008BB010008BB010008BB01000820
:1000D000BB010008BB010008BB010008BB01000810
:1000E000BB010008BB010008BB010008BB01000800
:1000F000BB010008BB010008BB010008BB010008F0
:10010000BB010008BB010008BB010008BB010008DF
:10011000BB010008BB010008BB010008BB010008CF
:10012000BB010008BB010008BB010008BB010008BF
:10013000BB010008BB010008BB010008BB010008AF
:10014000BB010008BB010008BB010008BB0100089F
:10015000BB010008BB010008BB010008BB0100088F
:10016000BB010008BB010008BB010008BB0100087F
:10017000BB010008BB010008BB0100080000000033
:10018000BB010008BB010008DFF810D000F05EFAE8
:100190000048004721270008AFF30080B00400208A
:1001A0000648804706480047FEE7FEE7FEE7FEE711
:1001B000FEE7FEE7FEE7FEE7FEE7FEE7A51800081C
:1001C000890100082DE9F05F0546002092469B4614
:1001D00088460646814640241BE02846414647465D
:1001E000224600F06AF853465A46C01A914110D38D
:1001F00011461846224600F051F82D1A67EB010807
:100200004F4622460120002100F048F817EB000974
:100210004E41201EA4F10104DFDC484631462A4647
:100220004346BDE8F09FD2B201E000F8012B491E21
:10023000FBD270470022F6E710B513460A46044683
:100240001946FFF7F0FF204610BD00F0004230F0E5
:1002500000400AD0C10D01F56071C0F3160042EAFA
:100260000151C20840071143704700200146704702
:1002700030B50B46014600202022012409E021FA76
:1002800002F59D4205D303FA02F5491B04FA02F573
:100290002844151EA2F10102F1DC30BD202A04DB46
:1002A000203A00FA02F1002070479140C2F1200389
:1002B00020FA03F3194390407047202A04DB203AC8
:1002C00021FA02F00021704721FA02F3D040C2F176
:1002D000200291400843194670472DE9FE4F8046A1
:1002E00081EA0300C00F0C46009021F0004123F08A
:1002F0000045B8EB0200A94105D240462146904690
:100300001C460B46024623F00040104347D0270D01
:10031000C7F30A00C3F30A510290401A0190402823
:100320006BDAC3F3130040F4801B0098924620B1AF
:100330000023D2EB030A63EB0B0B01985946C0F183
:1003400040025046FFF7AAFF06460D465046594662
:10035000019A00F08DF910EB08006141002487EA52
:10036000115284EAE7731A4340D0009A62B3019AAB
:10037000012A4FEA075215DC001B61EB02014FF026
:10038000004202EA0752CDE90042001C41F580110B
:1003900032462B4600F08DF903B0BDE8F08F4046A1
:1003A0002146F9E7001B61EB0201001C41F58013B7
:1003B00000185B412018A2F5001747EB030140EA43
:1003C000D570B6196D4111E06D084FEA360645EA61
:1003D000C0754FEA0752001B61EB0201001C41F59A
:1003E000801149084FEA30000019514132462B462E
:1003F00003B0BDE8F04F00F04DB900980122400075
:100400000023D0EB020263EBE073009821464FEA31
:10041000E074B8EB000061EB0401E9E783F000430E
:100420005BE781F0004158E72DE9FE4F81EA0304C4
:1004300004F0004421F0004100944FF0000B23F041
:10044000004350EA01045ED052EA03045BD0C3F3D8
:100450000A54C1F30A552C44A4F2F3340194A0FBCE
:100460000254C1F3130141F48011C3F3130343F4A5
:10047000801301FB024400FB034E840A970A44EAFE
:10048000815447EA8357A4FB076802958D0A05FB50
:1004900007854FEA932C04FB0C542705029D4FEA75
:1004A000065847EA1637B5EB08056EEB070C870EC2
:1004B000920E47EA811742EA8312A7FB0201B6EBCC
:1004C0000B0164EB00042B0D43EA0C335E1844EB84
:1004D0001C50DA465146E7FB0201C5F313044FEA0C
:1004E0000B3343EA14534FEA0432019C43EA0603F8
:1004F000A4F10C040294009CCDE900B400F0D9F8FA
:1005000003B0BDE8F08F00200146F9E72DE9F04D7A
:1005100081EA030404F0004B21F0004514464FF03B
:10052000000A23F0004150EA050220D054EA0102FB
:100530001DD0C5F30A570246C5F31303C1F31300D8
:10054000C1F30A5640F4801543F48013A7EB060864
:10055000101BD64608F2FD3873EB050002D308F1F4
:10056000010801E092185B41B8F1000F03DA0020A6
:100570000146BDE8F08D00204FF480110646844608
:100580000EE0171B73EB050705D3121B63EB050386
:1005900006434CEA010C49084FEA300092185B41CF
:1005A00050EA0107EDD152EA030012D082EA0400BA
:1005B00083EA0501084305D0101BAB4106D2012296
:1005C000002306E000224FF0004302E06FF001023A
:1005D00053101AEB06004CEB085110EB0A0041EBEC
:1005E0000B01BDE8F04D00F055B8C1F30A52C1F35C
:1005F000130140F2FF3341F480119A4202DA0020E5
:100600000146704740F233439A42A2F2334202DC81
:100610005242FFF752BEFFF741BE000030B5041E44
:1006200071F1000404DB4FF00044404264EB01012F
:10063000141E73F1000405DB1C464FF000435242C8
:1006400063EB0403994208BF904230BD064C074D4E
:1006500006E0E06840F0010394E807009847103492
:10066000AC42F6D3FFF794FDE0270008002800080D
:10067000202A06DBCB17203A41FA02F043EAE07366
:1006800006E041FA02F3D040C2F120029140084353
:100690001946704710B5141E73F1000408DA401CA7
:1006A00041F1000192185B411A4301D120F0010091
:1006B00010BD2DE9F04D92469B4611B1B1FA81F281
:1006C00002E0B0FA80F220329046FFF7E7FD0446E0
:1006D0000F4640EA0A0041EA0B0153465A460843D6
:1006E00013D0114653EA010019D0C8F14002504618
:1006F000FFF7E3FD05460E46504659464246FFF7D2
:10070000CDFD084305D0012004E020463946BDE870
:10071000F08D0020054346EAE0762C4337430A98E3
:100720006305E40AA0EB08000022FD0A44EA4754EE
:100730000A3002D500200146E9E701051019694198
:10074000DDE9084500196941BDE8F04DA2E7FEE783
:10075000704772B6FEE7000070B5044600F006F977
:100760000546601C02D004480078044400F0FEF8FE
:10077000401BA042FAD370BD0C0000202DE9F84FB9
:10078000DFF8BCA10022012503264FF00F090AF172
:10079000040BAAF1040E00BF0B6805FA02F4234013
:1007A000A34270D10F7907F00307012F01D0022F68
:1007B00016D187684FEA420806FA08FC27EA0C07B8
:1007C000D1F80CC00CFA08FC4CEA070CC0F808C0C1
:1007D0004768A7430C79C4F3001494403C43446039
:1007E0000C79E443A4070AD0C4684FEA420C06FA25
:1007F0000CF7BC438F6807FA0CF72743C7600C79E6
:1008000004F00304022C12D1D40800EB840CDCF8B1
:1008100020405707FF0E09FA07F824EA0804D1F828
:10082000108008FA07F848EA0408CCF82080046829
:100830004FEA420C06FA0CF7BC430F7907F00307A6
:1008400007FA0CF7274307604C6814F4403F70D058
:100850003C4C276847F480472760246822F0030750
:1008600004F480440094384C07EB040CDCF808488E
:1008700097074FEA177809FA08F7BC43334FB84295
:1008800002D1002724E054E0314FB84201D10127C2
:100890001EE0304FB84201D1022719E02E4FB84276
:1008A00001D1032714E02D4FB84201D104270FE0F6
:1008B0002B4FB84201D105270AE02A4FB84201D197
:1008C000062705E0284FB84201D1072700E0082796
:1008D00007FA08F72743CCF80878DAF800405746BB
:1008E000D1F804C09C435FEACC2C00D51C433C608B
:1008F000DBF800405F46D1F804C09C435FEA8C2CD3
:1009000000D51C433C60DEF800407746D1F804C0B7
:100910009C435FEA8C3C00D51C433C60084F083F79
:100920003C68D1F804C09C435FEACC3C00D51C4332
:100930003C60521C102AFFF42FAFBDE8F88F000076
:10094000083C0140443802400030014000000240B1
:100950000004024000080240000C02400010024067
:100960000014024000180240001C02400148806848
:10097000704700000C000020024881680278114492
:10098000816070470C0000200B4810B5016841F4ED
:1009900000710160016841F480610160016841F407
:1009A00080710160032000F06FF80F2000F006F85E
:1009B00000F024F8002010BD003C024070B50D4D41
:1009C00004464FF47A712878B1FBF0F00A490968BF
:1009D000B1FBF0F000F00CFB48B9102C07D200225C
:1009E0002146501E00F030F800206C6070BD0120E0
:1009F00070BD00000C000020180000200A4808B557
:100A0000016841F480410160006800F4804000907A
:100A10000548001F016841F080510160006800F046
:100A20008050009008BD000044380240002809DBD7
:100A300000F01F02012191404009800000F1E020F8
:100A4000C0F8001170470000F0B40E4B1B680C4654
:100A5000C3F30223C3F10705042D00D90425191D92
:100A6000072901D2002300E0DB1E012606FA05F16A
:100A7000491E214099409E40761E16403143F0BCED
:100A800001F0DCB90CED00E0064900F0070208684F
:100A90004FF6FF03184040EA0220034A1043086063
:100AA000704700000CED00E00000FA052DE9F0476A
:100AB0000E46050065D0DFF81481D8F80000F7B2C3
:100AC00000F00700B04207D288F80070D8F80000A4
:100AD00000F00700B04254D128683D4C810712D580
:100AE000400703D5206840F4E050206028780007D4
:100AF00003D5206840F4604020602068A96820F099
:100B0000F000084320602878C0072DD0304968687D
:100B10000839012812D0022813D0032811D00968FF
:100B2000890700292DDA216821F0030101432160A2
:100B3000FFF71CFF814641F2883A0EE009688903FD
:100B4000EFE709688901ECE7FFF710FFA0EB090167
:100B5000514502D90320BDE8F0872068696800F09C
:100B60000C00B0EB810FEFD1D8F80010404601F037
:100B70000701B14207D90770006800F00700B042D2
:100B800001D00120E7E72878400705D52068E9680B
:100B900020F4E050084320602878000706D520683C
:100BA000296920F4604040EAC100206000F038F874
:100BB0002168084AC1F30311515CC8400649086026
:100BC00006480068FFF7FAFE0020C4E7003C024038
:100BD00008380240C8270008180000201000002034
:100BE0000448054900680968044AC1F38221515C40
:100BF000C84070471800002008380240D827000875
:100C00000448054900680968044AC1F34231515C4F
:100C1000C84070471800002008380240D827000854
:100C2000154810B5006810F00C02144813D0144990
:100C3000042A0FD0082A0ED10F4C241F22682368E3
:100C400002F03F025B0207D52068C0F38810A0FBCA
:100C5000010106E0084610BD2168C1F38811A1FB1F
:100C600000010023FFF7AEFA2168C1F30141491CDE
:100C70004900B0FBF1F010BD083802400024F40038
:100C800040787D012DE9F84F04006ED02078DFF820
:100C90004C93C007A9F104054AD009F1040001688A
:100CA000C1F38101012908D00068C0F38100022846
:100CB0000AD1D9F80000400206D52868800337D54C
:100CC00060680028E1D033E06068B0F5803F10D064
:100CD000B0F5A02F286810D020F480302860286854
:100CE00020F4802028606068A8B1FFF73FFE064628
:100CF0000DE0286840F48030F4E740F4802028605C
:100D0000F7E700BFFFF732FE801B642873D828681E
:100D10008003F7D50CE0FFF729FE064605E000BF8B
:100D2000FFF724FE801B6428F0D828688003F7D4DE
:100D30002078DFF8AC8280074FF0000A3ED5A74844
:100D4000001D016811F00C0F08D00068C0F381008D
:100D500002280BD1D9F80000400207D42868800788
:100D600016D5E068012800D112E033E1E068B8B19F
:100D70000120C8F80000FFF7F9FD064605E000BFB6
:100D8000FFF7F4FD801B0228C0D828688007F7D53C
:100D90002868216920F0F80040EAC10028600DE0D1
:100DA000C8F800A0FFF7E2FD064604E0FFF7DEFD0D
:100DB000801B02281FD828688007F7D420780007F6
:100DC00022D5864F87486169703771B10121016072
:100DD000FFF7CCFD064604E0FFF7C8FD801B0228A4
:100DE00009D838688007F7D50EE0C0F800A0FFF7F3
:100DF000BDFD064605E082E0FFF7B8FD801B022836
:100E00007DD838688007F7D42078400768D5DFF8A8
:100E1000CCB100270BF13C0BDBF80000C0000BD479
:100E2000DBF8001041F08051CBF80010DBF8000037
:100E3000012700F0805000906B4E3068C00510D440
:100E4000306840F480703060FFF790FD009005E05E
:100E5000FFF78CFD0099401A022850D83068C00571
:100E6000F6D55E4EA0686C3601280FD00528306894
:100E700010D020F001003060306820F004003060B5
:100E8000A068B8B1FFF772FD00900FE0306840F045
:100E90000100F4E740F004003060F7E7FFF766FD7B
:100EA0000099411A41F28830814266D83068800743
:100EB000F4D50EE0FFF75AFD009007E0FFF756FD6E
:100EC0000099411A41F28830814256D83068800733
:100ED000F4D42FB1DBF8001021F08051CBF80010D2
:100EE000A069C8B33D49091D0968C1F38101022900
:100EF0004AD00228504607D0C8F8600000E03CE025
:100F0000FFF734FD04463BE04746C8F86000FFF7B2
:100F10002DFD064605E000BFFFF728FD801B0228D7
:100F20002BD828688001F7D4D4E907010843A16AC7
:100F30002E4A490802EB0141626A41EA82110843E4
:100F400094F82C1040EA0161C9F8001001203866BD
:100F5000FFF70CFD044606E03EE000BFFFF706FD8C
:100F6000001B022809D828688001F7D534E000BFAB
:100F7000FFF7FCFC001B022802D90320BDE8F88F14
:100F800028688001F4D427E00128F7D0D9F80000C0
:100F9000E26900F4800191421CD1226A00F03F0115
:100FA000914217D147F6C071626A0140B1EB821FCE
:100FB00010D1A26A4FF0FF3300F4403103EB52022C
:100FC000B1EB024F06D194F82C1000F07060B0EB3A
:100FD000016F01D00120D1E70020CFE704380240A3
:100FE00000004742800E4742007000400000FFFFB3
:100FF00010B5401EB0F1807F01D3012010BD4FF02D
:10100000E02460610F21601700F018FF0020A0614C
:1010100007202061002010BD70B590F83C20012A07
:1010200032D0012480F83C40022280F83D20036841
:101030005A689D6822F070060A6832435A60134B62
:1010400002689A4214D0B2F1804F11D0104B9A42EC
:101050000ED0104B9A420BD00F4B9A4208D00F4B38
:101060009A4205D00E4B9A4202D00E4B9A4204D1BE
:10107000496825F080031943916080F83D400021C4
:1010800080F83C10084670BD022070BD0000014091
:101090000004004000080040000C00400004014033
:1010A000004001400018004010B5040003D094F83F
:1010B0003D0010B107E0012010BD002084F83C0085
:1010C000204600F01FF8022084F83D00211D206812
:1010D00000F0B8FC012084F8460084F83E0084F853
:1010E0003F0084F8400084F8410084F8420084F80E
:1010F000430084F8440084F8450084F83D00002053
:1011000010BD000010B586B0044614216846FFF7F4
:1011100091F82068B0F1804F26D11448016841F061
:1011200001010160006800F0010005900F481038CF
:10113000016841F0010101600068694600F00100AA
:10114000059003200090022001900290039001205E
:1011500004900748FFF712FB002211461C20FFF7FE
:1011600073FC1C20FFF762FC06B010BD4038024043
:101170000000024090F83D10012901D00120704785
:10118000022180F83D100168CA6842F00102CA607D
:1011900000681149884214D0B0F1804F11D00F4936
:1011A00088420ED00E4988420BD00E49884208D0A2
:1011B0000D49884205D00D49884202D00C49884229
:1011C00004D1816801F00701062903D0016841F0CC
:1011D0000101016000207047000001400004004050
:1011E00000080040000C00400004014000400140A5
:1011F0000018004070B5044690F83C000025012816
:1012000017D0012684F83C60022084F83D00206855
:10121000826822F0770222F47F42826008685028B8
:1012200038D00DDC20284FD005DC90B3102811D128
:101230004AE0022070BD302846D040280AD13BE069
:1012400060282FD070280DD0B0F5805F03D0B0F5A6
:10125000005F12D0012584F83D60002084F83C0036
:10126000284670BDCB68D1E90121206800F05FFC01
:101270002068816841F0770109E0CB68D1E901215C
:10128000206800F054FC2068816841F4804181604E
:10129000E1E719E0CA684968206800F05AFC50216B
:1012A000206806E0CA684968206800F0A3FC602155
:1012B000206800F046FCCEE7CA684968206800F064
:1012C00048FC40212068F4E7226801461046F0E718
:1012D0002DE9F041054690F83C0000260C46012817
:1012E00010D0012085F83C0072B1042A1CD0082AD5
:1012F0002CD00C2A50D00126002085F83C00304626
:10130000BDE8F0810220FBE7D4E90012E368286819
:1013100000F030FC2868816921F00C0181612868A7
:101320008169A26811430FE0D4E90012E3682868DC
:1013300000F072FC2868816921F4406181612868AD
:101340008169A26841EA02218161D5E72868D4E970
:10135000002C277B036A016A21F480710162C16954
:1013600023F4206321F0030141EA0C0121F0F00C89
:1013700039074FF420674CEA116107EA02221A4349
:10138000C16102622868C16921F00C01C16128684D
:10139000C169A26811432BE02868D4E90021E768FD
:1013A000036AD0F820C02CF4805CC0F820C0D0F8CC
:1013B0001CC023F420432CF4407C4CEA012121F48E
:1013C000704C4FF6FF7101EA07314FF4204741EAB4
:1013D0000C0107EA02321A43C16102622868C1693E
:1013E00021F44061C1612868C169A26841EA022113
:1013F000C16181E710B5040003D094F83D0010B13D
:1014000007E0012010BD002084F83C00204600F0D9
:101410001EF8022084F83D00211D206800F012FB18
:10142000012084F8460084F83E0084F83F0084F8E8
:10143000400084F8410084F8420084F8430084F8B6
:10144000440084F8450084F83D00002010BD70473A
:1014500030B50446002551B104290DD0082910D01B
:1014600094F8410094F84520012811D10EE094F839
:101470003E0094F84220F7E794F83F0094F84320A8
:10148000F2E794F8400094F84420EDE7012A01D0F7
:10149000012030BD022059B1042912D0082919D0E9
:1014A00084F8410084F845000C2944D0012540E02F
:1014B00084F83E0084F842002068C26842F00202CC
:1014C00010E084F83F0084F843002068C26842F0CE
:1014D000040207E084F8400084F844002068C268F1
:1014E00042F00802C2600122206800F013FB144998
:1014F0002068884214D0B0F1804F11D01149884241
:101500000ED0114988420BD01049884208D01049AA
:10151000884205D00F49884202D00F49884204D141
:10152000816801F00701062903D0016841F001013B
:101530000160284630BD2068C26842F01002D1E741
:10154000000001400004004000080040000C004082
:101550000004014000400140001800400246002005
:1015600041B1042909D008290AD00C2901D11068F9
:10157000006C70471068406B70471068806B704754
:101580001068C06B704770B5040004D094F8410037
:10159000002510B106E0012070BD84F840502046BF
:1015A00000F024F8242084F841002068C16821F468
:1015B0000051C160204600F071FB2068016921F4F0
:1015C000904101612068416921F02A014161206850
:1015D000C16841F40051C1606564202084F8410075
:1015E00084F842006563002070BD000010B586B02D
:1015F000044614216846FEF71DFE144920688842FF
:1016000021D113480021026842F0100202600068F4
:1016100000F0100005900E481438026842F00102F4
:101620000260006800F0010005904FF4C060009077
:101630000220CDE9010103200390072004906946B0
:101640000448FFF79BF806B010BD000000100140F1
:1016500044380240000002402DE9F843044690F867
:101660004100984616460D46202802D00220BDE8CB
:10167000F88385B17EB100206064212084F84100A8
:10168000FFF774F9A6848146E684A0682027B0F5A8
:10169000805F02D003E00120E9E7206910B12E4607
:1016A00000250EE000260CE08021204600F07CFBA7
:1016B000A8B9C6B116F8010B21684860E08C401E3D
:1016C000E084E08C4B464FF00002CDF8008000280B
:1016D000EAD14FF04001204600F066FB40B184F8AB
:1016E00041700320C3E735F8020BC0F30800E3E7BD
:1016F00084F841700020BAE7FEE70000094808B509
:10170000016841F080010160016801F080010091F1
:10171000016841F001010160006800F001000090E3
:1017200008BD00003038024010B58AB000242648B9
:1017300004940594069407940894099400940194E1
:1017400002944FF08041039401605321C0E90114D9
:101750004FF6FF71C0E9031480218161FFF7A4FCFB
:1017600008B1FEF7F6FF4FF48050049004A9164824
:10177000FFF740FD08B1FEF7ECFF1348FFF73AFE14
:1017800008B1FEF7E6FF089408A90F480994FFF78F
:1017900043FC08B1FEF7DDFF0120CDE900400294D3
:1017A0000022694608480394FFF792FD08B1FEF74E
:1017B000D0FF042269460448FFF78AFD002801D0C3
:1017C000FEF7C7FF0AB010BD200000200C4810B57E
:1017D0000A4901604FF4E1314160002181600C222F
:1017E000C160C0E904128161C161FFF7CCFE00282D
:1017F00003D0BDE81040FEF7ACBF10BD00100140A3
:1018000068000020FEE7FEE770477047FFF7B4B8B6
:1018100030B593B030216846FEF70CFD14210CA8BA
:10182000FEF708FD1D480025016841F08051016068
:10183000006800F0805011901948016841F480411F
:1018400001600068022400F48040119001200390A0
:1018500010200490009406940820CDE90750A82099
:10186000CDE9090404200B906846FFF70BFA08B194
:1018700072B6FEE70CA90F2081E831004FF4A050AA
:101880000F904FF48050109005210CA8FFF70EF92F
:10189000002801D072B6FEE713B030BD40380240D8
:1018A000007000400248016841F470010160704717
:1018B00088ED00E02DE9F0475E4C5F4D4FF6FF7775
:1018C00020786FF0010801064FF040094FF0000644
:1018D00041D429680A69D2070CD0CA68D243D2071A
:1018E00008D1420604D5C24392061ED0401C207087
:1018F000C1F810802868016989072CD5C168C943DF
:10190000890728D421784A0614D541F08000207038
:1019100000214948FFF722FEA0802868016A21F0D3
:101920000A0101622868016A10E040F0800020701E
:10193000A780DDE784F8009046622868016A21F0FC
:101940000A0101622868016A41F002010162296806
:101950006FF0020008616078010641D429680A69C5
:10196000D2070CD0CA68D243D20708D1420604D5A8
:10197000C24392061ED0401C6070C1F810802868D7
:10198000016949072CD5C168C943490728D4617842
:101990004A0614D541F08000607004212648FFF704
:1019A000DDFDE0802868016A21F0A001016228685D
:1019B000016A10E040F080006070E780DDE784F8A5
:1019C000019046622868016A21F0A001016228683E
:1019D000016A41F02001016229686FF0040008618A
:1019E0002178080623D56078020620D5A28801F068
:1019F0003F0102EB0141E28800F03F0002EB0040B2
:101A0000814201D9081A00E0401A00EE100ADFED09
:101A10000B0A0120B8EE400A20EE200ADFED080A8A
:101A200080EE201A84ED021AA07026706670BDE860
:101A3000F0870000000000202000002000C82F4890
:101A4000A037A04CF0B50268274B284D284E294FEF
:101A5000294C4FF0804C984209D0604507D0A842ED
:101A600005D0B04203D0B84201D0A04204D122F048
:101A7000700E4A6842EA0E0298421BD0604519D0A7
:101A8000A84217D0B04215D0B84213D0A04211D00E
:101A90001A4DA8420ED01A4DA8420BD0194DA8429B
:101AA00008D0194DA84205D0184DA84202D0184DB3
:101AB000A84203D122F44075CA682A434D6922F036
:101AC00080022A438D68C5620D688562984201D004
:101AD000A04201D109690163016841F0040101607C
:101AE000012141610260F0BD00000140000400409E
:101AF00000080040000C004000040140004001408C
:101B0000004401400048014000180040001C004013
:101B10000020004010B501F01F030121046A994024
:101B20008C430462016A9A401143016210BD10B5F2
:101B3000846842EA032224F47F440A4322438260F9
:101B400010BD826822F070020A4342F007018160F2
:101B5000704710B5036A046A24F0010404628469C2
:101B600024F0F00444EA021423F00A020A438461D8
:101B7000026210BD70B5056A046A24F001040462B3
:101B80008469154EB04214D0B0F1804F11D0134E7D
:101B9000B0420ED0124EB0420BD0124EB04208D01E
:101BA000114EB04205D0114EB04202D0104EB0429C
:101BB00003D124F00304144301E044F001041A07A4
:101BC00024F0F00444EA126225F00A0301F00A014D
:101BD00019438261016270BD0000014000040040B1
:101BE00000080040000C004000040140004001409B
:101BF0000018004010B5036A046A24F0100404625F
:101C0000846923F0A00324F4704444EA023243EAD6
:101C100001118261016210BD30B5046A056A25F0C8
:101C200010050562856925F4407545EA022222F413
:101C300070454FF6FF7202EA033224F0A0032A43F4
:101C4000A02404EA011119438261016230BD0168D8
:101C50000C3151E8002F22F4907241E80023002B50
:101C6000F5D10168143151E8002F22F0010241E85A
:101C70000023002BF5D1016B012909D101680C313A
:101C800051E8002F22F0100241E80023002BF5D18B
:101C9000202180F8421000210163704770B504468E
:101CA00000680169E26821F4405111430161216932
:101CB000A068E26908436169114308432168CA6862
:101CC00049F20C639A430243CA6020684169A269E1
:101CD00021F440711143416131492068884202D0AA
:101CE0003049884202D1FEF78BFF01E0FEF778FF12
:101CF000E2690023192164253226B2F5004F62689B
:101D000028D0A0FB0101930F9200FEF75BFA014679
:101D1000B0FBF5F06FF01802504301EB800006EBCA
:101D20000010B0FBF5F000F0F002B1FBF5F002EBB3
:101D30000012B1FBF5F06FF01803584301EB80007F
:101D400006EB0010B0FBF5F000F00F002168104426
:101D5000886070BDA0FB010192185B41FEF732FA6A
:101D60000146B0FBF5F00201B1FBF5F06FF018038E
:101D7000584301EB800006EBC000B0FBF5F000F02B
:101D8000F80002EB4002B1FBF5F0584301EB800094
:101D900006EBC000B0FBF5F000F00700D6E700004E
:101DA00000100140001401402DE9F8439846174601
:101DB0000D460446089E24E0701C22D0FEF7D6FD96
:101DC000A0EB0800B0421AD8CEB12068C16849071C
:101DD00017D5802D15D0402D13D00168C9430907B0
:101DE0000FD401680025406800902046FFF72FFFC0
:101DF0000820606484F840500120BDE8F883032087
:101E0000FBE72068006835EA000004D00020B842F3
:101E1000D2D00020F1E70120F9E7FEE70FB4054B2F
:101E200010B503A9044A029800F0EAF810BC5DF866
:101E300014FB0000092700081C0000200907090EF8
:101E4000002804DB00F1E02080F80014704700F067
:101E50000F0000F1E02080F8141D704702E008C870
:101E6000121F08C1002AFAD170477047002001E014
:101E700001C1121F002AFBD1704700002DE9FF5F4E
:101E800082B00021DDE90430020DDDF840B00343EB
:101E900018D044F61050A2F2FF32424315141198A4
:101EA00001281FD0A5EB0B00401C5FEA000A4FF091
:101EB00000064E4FDFF83891B046504615D5CAF1AE
:101EC000000413E0119801244AA3012801D16FEA0C
:101ED0000B010298119AC0E90031C0E9024206B034
:101EE000BDE8F09FCBF10000DFE704460021404A47
:101EF000491842EB0450CDE9001012E0E00707D08A
:101F000032463B4640464946FEF78EFA80468946B1
:101F100032463B4610461946FEF786FA06460F46FD
:101F20006410002CEAD1DDE90401DDE90023BAF1F7
:101F3000000F06DAFEF778FA42464B46FEF774FACF
:101F400005E0FEF7E3FA42464B46FEF7DFFA0446A9
:101F50000E460022284BFEF761FB03D84FF0FF30FE
:101F6000014607E00022254B20463146FEF7B5F931
:101F7000FEF73BFB102409E0002C0ADB0A220023B9
:101F8000FEF720F9039B30321A55641E50EA010215
:101F9000F2D1641C039AC4F111031444119A012A6A
:101FA00003D0012208430DD10AE0084304D00020E9
:101FB0004FF0110B119072E7A3EB0B056D1E0DE0B6
:101FC0005B4504DD4FF0000205F1010504E003DA92
:101FD0004FF00002A5F10105002AECD002981199FA
:101FE000C0E90231C0E9004579E700000000144073
:101FF0000000F03F300000000000F0430000E03F30
:102000002DE9FF4F95B09A46884606460025EEE139
:10201000252877D100242746F94A0121039400E0BE
:10202000044316F8013F203B01FA03F01042F7D1B8
:1020300030782A2811D06FF02F033078A0F13002C9
:10204000092A16D8039A44F0020402EB820203EB39
:1020500042021044761C0390EFE758F8042B0392D9
:10206000002A03DA504244F40054039044F002047E
:10207000761C30782E2816D116F8010F44F004048F
:102080002A280DD06FF02F023078A0F13003092BF1
:1020900009D807EB870302EB4303C718761CF3E765
:1020A00058F8047B761C30786C280FD006DC4C285E
:1020B00017D068280DD06A2814D104E0742810D0F5
:1020C0007A280FD10DE044F400140AE044F480149F
:1020D00001E044F440147278824202D104F5801485
:1020E000761C761C307866280BD013DC582877D005
:1020F00009DC002875D04528F6D04628F4D04728BA
:102100001AD193E118E0632835D0642879D0652886
:1021100012D18BE1702873D008DC6728F1D06928D0
:102120006FD06E280DD06F2806D1ACE073282CD06C
:10213000752874D0782853D05246179990476D1C53
:1021400054E1C4F30250022809D003280DD0D8F876
:10215000001004280DD00D6008F1040846E1D8F8FD
:102160000010EA17C1E90052F6E7D8F800100D8018
:10217000F2E70D70F0E718F8041B8DF8001000204E
:102180008DF80100EB46012003E058F804BB4FF046
:10219000FF3061074FF0000102D40DE009F10101A9
:1021A0008946B9420FDA8145F8DB1BF8091000298E
:1021B000F4D108E009F1010189468142FADB1BF8FC
:1021C00009100029F6D103985346A0EB09072146D0
:1021D0003846179A00F080FA284400EB090507E01A
:1021E00044E008E10DE01BF8010B524617999047B7
:1021F000B9F10109F7D2534621463846179AF2E061
:1022000039E00A21C4F302524FF0000B0091022A78
:1022100006D058F8040BC117032A09D00AE023E0BE
:1022200008F1070020F00702F2E80201904605E0FD
:1022300000B2C117042A01D140B2C117002906DA41
:102240000A460021404261EB02012D2202E02205F4
:1022500004D52B228DF80420012203E0E20701D0EF
:102260002022F7E7914657E00A2100E010214FF0C5
:10227000000B00910BE010214FF0000B44F0040420
:102280000827009103E008204FF0000B0090C4F3F2
:102290000252022A05D058F8040B0021032A08D064
:1022A00008E008F1070020F00702F2E8020190467A
:1022B00003E080B2042A00D1C0B24FF00009220727
:1022C0002AD53278702A07D0DDF800C08CF0100CC7
:1022D0005CEA0B0C05D00EE040228DF804200122B0
:1022E00008E050EA010306D030238DF804308DF861
:1022F000052002229146009B83F0080353EA0B035A
:102300000AD150EA010201D1620705D530228DF8C9
:1023100004204FF001097F1E3278582A04D039A2D8
:102320000C920CAA02920BE03BA2F9E75B46009AE2
:10233000FDF748FF0C9B9B5C029A521E02921370A1
:1023400050EA0102F2D1029804A9081A00F1200B08
:10235000600702D524F4803400E001275F4502DDE8
:10236000A7EB0B0000E0002000EB0B0100900398AE
:102370004944401A0390E00306D453462146179A75
:10238000039800F0A9F90544002706E001A8524689
:10239000C05D179990476D1C7F1C4F45F6DBE0032D
:1023A0000CD553462146179A039800F095F9054439
:1023B00004E030205246179990476D1C0099481E42
:1023C00000900029F5DC08E0029802995246007856
:1023D000491C0291179990476D1CBBF10001ABF1AC
:1023E000010BF1DC5BE100F065F90544761C307807
:1023F00000287FF40DAE19B02846BDE8F08F00002C
:1024000009280100303132333435363738396162CA
:10241000636465660000000030313233343536378E
:10242000383941424344454600000000600700D46B
:10243000062708F1070020F00700F0E80223804695
:1024400003F0004C5FEA0C0001D097A009E02005E2
:1024500001D596A005E0E00701D095A001E0AFF21C
:102460004C001390307823F0004365280CD006DC34
:10247000452809D046281DD047287FD13BE0662853
:1024800018D067287AD136E00021112F01DB112006
:1024900000E0781CCDE9000104A90CA8FFF7EEFCD0
:1024A000DDE90D010C9A4FF0000B07F101091092C4
:1024B00000914EE04FF000400097CDE9011004A9D3
:1024C0000CA8FFF7DBFCDDE90D020C9B0F994FF028
:1024D000000B91461093009211B9791C00EB010991
:1024E000B7EB090003D4C0F1FF3B07F10109A9EBE9
:1024F0000700019042E0012F00DA01270021112F8F
:1025000001DD112000E03846CDE9000104A90CA846
:10251000FFF7B4FCDDE90D010C9A00914FF0000BC0
:10252000B946109221070FD4009A4A4503DA914622
:1025300001E0A9F10109B9F1010F05DD109AA9F136
:102540000101515C3029F4D0B84202DA10F1040FD5
:1025500003DA0121CDE9011010E0002803DC8344F7
:10256000A9EB000102E0411C494500DD8946A0EBD2
:102570000B00401C01904FF000400290200705D452
:102580000198484502DB4FF0FF30019000208DF8A4
:102590004B0002980DF14B07B0F1004F25D00220FF
:1025A0000C902B200D90029800280CDA40420290EB
:1025B0002D200D9007E00A210298FDF759FE3031D9
:1025C000029007F8011D0C99481E0C900029F2DCBE
:1025D00002980028EFD1791E0D980870307800F02D
:1025E000200040F0450007F8020D11A8C01BC01DD7
:1025F00002901398007800B1012000EB09010198C6
:1026000001EBE071029801440398401A401E0390C8
:10261000E00306D453462146179A039800F05CF86D
:1026200005441398007818B15246179990476D1CCD
:10263000E00323D553462146179A039800F04CF83F
:1026400005441BE0BBF1000F07DB0098584504DD93
:102650001098179910F80B0001E017993020524696
:10266000904701980BF1010B401E05F10105019007
:1026700004D12E205246179990476D1CB9F10001E4
:10268000A9F10109DEDC05E017F8010B52461799A4
:1026900090476D1C0299481E02900029F4DC5346B5
:1026A0002146179A03989EE62D0000002B0000009B
:1026B000200000002DE9F041044600251E46174683
:1026C000880404D405E039462020B0476D1C641E00
:1026D000F9D52846BDE8F0812DE9F04104460025F2
:1026E0001E469046C80301D5302700E02027880405
:1026F00004D505E041463846B0476D1C641EF9D547
:102700002846BDE8F081000013B54FF6FF730122A3
:1027100069460248FEF7A0FF00981CBD6800002033
:102720002DED028BFEF730F9FFF772F8FEF7E6FFAA
:10273000FEF7FAFFFFF74AF800211648FEF788FE79
:1027400004211448FEF784FE1248FEF713FD124CD4
:10275000124E9FED138A0025F2EE0C8A4FF47A7721
:1027600020780028FCD0D6ED000AB0EE680A00EE12
:10277000880A10EE100AFDF768FD41EC100B09A065
:1027800053EC102BFFF74AFB25703846FDF7E4FFAA
:10279000E6E70000200000200200002008000020E2
:1027A0000000C842506861736520446966666572BE
:1027B000656E63653A20252E326620646567726512
:1027C00065730D0A0000000000000000000000001A
:1027D00001020304060708090000000001020304C7
:1027E0000028000800000020200000005C1E0008F7
:1027F0002028000820000020900400006C1E000823
:1028000000000000000000000000000001000000C7
:1028100010000000000000000024F4000000000090
:040000050800018965
:00000001FF
